{
  "contractName": "Auction2",
  "abi": [
    {
      "inputs": [
        {
          "internalType": "address",
          "name": "token",
          "type": "address"
        },
        {
          "internalType": "address",
          "name": "nft",
          "type": "address"
        }
      ],
      "stateMutability": "nonpayable",
      "type": "constructor"
    },
    {
      "inputs": [
        {
          "internalType": "uint256",
          "name": "id",
          "type": "uint256"
        },
        {
          "internalType": "uint256",
          "name": "price",
          "type": "uint256"
        }
      ],
      "name": "makeAuction",
      "outputs": [],
      "stateMutability": "nonpayable",
      "type": "function"
    },
    {
      "inputs": [
        {
          "internalType": "uint256",
          "name": "id",
          "type": "uint256"
        }
      ],
      "name": "nextState",
      "outputs": [],
      "stateMutability": "nonpayable",
      "type": "function"
    },
    {
      "inputs": [
        {
          "internalType": "uint256",
          "name": "id",
          "type": "uint256"
        },
        {
          "internalType": "address",
          "name": "bidder",
          "type": "address"
        },
        {
          "internalType": "uint256",
          "name": "price",
          "type": "uint256"
        }
      ],
      "name": "Bid",
      "outputs": [],
      "stateMutability": "nonpayable",
      "type": "function"
    },
    {
      "inputs": [
        {
          "internalType": "uint256",
          "name": "id",
          "type": "uint256"
        }
      ],
      "name": "showPrice",
      "outputs": [
        {
          "internalType": "uint256",
          "name": "",
          "type": "uint256"
        }
      ],
      "stateMutability": "view",
      "type": "function"
    },
    {
      "inputs": [
        {
          "internalType": "uint256",
          "name": "id",
          "type": "uint256"
        }
      ],
      "name": "showBuyer",
      "outputs": [
        {
          "internalType": "address",
          "name": "",
          "type": "address"
        }
      ],
      "stateMutability": "view",
      "type": "function"
    },
    {
      "inputs": [
        {
          "internalType": "uint256",
          "name": "id",
          "type": "uint256"
        }
      ],
      "name": "showSeller",
      "outputs": [
        {
          "internalType": "address",
          "name": "",
          "type": "address"
        }
      ],
      "stateMutability": "view",
      "type": "function"
    },
    {
      "inputs": [
        {
          "internalType": "uint256",
          "name": "id",
          "type": "uint256"
        }
      ],
      "name": "trade",
      "outputs": [],
      "stateMutability": "nonpayable",
      "type": "function"
    }
  ],
  "bytecode": "0x608060405260006006553480156200001657600080fd5b50604051620018b5380380620018b583398181016040528101906200003c9190620000dd565b81600260006101000a81548173ffffffffffffffffffffffffffffffffffffffff021916908373ffffffffffffffffffffffffffffffffffffffff16021790555080600360006101000a81548173ffffffffffffffffffffffffffffffffffffffff021916908373ffffffffffffffffffffffffffffffffffffffff16021790555050506200016c565b600081519050620000d78162000152565b92915050565b60008060408385031215620000f157600080fd5b60006200010185828601620000c6565b92505060206200011485828601620000c6565b9150509250929050565b60006200012b8262000132565b9050919050565b600073ffffffffffffffffffffffffffffffffffffffff82169050919050565b6200015d816200011e565b81146200016957600080fd5b50565b611739806200017c6000396000f3fe608060405234801561001057600080fd5b506004361061007d5760003560e01c8063dcd726e11161005b578063dcd726e1146100fe578063df1dd8261461011a578063e9afc54c14610136578063fdb3bde6146101665761007d565b80632af55ced1461008257806364bb057f146100b2578063a2bbce57146100e2575b600080fd5b61009c600480360381019061009791906111f1565b610182565b6040516100a99190611412565b60405180910390f35b6100cc60048036038101906100c791906111f1565b61020f565b6040516100d991906114e4565b60405180910390f35b6100fc60048036038101906100f79190611292565b61027c565b005b61011860048036038101906101139190611243565b6105a2565b005b610134600480360381019061012f91906111f1565b6108f2565b005b610150600480360381019061014b91906111f1565b610da5565b60405161015d9190611412565b60405180910390f35b610180600480360381019061017b91906111f1565b610e32565b005b60008060046000848152602001908152602001600020549050600181815481106101d5577f4e487b7100000000000000000000000000000000000000000000000000000000600052603260045260246000fd5b906000526020600020906005020160000160009054906101000a900473ffffffffffffffffffffffffffffffffffffffff16915050919050565b6000806004600084815260200190815260200160002054905060018181548110610262577f4e487b7100000000000000000000000000000000000000000000000000000000600052603260045260246000fd5b906000526020600020906005020160030154915050919050565b600015156005600084815260200190815260200160002060009054906101000a900460ff161515146102e3576040517f08c379a00000000000000000000000000000000000000000000000000000000081526004016102da90611464565b60405180910390fd5b6000600360009054906101000a900473ffffffffffffffffffffffffffffffffffffffff1673ffffffffffffffffffffffffffffffffffffffff16636352211e846040518263ffffffff1660e01b815260040161034091906114e4565b60206040518083038186803b15801561035857600080fd5b505afa15801561036c573d6000803e3d6000fd5b505050506040513d601f19601f82011682018060405250810190610390919061119f565b905060016040518060a001604052808373ffffffffffffffffffffffffffffffffffffffff1681526020018373ffffffffffffffffffffffffffffffffffffffff1681526020018581526020018481526020016001600281111561041d577f4e487b7100000000000000000000000000000000000000000000000000000000600052602160045260246000fd5b815250908060018154018082558091505060019003906000526020600020906005020160009091909190915060008201518160000160006101000a81548173ffffffffffffffffffffffffffffffffffffffff021916908373ffffffffffffffffffffffffffffffffffffffff16021790555060208201518160010160006101000a81548173ffffffffffffffffffffffffffffffffffffffff021916908373ffffffffffffffffffffffffffffffffffffffff160217905550604082015181600201556060820151816003015560808201518160040160006101000a81548160ff0219169083600281111561053c577f4e487b7100000000000000000000000000000000000000000000000000000000600052602160045260246000fd5b021790555050506006600081548092919061055690611617565b91905055600460008581526020019081526020016000208190555060016005600085815260200190815260200160002060006101000a81548160ff021916908315150217905550505050565b8260018060028111156105de577f4e487b7100000000000000000000000000000000000000000000000000000000600052602160045260246000fd5b60018381548110610618577f4e487b7100000000000000000000000000000000000000000000000000000000600052603260045260246000fd5b906000526020600020906005020160040160009054906101000a900460ff16600281111561066f577f4e487b7100000000000000000000000000000000000000000000000000000000600052602160045260246000fd5b1461067957600080fd5b6000600460008781526020019081526020016000205490506000600260009054906101000a900473ffffffffffffffffffffffffffffffffffffffff1673ffffffffffffffffffffffffffffffffffffffff166370a08231876040518263ffffffff1660e01b81526004016106ee9190611412565b60206040518083038186803b15801561070657600080fd5b505afa15801561071a573d6000803e3d6000fd5b505050506040513d601f19601f8201168201806040525081019061073e919061121a565b9050808510610782576040517f08c379a0000000000000000000000000000000000000000000000000000000008152600401610779906114a4565b60405180910390fd5b600182815481106107bc577f4e487b7100000000000000000000000000000000000000000000000000000000600052603260045260246000fd5b906000526020600020906005020160030154851061080f576040517f08c379a0000000000000000000000000000000000000000000000000000000008152600401610806906114c4565b60405180910390fd5b846001838154811061084a577f4e487b7100000000000000000000000000000000000000000000000000000000600052603260045260246000fd5b906000526020600020906005020160030181905550856001838154811061089a577f4e487b7100000000000000000000000000000000000000000000000000000000600052603260045260246000fd5b906000526020600020906005020160010160006101000a81548173ffffffffffffffffffffffffffffffffffffffff021916908373ffffffffffffffffffffffffffffffffffffffff16021790555050505050505050565b80600280600281111561092e577f4e487b7100000000000000000000000000000000000000000000000000000000600052602160045260246000fd5b60018381548110610968577f4e487b7100000000000000000000000000000000000000000000000000000000600052603260045260246000fd5b906000526020600020906005020160040160009054906101000a900460ff1660028111156109bf577f4e487b7100000000000000000000000000000000000000000000000000000000600052602160045260246000fd5b146109c957600080fd5b6109d283610182565b73ffffffffffffffffffffffffffffffffffffffff16600360009054906101000a900473ffffffffffffffffffffffffffffffffffffffff1673ffffffffffffffffffffffffffffffffffffffff16636352211e856040518263ffffffff1660e01b8152600401610a4391906114e4565b60206040518083038186803b158015610a5b57600080fd5b505afa158015610a6f573d6000803e3d6000fd5b505050506040513d601f19601f82011682018060405250810190610a93919061119f565b73ffffffffffffffffffffffffffffffffffffffff1614610ae9576040517f08c379a0000000000000000000000000000000000000000000000000000000008152600401610ae090611484565b60405180910390fd5b600060646005610af88661020f565b610b029190611541565b610b0c9190611510565b90506000610b1985610182565b90506000610b2686610da5565b9050600260009054906101000a900473ffffffffffffffffffffffffffffffffffffffff1673ffffffffffffffffffffffffffffffffffffffff1663beabacc88260008054906101000a900473ffffffffffffffffffffffffffffffffffffffff16866040518463ffffffff1660e01b8152600401610ba79392919061142d565b602060405180830381600087803b158015610bc157600080fd5b505af1158015610bd5573d6000803e3d6000fd5b505050506040513d601f19601f82011682018060405250810190610bf991906111c8565b50600260009054906101000a900473ffffffffffffffffffffffffffffffffffffffff1673ffffffffffffffffffffffffffffffffffffffff1663beabacc8828486610c448b61020f565b610c4e919061159b565b6040518463ffffffff1660e01b8152600401610c6c9392919061142d565b602060405180830381600087803b158015610c8657600080fd5b505af1158015610c9a573d6000803e3d6000fd5b505050506040513d601f19601f82011682018060405250810190610cbe91906111c8565b50600360009054906101000a900473ffffffffffffffffffffffffffffffffffffffff1673ffffffffffffffffffffffffffffffffffffffff166323b872dd8383896040518463ffffffff1660e01b8152600401610d1e9392919061142d565b602060405180830381600087803b158015610d3857600080fd5b505af1158015610d4c573d6000803e3d6000fd5b505050506040513d601f19601f82011682018060405250810190610d7091906111c8565b5060006005600088815260200190815260200160002060006101000a81548160ff021916908315150217905550505050505050565b6000806004600084815260200190815260200160002054905060018181548110610df8577f4e487b7100000000000000000000000000000000000000000000000000000000600052603260045260246000fd5b906000526020600020906005020160010160009054906101000a900473ffffffffffffffffffffffffffffffffffffffff16915050919050565b600060046000838152602001908152602001600020549050600280811115610e83577f4e487b7100000000000000000000000000000000000000000000000000000000600052602160045260246000fd5b60018281548110610ebd577f4e487b7100000000000000000000000000000000000000000000000000000000600052603260045260246000fd5b906000526020600020906005020160040160009054906101000a900460ff166002811115610f14577f4e487b7100000000000000000000000000000000000000000000000000000000600052602160045260246000fd5b1415610f1f57600080fd5b60006002811115610f59577f4e487b7100000000000000000000000000000000000000000000000000000000600052602160045260246000fd5b60018281548110610f93577f4e487b7100000000000000000000000000000000000000000000000000000000600052603260045260246000fd5b906000526020600020906005020160040160009054906101000a900460ff166002811115610fea577f4e487b7100000000000000000000000000000000000000000000000000000000600052602160045260246000fd5b141561108e57600180828154811061102b577f4e487b7100000000000000000000000000000000000000000000000000000000600052603260045260246000fd5b906000526020600020906005020160040160006101000a81548160ff02191690836002811115611084577f4e487b7100000000000000000000000000000000000000000000000000000000600052602160045260246000fd5b0217905550611132565b6002600182815481106110ca577f4e487b7100000000000000000000000000000000000000000000000000000000600052603260045260246000fd5b906000526020600020906005020160040160006101000a81548160ff02191690836002811115611123577f4e487b7100000000000000000000000000000000000000000000000000000000600052602160045260246000fd5b0217905550611131826108f2565b5b5050565b600081359050611145816116be565b92915050565b60008151905061115a816116be565b92915050565b60008151905061116f816116d5565b92915050565b600081359050611184816116ec565b92915050565b600081519050611199816116ec565b92915050565b6000602082840312156111b157600080fd5b60006111bf8482850161114b565b91505092915050565b6000602082840312156111da57600080fd5b60006111e884828501611160565b91505092915050565b60006020828403121561120357600080fd5b600061121184828501611175565b91505092915050565b60006020828403121561122c57600080fd5b600061123a8482850161118a565b91505092915050565b60008060006060848603121561125857600080fd5b600061126686828701611175565b935050602061127786828701611136565b925050604061128886828701611175565b9150509250925092565b600080604083850312156112a557600080fd5b60006112b385828601611175565b92505060206112c485828601611175565b9150509250929050565b6112d7816115cf565b82525050565b60006112ea6012836114ff565b91507f616c7265616479207265676973746572656400000000000000000000000000006000830152602082019050919050565b600061132a6013836114ff565b91507f73656c6c6572206973206e6f74206f776e6572000000000000000000000000006000830152602082019050919050565b600061136a6015836114ff565b91507f707269636520657863656564732062616c616e636500000000000000000000006000830152602082019050919050565b60006113aa6024836114ff565b91507f6e65656420746f20626520686967686572207468616e2068696768657374207060008301527f72696365000000000000000000000000000000000000000000000000000000006020830152604082019050919050565b61140c8161160d565b82525050565b600060208201905061142760008301846112ce565b92915050565b600060608201905061144260008301866112ce565b61144f60208301856112ce565b61145c6040830184611403565b949350505050565b6000602082019050818103600083015261147d816112dd565b9050919050565b6000602082019050818103600083015261149d8161131d565b9050919050565b600060208201905081810360008301526114bd8161135d565b9050919050565b600060208201905081810360008301526114dd8161139d565b9050919050565b60006020820190506114f96000830184611403565b92915050565b600082825260208201905092915050565b600061151b8261160d565b91506115268361160d565b9250826115365761153561168f565b5b828204905092915050565b600061154c8261160d565b91506115578361160d565b9250817fffffffffffffffffffffffffffffffffffffffffffffffffffffffffffffffff04831182151516156115905761158f611660565b5b828202905092915050565b60006115a68261160d565b91506115b18361160d565b9250828210156115c4576115c3611660565b5b828203905092915050565b60006115da826115ed565b9050919050565b60008115159050919050565b600073ffffffffffffffffffffffffffffffffffffffff82169050919050565b6000819050919050565b60006116228261160d565b91507fffffffffffffffffffffffffffffffffffffffffffffffffffffffffffffffff82141561165557611654611660565b5b600182019050919050565b7f4e487b7100000000000000000000000000000000000000000000000000000000600052601160045260246000fd5b7f4e487b7100000000000000000000000000000000000000000000000000000000600052601260045260246000fd5b6116c7816115cf565b81146116d257600080fd5b50565b6116de816115e1565b81146116e957600080fd5b50565b6116f58161160d565b811461170057600080fd5b5056fea2646970667358221220612e05c3f1e765e63c619c7542e09ed3d5d70a02401ca1d3c1cf5f30c4f4b95d64736f6c63430008000033",
  "immutableReferences": {},
  "source": "// SPDX-License-Identifier: GPL-3.0\npragma solidity 0.8.0;\nimport \"./libraries/NFT.sol\";\nimport \"./libraries/Token.sol\";\n\ncontract Auction2 {\n    enum Phase {\n        Init,\n        Bidding,\n        Done\n    }\n    address owner;\n\n    struct auction {\n        address seller;\n        address buyer;\n        uint256 id;\n        uint256 price;\n        Phase state;\n    }\n\n    auction[] auctions;\n\n    modifier validPhase(uint256 id, Phase phase) {\n        require(auctions[id].state == phase);\n        _;\n    }\n\n    // modifier isSeller(){\n    //     require(msg.sender == seller);\n    //     _;\n    // }\n\n    Token private gold;\n    NFT private item;\n\n    constructor(address token, address nft) {\n        gold = Token(token);\n        item = NFT(nft);\n    }\n\n    mapping(uint256 => uint256) private AuctionNum;\n    mapping(uint256 => bool) private isReg;\n    uint256 counter = 0;\n\n    function makeAuction(uint256 id, uint256 price) public {\n        require(isReg[id] == false, \"already registered\");\n        address seller = item.ownerOf(id);\n        auctions.push(auction(seller, seller, id, price, Phase.Bidding));\n        AuctionNum[id] = counter++;\n        isReg[id] = true;\n    }\n\n    function nextState(uint256 id) public {\n        uint256 num = AuctionNum[id];\n        if (auctions[num].state == Phase.Done) revert();\n        if (auctions[num].state == Phase.Init)\n            auctions[num].state = Phase.Bidding;\n        else {\n            auctions[num].state = Phase.Done;\n            trade(id);\n        }\n    }\n\n    function Bid(\n        uint256 id,\n        address bidder,\n        uint256 price\n    ) public validPhase(id, Phase.Bidding) {\n        uint256 num = AuctionNum[id];\n        uint256 balance = gold.balanceOf(bidder);\n        require(price < balance, \"price exceeds balance\");\n        require(\n            price < auctions[num].price,\n            \"need to be higher than highest price\"\n        );\n        auctions[num].price = price;\n        auctions[num].buyer = bidder;\n    }\n\n    function showPrice(uint256 id) public view returns (uint256) {\n        uint256 num = AuctionNum[id];\n        return auctions[num].price;\n    }\n\n    function showBuyer(uint256 id) public view returns (address) {\n        uint256 num = AuctionNum[id];\n        return auctions[num].buyer;\n    }\n\n    function showSeller(uint256 id) public view returns (address) {\n        uint256 num = AuctionNum[id];\n        return auctions[num].seller;\n    }\n\n    function trade(uint256 id) public validPhase(id, Phase.Done) {\n        require(item.ownerOf(id) == showSeller(id), \"seller is not owner\");\n        uint256 fee = (showPrice(id) * 5) / 100;\n        address seller = showSeller(id);\n        address buyer = showBuyer(id);\n        gold.transfer(buyer, owner, fee);\n        gold.transfer(buyer, seller, showPrice(id) - fee);\n        item.transferFrom(seller, buyer, id);\n        isReg[id] = false;\n    }\n}\n",
  "sourcePath": "/Users/yuhojin/Desktop/BEB_01_final2-contract/truffle/contracts/Auction2.sol",
  "compiler": {
    "name": "solc",
    "version": "0.8.0+commit.c7dfd78e.Emscripten.clang"
  },
  "schemaVersion": "3.4.4",
  "updatedAt": "2022-01-24T07:11:44.691Z",
  "devdoc": {
    "kind": "dev",
    "methods": {},
    "version": 1
  },
  "userdoc": {
    "kind": "user",
    "methods": {},
    "version": 1
  }
}