{
  "contractName": "Auction",
  "abi": [
    {
      "inputs": [
        {
          "internalType": "address",
          "name": "_char",
          "type": "address"
        }
      ],
      "stateMutability": "nonpayable",
      "type": "constructor"
    },
    {
      "anonymous": false,
      "inputs": [
        {
          "indexed": true,
          "internalType": "uint256",
          "name": "price",
          "type": "uint256"
        },
        {
          "indexed": true,
          "internalType": "address",
          "name": "_address",
          "type": "address"
        }
      ],
      "name": "BidEvent",
      "type": "event"
    },
    {
      "anonymous": false,
      "inputs": [
        {
          "indexed": true,
          "internalType": "address",
          "name": "_owner",
          "type": "address"
        },
        {
          "indexed": true,
          "internalType": "uint256",
          "name": "_price",
          "type": "uint256"
        },
        {
          "indexed": true,
          "internalType": "uint256",
          "name": "_item",
          "type": "uint256"
        }
      ],
      "name": "make_trade_event",
      "type": "event"
    },
    {
      "anonymous": false,
      "inputs": [
        {
          "indexed": true,
          "internalType": "address",
          "name": "_owner",
          "type": "address"
        },
        {
          "indexed": true,
          "internalType": "address",
          "name": "_buyer",
          "type": "address"
        },
        {
          "indexed": true,
          "internalType": "uint256",
          "name": "_price",
          "type": "uint256"
        }
      ],
      "name": "trade_end",
      "type": "event"
    },
    {
      "anonymous": false,
      "inputs": [
        {
          "indexed": true,
          "internalType": "uint256",
          "name": "_number",
          "type": "uint256"
        },
        {
          "indexed": true,
          "internalType": "uint256",
          "name": "tax",
          "type": "uint256"
        }
      ],
      "name": "trade_end_tax",
      "type": "event"
    },
    {
      "inputs": [
        {
          "internalType": "uint256",
          "name": "_price",
          "type": "uint256"
        },
        {
          "internalType": "uint256",
          "name": "_item",
          "type": "uint256"
        }
      ],
      "name": "make_trade",
      "outputs": [
        {
          "internalType": "bool",
          "name": "",
          "type": "bool"
        }
      ],
      "stateMutability": "nonpayable",
      "type": "function"
    },
    {
      "inputs": [
        {
          "internalType": "uint256",
          "name": "price",
          "type": "uint256"
        },
        {
          "internalType": "address",
          "name": "_buyer",
          "type": "address"
        },
        {
          "internalType": "uint256",
          "name": "Room_number",
          "type": "uint256"
        }
      ],
      "name": "Bid",
      "outputs": [
        {
          "internalType": "bool",
          "name": "",
          "type": "bool"
        }
      ],
      "stateMutability": "nonpayable",
      "type": "function"
    },
    {
      "inputs": [
        {
          "internalType": "uint256",
          "name": "room_number",
          "type": "uint256"
        }
      ],
      "name": "trade",
      "outputs": [
        {
          "internalType": "bool",
          "name": "",
          "type": "bool"
        }
      ],
      "stateMutability": "nonpayable",
      "type": "function"
    },
    {
      "inputs": [
        {
          "internalType": "uint256",
          "name": "room_number",
          "type": "uint256"
        }
      ],
      "name": "tradeOff",
      "outputs": [
        {
          "internalType": "bool",
          "name": "",
          "type": "bool"
        }
      ],
      "stateMutability": "nonpayable",
      "type": "function"
    },
    {
      "inputs": [
        {
          "internalType": "uint256",
          "name": "room_number",
          "type": "uint256"
        }
      ],
      "name": "showRoom",
      "outputs": [
        {
          "components": [
            {
              "internalType": "address",
              "name": "seller",
              "type": "address"
            },
            {
              "internalType": "address",
              "name": "buyer",
              "type": "address"
            },
            {
              "internalType": "uint256",
              "name": "price",
              "type": "uint256"
            },
            {
              "internalType": "uint256",
              "name": "product",
              "type": "uint256"
            }
          ],
          "internalType": "struct Auction.Room",
          "name": "",
          "type": "tuple"
        }
      ],
      "stateMutability": "view",
      "type": "function",
      "constant": true
    },
    {
      "inputs": [
        {
          "internalType": "uint256",
          "name": "room_number",
          "type": "uint256"
        }
      ],
      "name": "highest",
      "outputs": [
        {
          "internalType": "uint256",
          "name": "",
          "type": "uint256"
        }
      ],
      "stateMutability": "view",
      "type": "function",
      "constant": true
    },
    {
      "inputs": [
        {
          "internalType": "uint256",
          "name": "room_number",
          "type": "uint256"
        }
      ],
      "name": "showBuyer",
      "outputs": [
        {
          "internalType": "address",
          "name": "",
          "type": "address"
        }
      ],
      "stateMutability": "view",
      "type": "function",
      "constant": true
    },
    {
      "inputs": [
        {
          "internalType": "uint256",
          "name": "room_number",
          "type": "uint256"
        }
      ],
      "name": "showSeller",
      "outputs": [
        {
          "internalType": "address",
          "name": "",
          "type": "address"
        }
      ],
      "stateMutability": "view",
      "type": "function",
      "constant": true
    }
  ],
  "bytecode": "0x60806040523480156200001157600080fd5b5060405162001a2438038062001a24833981810160405281019062000037919062000096565b80600760006101000a81548173ffffffffffffffffffffffffffffffffffffffff021916908373ffffffffffffffffffffffffffffffffffffffff1602179055505062000110565b6000815190506200009081620000f6565b92915050565b600060208284031215620000a957600080fd5b6000620000b9848285016200007f565b91505092915050565b6000620000cf82620000d6565b9050919050565b600073ffffffffffffffffffffffffffffffffffffffff82169050919050565b6200010181620000c2565b81146200010d57600080fd5b50565b61190480620001206000396000f3fe608060405234801561001057600080fd5b50600436106100885760003560e01c8063df1dd8261161005b578063df1dd8261461014d578063e076913c1461017d578063e9afc54c146101ad578063fd92b43e146101dd57610088565b80632af55ced1461008d5780635c3bd8fe146100bd578063b1efbf6e146100ed578063dcd726e11461011d575b600080fd5b6100a760048036038101906100a291906113a7565b61020d565b6040516100b4919061164a565b60405180910390f35b6100d760048036038101906100d291906113a7565b610365565b6040516100e49190611737565b60405180910390f35b61010760048036038101906101029190611448565b6104b9565b604051610114919061169c565b60405180910390f35b610137600480360381019061013291906113f9565b6108a9565b604051610144919061169c565b60405180910390f35b610167600480360381019061016291906113a7565b610afd565b604051610174919061169c565b60405180910390f35b610197600480360381019061019291906113a7565b610fb2565b6040516101a49190611752565b60405180910390f35b6101c760048036038101906101c291906113a7565b61110a565b6040516101d4919061164a565b60405180910390f35b6101f760048036038101906101f291906113a7565b611262565b604051610204919061169c565b60405180910390f35b6000600115156005600084815260200190815260200160002060009054906101000a900460ff16151514610276576040517f08c379a000000000000000000000000000000000000000000000000000000000815260040161026d906116d7565b60405180910390fd5b6000600460008481526020019081526020016000206040518060800160405290816000820160009054906101000a900473ffffffffffffffffffffffffffffffffffffffff1673ffffffffffffffffffffffffffffffffffffffff1673ffffffffffffffffffffffffffffffffffffffff1681526020016001820160009054906101000a900473ffffffffffffffffffffffffffffffffffffffff1673ffffffffffffffffffffffffffffffffffffffff1673ffffffffffffffffffffffffffffffffffffffff1681526020016002820154815260200160038201548152505090508060000151915050919050565b61036d611298565b600115156005600084815260200190815260200160002060009054906101000a900460ff161515146103d4576040517f08c379a00000000000000000000000000000000000000000000000000000000081526004016103cb906116d7565b60405180910390fd5b600460008381526020019081526020016000206040518060800160405290816000820160009054906101000a900473ffffffffffffffffffffffffffffffffffffffff1673ffffffffffffffffffffffffffffffffffffffff1673ffffffffffffffffffffffffffffffffffffffff1681526020016001820160009054906101000a900473ffffffffffffffffffffffffffffffffffffffff1673ffffffffffffffffffffffffffffffffffffffff1673ffffffffffffffffffffffffffffffffffffffff168152602001600282015481526020016003820154815250509050919050565b60008073ffffffffffffffffffffffffffffffffffffffff16600760009054906101000a900473ffffffffffffffffffffffffffffffffffffffff1673ffffffffffffffffffffffffffffffffffffffff16636352211e846040518263ffffffff1660e01b815260040161052d9190611752565b60206040518083038186803b15801561054557600080fd5b505afa158015610559573d6000803e3d6000fd5b505050506040513d601f19601f8201168201806040525081019061057d9190611355565b73ffffffffffffffffffffffffffffffffffffffff1614156105d4576040517f08c379a00000000000000000000000000000000000000000000000000000000081526004016105cb906116b7565b60405180910390fd5b6040518060800160405280600760009054906101000a900473ffffffffffffffffffffffffffffffffffffffff1673ffffffffffffffffffffffffffffffffffffffff16636352211e856040518263ffffffff1660e01b815260040161063a9190611752565b60206040518083038186803b15801561065257600080fd5b505afa158015610666573d6000803e3d6000fd5b505050506040513d601f19601f8201168201806040525081019061068a9190611355565b73ffffffffffffffffffffffffffffffffffffffff168152602001600073ffffffffffffffffffffffffffffffffffffffff168152602001848152602001838152506004600084815260200190815260200160002060008201518160000160006101000a81548173ffffffffffffffffffffffffffffffffffffffff021916908373ffffffffffffffffffffffffffffffffffffffff16021790555060208201518160010160006101000a81548173ffffffffffffffffffffffffffffffffffffffff021916908373ffffffffffffffffffffffffffffffffffffffff160217905550604082015181600201556060820151816003015590505060016005600084815260200190815260200160002060006101000a81548160ff0219169083151502179055508183600760009054906101000a900473ffffffffffffffffffffffffffffffffffffffff1673ffffffffffffffffffffffffffffffffffffffff16636352211e856040518263ffffffff1660e01b815260040161080d9190611752565b60206040518083038186803b15801561082557600080fd5b505afa158015610839573d6000803e3d6000fd5b505050506040513d601f19601f8201168201806040525081019061085d9190611355565b73ffffffffffffffffffffffffffffffffffffffff167fa70470f5bc6fff023cafba0342a1f626ec5227fffd3cd25dfd5d46b2310e37a960405160405180910390a46001905092915050565b600080600760009054906101000a900473ffffffffffffffffffffffffffffffffffffffff1673ffffffffffffffffffffffffffffffffffffffff1663864ca300856040518263ffffffff1660e01b8152600401610907919061164a565b60206040518083038186803b15801561091f57600080fd5b505afa158015610933573d6000803e3d6000fd5b505050506040513d601f19601f8201168201806040525081019061095791906113d0565b90508085111561099c576040517f08c379a0000000000000000000000000000000000000000000000000000000008152600401610993906116f7565b60405180910390fd5b600115156005600085815260200190815260200160002060009054906101000a900460ff16151514610a03576040517f08c379a00000000000000000000000000000000000000000000000000000000081526004016109fa906116d7565b60405180910390fd5b600060046000858152602001908152602001600020905085816002015410610a60576040517f08c379a0000000000000000000000000000000000000000000000000000000008152600401610a5790611717565b60405180910390fd5b848160010160006101000a81548173ffffffffffffffffffffffffffffffffffffffff021916908373ffffffffffffffffffffffffffffffffffffffff1602179055508581600201819055508473ffffffffffffffffffffffffffffffffffffffff16867faea98c5b3e39af87a50472acaea8192cceb5f9da7d28b5727d39d3d869fc7d8260405160405180910390a36001925050509392505050565b6000600115156005600084815260200190815260200160002060009054906101000a900460ff16151514610b66576040517f08c379a0000000000000000000000000000000000000000000000000000000008152600401610b5d906116d7565b60405180910390fd5b60006004600084815260200190815260200160002090506000600a8260020154610b90919061177e565b90506000818360020154610ba491906117af565b9050600760009054906101000a900473ffffffffffffffffffffffffffffffffffffffff1673ffffffffffffffffffffffffffffffffffffffff1663f01070e8600760009054906101000a900473ffffffffffffffffffffffffffffffffffffffff1673ffffffffffffffffffffffffffffffffffffffff1663ded946886040518163ffffffff1660e01b815260040160206040518083038186803b158015610c4c57600080fd5b505afa158015610c60573d6000803e3d6000fd5b505050506040513d601f19601f82011682018060405250810190610c849190611355565b8560000160009054906101000a900473ffffffffffffffffffffffffffffffffffffffff16856040518463ffffffff1660e01b8152600401610cc893929190611665565b600060405180830381600087803b158015610ce257600080fd5b505af1158015610cf6573d6000803e3d6000fd5b50505050600760009054906101000a900473ffffffffffffffffffffffffffffffffffffffff1673ffffffffffffffffffffffffffffffffffffffff1663f01070e88460000160009054906101000a900473ffffffffffffffffffffffffffffffffffffffff168560010160009054906101000a900473ffffffffffffffffffffffffffffffffffffffff16846040518463ffffffff1660e01b8152600401610da193929190611665565b600060405180830381600087803b158015610dbb57600080fd5b505af1158015610dcf573d6000803e3d6000fd5b50505050600760009054906101000a900473ffffffffffffffffffffffffffffffffffffffff1673ffffffffffffffffffffffffffffffffffffffff166323b872dd8460000160009054906101000a900473ffffffffffffffffffffffffffffffffffffffff168560010160009054906101000a900473ffffffffffffffffffffffffffffffffffffffff1686600301546040518463ffffffff1660e01b8152600401610e7e93929190611665565b602060405180830381600087803b158015610e9857600080fd5b505af1158015610eac573d6000803e3d6000fd5b505050506040513d601f19601f82011682018060405250810190610ed0919061137e565b5082600201548360010160009054906101000a900473ffffffffffffffffffffffffffffffffffffffff1673ffffffffffffffffffffffffffffffffffffffff168460000160009054906101000a900473ffffffffffffffffffffffffffffffffffffffff1673ffffffffffffffffffffffffffffffffffffffff167f15ca89c15d60b404a21bc4924c3aadf666c5bf96c21450297d005128c0738b4360405160405180910390a481857fc90ef45845ec3a861e6865fbeb07d90c7254694e1a74fc8e8c8202c930a3940c60405160405180910390a360019350505050919050565b6000600115156005600084815260200190815260200160002060009054906101000a900460ff1615151461101b576040517f08c379a0000000000000000000000000000000000000000000000000000000008152600401611012906116d7565b60405180910390fd5b6000600460008481526020019081526020016000206040518060800160405290816000820160009054906101000a900473ffffffffffffffffffffffffffffffffffffffff1673ffffffffffffffffffffffffffffffffffffffff1673ffffffffffffffffffffffffffffffffffffffff1681526020016001820160009054906101000a900473ffffffffffffffffffffffffffffffffffffffff1673ffffffffffffffffffffffffffffffffffffffff1673ffffffffffffffffffffffffffffffffffffffff1681526020016002820154815260200160038201548152505090508060400151915050919050565b6000600115156005600084815260200190815260200160002060009054906101000a900460ff16151514611173576040517f08c379a000000000000000000000000000000000000000000000000000000000815260040161116a906116d7565b60405180910390fd5b6000600460008481526020019081526020016000206040518060800160405290816000820160009054906101000a900473ffffffffffffffffffffffffffffffffffffffff1673ffffffffffffffffffffffffffffffffffffffff1673ffffffffffffffffffffffffffffffffffffffff1681526020016001820160009054906101000a900473ffffffffffffffffffffffffffffffffffffffff1673ffffffffffffffffffffffffffffffffffffffff1673ffffffffffffffffffffffffffffffffffffffff1681526020016002820154815260200160038201548152505090508060200151915050919050565b6000806005600084815260200190815260200160002060006101000a81548160ff02191690831515021790555060019050919050565b6040518060800160405280600073ffffffffffffffffffffffffffffffffffffffff168152602001600073ffffffffffffffffffffffffffffffffffffffff16815260200160008152602001600081525090565b6000813590506112fb81611889565b92915050565b60008151905061131081611889565b92915050565b600081519050611325816118a0565b92915050565b60008135905061133a816118b7565b92915050565b60008151905061134f816118b7565b92915050565b60006020828403121561136757600080fd5b600061137584828501611301565b91505092915050565b60006020828403121561139057600080fd5b600061139e84828501611316565b91505092915050565b6000602082840312156113b957600080fd5b60006113c78482850161132b565b91505092915050565b6000602082840312156113e257600080fd5b60006113f084828501611340565b91505092915050565b60008060006060848603121561140e57600080fd5b600061141c8682870161132b565b935050602061142d868287016112ec565b925050604061143e8682870161132b565b9150509250925092565b6000806040838503121561145b57600080fd5b60006114698582860161132b565b925050602061147a8582860161132b565b9150509250929050565b61148d816117e3565b82525050565b61149c816117e3565b82525050565b6114ab816117f5565b82525050565b60006114be60108361176d565b91507f6e6f7420796f7572204974656d212121000000000000000000000000000000006000830152602082019050919050565b60006114fe60128361176d565b91507f4e6f206578697374656420526f6f6d21212100000000000000000000000000006000830152602082019050919050565b600061153e60158361176d565b91507f707269636520657863656564732062616c616e636500000000000000000000006000830152602082019050919050565b600061157e60248361176d565b91507f6e65656420746f20626520686967686572207468616e2068696768657374207060008301527f72696365000000000000000000000000000000000000000000000000000000006020830152604082019050919050565b6080820160008201516115ed6000850182611484565b5060208201516116006020850182611484565b506040820151611613604085018261162c565b506060820151611626606085018261162c565b50505050565b61163581611821565b82525050565b61164481611821565b82525050565b600060208201905061165f6000830184611493565b92915050565b600060608201905061167a6000830186611493565b6116876020830185611493565b611694604083018461163b565b949350505050565b60006020820190506116b160008301846114a2565b92915050565b600060208201905081810360008301526116d0816114b1565b9050919050565b600060208201905081810360008301526116f0816114f1565b9050919050565b6000602082019050818103600083015261171081611531565b9050919050565b6000602082019050818103600083015261173081611571565b9050919050565b600060808201905061174c60008301846115d7565b92915050565b6000602082019050611767600083018461163b565b92915050565b600082825260208201905092915050565b600061178982611821565b915061179483611821565b9250826117a4576117a361185a565b5b828204905092915050565b60006117ba82611821565b91506117c583611821565b9250828210156117d8576117d761182b565b5b828203905092915050565b60006117ee82611801565b9050919050565b60008115159050919050565b600073ffffffffffffffffffffffffffffffffffffffff82169050919050565b6000819050919050565b7f4e487b7100000000000000000000000000000000000000000000000000000000600052601160045260246000fd5b7f4e487b7100000000000000000000000000000000000000000000000000000000600052601260045260246000fd5b611892816117e3565b811461189d57600080fd5b50565b6118a9816117f5565b81146118b457600080fd5b50565b6118c081611821565b81146118cb57600080fd5b5056fea2646970667358221220049845487c7b5e834f5f036400171f94eb0f936d24722b74309bd6301e28015c64736f6c63430008000033",
  "immutableReferences": {},
  "source": "// SPDX-License-Identifier: GPL-3.0\npragma solidity 0.8.0;\n\nimport \"./Character.sol\";\n\ninterface Auction_test {\n    function Bid(\n        uint256 price,\n        address _address,\n        uint256 room_number\n    ) external returns (bool);\n\n    function make_trade(uint256 _price, uint256 _item) external returns (bool);\n\n    event BidEvent(uint256 indexed price, address indexed _address);\n    event make_trade_event(\n        address indexed _owner,\n        uint256 indexed _price,\n        uint256 indexed _item\n    );\n    event trade_end(\n        address indexed _owner,\n        address indexed _buyer,\n        uint256 indexed _price\n    );\n    event trade_end_tax(uint256 indexed _number, uint256 indexed tax);\n}\n\ncontract Auction is Auction_test {\n    address private seller;\n    address private buyer;\n\n    uint256 private ID;\n    uint256 private highestPrice;\n\n    //    \n    mapping(uint256 => Room) private Room_Number;\n    //    \n    mapping(uint256 => bool) private check_room;\n    //  nft   room_number \n    mapping(uint256 => uint256) private NFT_Room_number;\n\n    Character private character;\n\n    struct Room {\n        address seller;\n        address buyer;\n        uint256 price;\n        uint256 product;\n    }\n\n    constructor(address _char) {\n        character = Character(_char);\n    }\n\n    function make_trade(uint256 _price, uint256 _item)\n        public\n        override\n        returns (bool)\n    {\n        require(character.ownerOf(_item) != address(0x0), \"not your Item!!!\");\n        Room_Number[_item] = Room({\n            seller: character.ownerOf(_item),\n            buyer: address(0x0),\n            price: _price,\n            product: _item\n        });\n        check_room[_item] = true;\n        emit make_trade_event(character.ownerOf(_item), _price, _item);\n        return true;\n    }\n\n    function Bid(\n        uint256 price,\n        address _buyer,\n        uint256 Room_number\n    ) public override returns (bool) {\n        uint256 balance = character.goldBalanceOf(_buyer);\n        require(price <= balance, \"price exceeds balance\");\n        require(check_room[Room_number] == true, \"No existed Room!!!\");\n        Room storage room = Room_Number[Room_number];\n        require(room.price < price, \"need to be higher than highest price\");\n        room.buyer = _buyer;\n        room.price = price;\n        emit BidEvent(price, _buyer);\n        return true;\n    }\n\n    function trade(uint256 room_number) public returns (bool) {\n        require(check_room[room_number] == true, \"No existed Room!!!\");\n        Room storage room = Room_Number[room_number];\n        uint256 fee = room.price / 10;\n        uint256 amount = room.price - fee;\n\n        //   \n        character.Gold_transferfrom(character.showOwner(), room.seller, fee);\n        character.Gold_transferfrom(room.seller, room.buyer, amount);\n\n        //NFT  \n        character.transferFrom(room.seller, room.buyer, room.product);\n        emit trade_end(room.seller, room.buyer, room.price);\n        emit trade_end_tax(room_number, fee);\n        return true;\n    }\n\n    function tradeOff(uint256 room_number) public returns (bool) {\n        check_room[room_number] = false;\n        return true;\n    }\n\n    function showRoom(uint256 room_number) public view returns (Room memory) {\n        require(check_room[room_number] == true, \"No existed Room!!!\");\n        return Room_Number[room_number];\n    }\n\n    function highest(uint256 room_number) public view returns (uint256) {\n        require(check_room[room_number] == true, \"No existed Room!!!\");\n        Room memory room = Room_Number[room_number];\n        return room.price;\n    }\n\n    function showBuyer(uint256 room_number) public view returns (address) {\n        require(check_room[room_number] == true, \"No existed Room!!!\");\n        Room memory room = Room_Number[room_number];\n        return room.buyer;\n    }\n\n    function showSeller(uint256 room_number) public view returns (address) {\n        require(check_room[room_number] == true, \"No existed Room!!!\");\n        Room memory room = Room_Number[room_number];\n        return room.seller;\n    }\n}\n",
  "sourcePath": "/Users/yuhojin/Desktop/BEB_01_final2/truffle/contracts/Auction_hojin.sol",
  "compiler": {
    "name": "solc",
    "version": "0.8.0+commit.c7dfd78e.Emscripten.clang"
  },
  "schemaVersion": "3.4.4",
  "updatedAt": "2022-01-28T08:01:56.708Z",
  "networkType": "ethereum",
  "devdoc": {
    "kind": "dev",
    "methods": {},
    "version": 1
  },
  "userdoc": {
    "kind": "user",
    "methods": {},
    "version": 1
  }
}