{
  "contractName": "Character",
  "abi": [
    {
      "inputs": [
        {
          "internalType": "address",
          "name": "token",
          "type": "address"
        }
      ],
      "stateMutability": "nonpayable",
      "type": "constructor"
    },
    {
      "anonymous": false,
      "inputs": [
        {
          "indexed": true,
          "internalType": "address",
          "name": "owner",
          "type": "address"
        },
        {
          "indexed": true,
          "internalType": "address",
          "name": "approved",
          "type": "address"
        },
        {
          "indexed": true,
          "internalType": "uint256",
          "name": "tokenId",
          "type": "uint256"
        }
      ],
      "name": "Approval",
      "type": "event"
    },
    {
      "anonymous": false,
      "inputs": [
        {
          "indexed": true,
          "internalType": "address",
          "name": "owner",
          "type": "address"
        },
        {
          "indexed": true,
          "internalType": "address",
          "name": "operator",
          "type": "address"
        },
        {
          "indexed": false,
          "internalType": "bool",
          "name": "approved",
          "type": "bool"
        }
      ],
      "name": "ApprovalForAll",
      "type": "event"
    },
    {
      "anonymous": false,
      "inputs": [
        {
          "indexed": true,
          "internalType": "address",
          "name": "owner",
          "type": "address"
        },
        {
          "indexed": true,
          "internalType": "uint256",
          "name": "Pow",
          "type": "uint256"
        },
        {
          "indexed": true,
          "internalType": "uint256",
          "name": "limit",
          "type": "uint256"
        }
      ],
      "name": "NewUser",
      "type": "event"
    },
    {
      "anonymous": false,
      "inputs": [
        {
          "indexed": true,
          "internalType": "address",
          "name": "account",
          "type": "address"
        },
        {
          "indexed": true,
          "internalType": "uint256",
          "name": "amount",
          "type": "uint256"
        },
        {
          "indexed": true,
          "internalType": "address",
          "name": "server",
          "type": "address"
        }
      ],
      "name": "TokenPurchased",
      "type": "event"
    },
    {
      "anonymous": false,
      "inputs": [
        {
          "indexed": true,
          "internalType": "address",
          "name": "from",
          "type": "address"
        },
        {
          "indexed": true,
          "internalType": "address",
          "name": "to",
          "type": "address"
        },
        {
          "indexed": true,
          "internalType": "uint256",
          "name": "tokenId",
          "type": "uint256"
        }
      ],
      "name": "Transfer",
      "type": "event"
    },
    {
      "inputs": [
        {
          "internalType": "address",
          "name": "to",
          "type": "address"
        },
        {
          "internalType": "uint256",
          "name": "tokenId",
          "type": "uint256"
        }
      ],
      "name": "approve",
      "outputs": [
        {
          "internalType": "bool",
          "name": "",
          "type": "bool"
        }
      ],
      "stateMutability": "nonpayable",
      "type": "function"
    },
    {
      "inputs": [
        {
          "internalType": "address",
          "name": "owner",
          "type": "address"
        }
      ],
      "name": "balanceOf",
      "outputs": [
        {
          "internalType": "uint256",
          "name": "",
          "type": "uint256"
        }
      ],
      "stateMutability": "view",
      "type": "function",
      "constant": true
    },
    {
      "inputs": [
        {
          "internalType": "address",
          "name": "",
          "type": "address"
        }
      ],
      "name": "checkUser",
      "outputs": [
        {
          "internalType": "bool",
          "name": "",
          "type": "bool"
        }
      ],
      "stateMutability": "view",
      "type": "function",
      "constant": true
    },
    {
      "inputs": [
        {
          "internalType": "uint256",
          "name": "tokenId",
          "type": "uint256"
        }
      ],
      "name": "getApproved",
      "outputs": [
        {
          "internalType": "address",
          "name": "",
          "type": "address"
        }
      ],
      "stateMutability": "view",
      "type": "function",
      "constant": true
    },
    {
      "inputs": [
        {
          "internalType": "uint256",
          "name": "_id",
          "type": "uint256"
        }
      ],
      "name": "getNFT",
      "outputs": [
        {
          "internalType": "string",
          "name": "",
          "type": "string"
        }
      ],
      "stateMutability": "view",
      "type": "function",
      "constant": true
    },
    {
      "inputs": [],
      "name": "getTotalNFTAmount",
      "outputs": [
        {
          "internalType": "uint256",
          "name": "",
          "type": "uint256"
        }
      ],
      "stateMutability": "view",
      "type": "function",
      "constant": true
    },
    {
      "inputs": [],
      "name": "gold",
      "outputs": [
        {
          "internalType": "contract Token",
          "name": "",
          "type": "address"
        }
      ],
      "stateMutability": "view",
      "type": "function",
      "constant": true
    },
    {
      "inputs": [
        {
          "internalType": "address",
          "name": "owner",
          "type": "address"
        },
        {
          "internalType": "address",
          "name": "operator",
          "type": "address"
        }
      ],
      "name": "isApprovedForAll",
      "outputs": [
        {
          "internalType": "bool",
          "name": "",
          "type": "bool"
        }
      ],
      "stateMutability": "view",
      "type": "function",
      "constant": true
    },
    {
      "inputs": [],
      "name": "name",
      "outputs": [
        {
          "internalType": "string",
          "name": "",
          "type": "string"
        }
      ],
      "stateMutability": "view",
      "type": "function",
      "constant": true
    },
    {
      "inputs": [],
      "name": "owner",
      "outputs": [
        {
          "internalType": "address",
          "name": "",
          "type": "address"
        }
      ],
      "stateMutability": "view",
      "type": "function",
      "constant": true
    },
    {
      "inputs": [
        {
          "internalType": "uint256",
          "name": "tokenId",
          "type": "uint256"
        }
      ],
      "name": "ownerOf",
      "outputs": [
        {
          "internalType": "address",
          "name": "",
          "type": "address"
        }
      ],
      "stateMutability": "view",
      "type": "function",
      "constant": true
    },
    {
      "inputs": [
        {
          "internalType": "address",
          "name": "operator",
          "type": "address"
        },
        {
          "internalType": "bool",
          "name": "approved",
          "type": "bool"
        }
      ],
      "name": "setApprovalForAll",
      "outputs": [],
      "stateMutability": "nonpayable",
      "type": "function"
    },
    {
      "inputs": [
        {
          "internalType": "bytes4",
          "name": "interfaceId",
          "type": "bytes4"
        }
      ],
      "name": "supportsInterface",
      "outputs": [
        {
          "internalType": "bool",
          "name": "",
          "type": "bool"
        }
      ],
      "stateMutability": "view",
      "type": "function",
      "constant": true
    },
    {
      "inputs": [],
      "name": "symbol",
      "outputs": [
        {
          "internalType": "string",
          "name": "",
          "type": "string"
        }
      ],
      "stateMutability": "view",
      "type": "function",
      "constant": true
    },
    {
      "inputs": [
        {
          "internalType": "uint256",
          "name": "tokenId",
          "type": "uint256"
        }
      ],
      "name": "tokenURI",
      "outputs": [
        {
          "internalType": "string",
          "name": "",
          "type": "string"
        }
      ],
      "stateMutability": "view",
      "type": "function",
      "constant": true
    },
    {
      "inputs": [
        {
          "internalType": "address",
          "name": "from",
          "type": "address"
        },
        {
          "internalType": "address",
          "name": "to",
          "type": "address"
        },
        {
          "internalType": "uint256",
          "name": "tokenId",
          "type": "uint256"
        }
      ],
      "name": "transferFrom",
      "outputs": [
        {
          "internalType": "bool",
          "name": "",
          "type": "bool"
        }
      ],
      "stateMutability": "nonpayable",
      "type": "function"
    },
    {
      "inputs": [],
      "name": "buyTokens",
      "outputs": [],
      "stateMutability": "payable",
      "type": "function",
      "payable": true
    },
    {
      "inputs": [
        {
          "internalType": "address",
          "name": "to",
          "type": "address"
        },
        {
          "internalType": "uint256",
          "name": "amount",
          "type": "uint256"
        }
      ],
      "name": "goldMint",
      "outputs": [],
      "stateMutability": "nonpayable",
      "type": "function"
    },
    {
      "inputs": [
        {
          "internalType": "address",
          "name": "to",
          "type": "address"
        },
        {
          "internalType": "string",
          "name": "URI",
          "type": "string"
        }
      ],
      "name": "NFTminting",
      "outputs": [],
      "stateMutability": "nonpayable",
      "type": "function"
    },
    {
      "inputs": [
        {
          "internalType": "address",
          "name": "from",
          "type": "address"
        },
        {
          "internalType": "address",
          "name": "to",
          "type": "address"
        },
        {
          "internalType": "uint256",
          "name": "amount",
          "type": "uint256"
        }
      ],
      "name": "goldTransfer",
      "outputs": [],
      "stateMutability": "nonpayable",
      "type": "function"
    },
    {
      "inputs": [
        {
          "internalType": "address",
          "name": "account",
          "type": "address"
        },
        {
          "internalType": "uint256",
          "name": "amount",
          "type": "uint256"
        }
      ],
      "name": "goldBurn",
      "outputs": [],
      "stateMutability": "nonpayable",
      "type": "function"
    },
    {
      "inputs": [
        {
          "internalType": "address[]",
          "name": "account",
          "type": "address[]"
        },
        {
          "internalType": "uint256",
          "name": "amount",
          "type": "uint256"
        }
      ],
      "name": "goldmintAll",
      "outputs": [],
      "stateMutability": "nonpayable",
      "type": "function"
    },
    {
      "inputs": [
        {
          "internalType": "address",
          "name": "_address",
          "type": "address"
        }
      ],
      "name": "makeCharacter",
      "outputs": [
        {
          "internalType": "bool",
          "name": "",
          "type": "bool"
        }
      ],
      "stateMutability": "nonpayable",
      "type": "function"
    },
    {
      "inputs": [
        {
          "internalType": "address",
          "name": "_address",
          "type": "address"
        }
      ],
      "name": "IncreaseLimit",
      "outputs": [],
      "stateMutability": "nonpayable",
      "type": "function"
    },
    {
      "inputs": [
        {
          "internalType": "address",
          "name": "_address",
          "type": "address"
        },
        {
          "internalType": "uint256",
          "name": "_value",
          "type": "uint256"
        }
      ],
      "name": "IncreasePow",
      "outputs": [],
      "stateMutability": "nonpayable",
      "type": "function"
    },
    {
      "inputs": [
        {
          "internalType": "address",
          "name": "_address",
          "type": "address"
        }
      ],
      "name": "getPow",
      "outputs": [
        {
          "internalType": "uint32",
          "name": "",
          "type": "uint32"
        }
      ],
      "stateMutability": "view",
      "type": "function",
      "constant": true
    },
    {
      "inputs": [
        {
          "internalType": "address",
          "name": "_address",
          "type": "address"
        }
      ],
      "name": "getLimit",
      "outputs": [
        {
          "internalType": "uint32",
          "name": "",
          "type": "uint32"
        }
      ],
      "stateMutability": "view",
      "type": "function",
      "constant": true
    },
    {
      "inputs": [
        {
          "internalType": "address",
          "name": "_address",
          "type": "address"
        }
      ],
      "name": "getUser",
      "outputs": [
        {
          "components": [
            {
              "internalType": "uint32",
              "name": "Pow",
              "type": "uint32"
            },
            {
              "internalType": "uint32",
              "name": "limit",
              "type": "uint32"
            }
          ],
          "internalType": "struct Character.Characters",
          "name": "",
          "type": "tuple"
        }
      ],
      "stateMutability": "view",
      "type": "function",
      "constant": true
    },
    {
      "inputs": [],
      "name": "getStatus",
      "outputs": [
        {
          "internalType": "uint256",
          "name": "",
          "type": "uint256"
        }
      ],
      "stateMutability": "view",
      "type": "function",
      "constant": true
    },
    {
      "inputs": [],
      "name": "goldTotalSupply",
      "outputs": [
        {
          "internalType": "uint256",
          "name": "",
          "type": "uint256"
        }
      ],
      "stateMutability": "view",
      "type": "function",
      "constant": true
    },
    {
      "inputs": [
        {
          "internalType": "address",
          "name": "account",
          "type": "address"
        }
      ],
      "name": "goldBalanceOf",
      "outputs": [
        {
          "internalType": "uint256",
          "name": "",
          "type": "uint256"
        }
      ],
      "stateMutability": "view",
      "type": "function",
      "constant": true
    },
    {
      "inputs": [
        {
          "internalType": "address",
          "name": "account",
          "type": "address"
        }
      ],
      "name": "goldCheck",
      "outputs": [
        {
          "internalType": "bool",
          "name": "",
          "type": "bool"
        }
      ],
      "stateMutability": "view",
      "type": "function",
      "constant": true
    },
    {
      "inputs": [],
      "name": "show_character_owner",
      "outputs": [
        {
          "internalType": "address",
          "name": "",
          "type": "address"
        }
      ],
      "stateMutability": "view",
      "type": "function",
      "constant": true
    }
  ],
  "bytecode": "0x608060405260006002556000600855601e600d556032600e553480156200002557600080fd5b50604051620044373803806200443783398181016040528101906200004b91906200023b565b6040518060400160405280600481526020017f6974656d000000000000000000000000000000000000000000000000000000008152506040518060400160405280600381526020017f49544d00000000000000000000000000000000000000000000000000000000008152508160009080519060200190620000cf92919062000174565b508060019080519060200190620000e892919062000174565b50505033600960006101000a81548173ffffffffffffffffffffffffffffffffffffffff021916908373ffffffffffffffffffffffffffffffffffffffff16021790555080600c60006101000a81548173ffffffffffffffffffffffffffffffffffffffff021916908373ffffffffffffffffffffffffffffffffffffffff160217905550506200031a565b82805462000182906200029b565b90600052602060002090601f016020900481019282620001a65760008555620001f2565b82601f10620001c157805160ff1916838001178555620001f2565b82800160010185558215620001f2579182015b82811115620001f1578251825591602001919060010190620001d4565b5b50905062000201919062000205565b5090565b5b808211156200022057600081600090555060010162000206565b5090565b600081519050620002358162000300565b92915050565b6000602082840312156200024e57600080fd5b60006200025e8482850162000224565b91505092915050565b600062000274826200027b565b9050919050565b600073ffffffffffffffffffffffffffffffffffffffff82169050919050565b60006002820490506001821680620002b457607f821691505b60208210811415620002cb57620002ca620002d1565b5b50919050565b7f4e487b7100000000000000000000000000000000000000000000000000000000600052602260045260246000fd5b6200030b8162000267565b81146200031757600080fd5b50565b61410d806200032a6000396000f3fe6080604052600436106101ee5760003560e01c80636352211e1161010d578063a22cb465116100a0578063d0febe4c1161006f578063d0febe4c146107a7578063e0848a38146107b1578063e985e9c5146107da578063ee4ff36014610817578063fbec6f2114610842576101ee565b8063a22cb465146106ef578063bba554a314610718578063bbf4a66114610741578063c87b56dd1461076a576101ee565b80637f5e5dd9116100dc5780637f5e5dd914610631578063864ca3001461065c5780638da5cb5b1461069957806395d89b41146106c4576101ee565b80636352211e1461053d57806369b9966c1461057a5780636f77926b146105b757806370a08231146105f4576101ee565b806323b872dd1161018557806342616d211161015457806342616d21146104815780634e69d560146104ac578063576f7ea7146104d7578063602b6ece14610514576101ee565b806323b872dd146103a15780632d67242e146103de578063311a7f571461041b5780633b77934014610444576101ee565b80631ce28e72116101c15780631ce28e72146102d55780631e9d48cf146103125780632038cd141461034f57806322a4276f14610378576101ee565b806301ffc9a7146101f357806306fdde0314610230578063081812fc1461025b578063095ea7b314610298575b600080fd5b3480156101ff57600080fd5b5061021a6004803603810190610215919061306b565b61086d565b6040516102279190613929565b60405180910390f35b34801561023c57600080fd5b5061024561094f565b604051610252919061395f565b60405180910390f35b34801561026757600080fd5b50610282600480360381019061027d9190613094565b6109e1565b60405161028f919061387e565b60405180910390f35b3480156102a457600080fd5b506102bf60048036038101906102ba9190612fb2565b610a66565b6040516102cc9190613929565b60405180910390f35b3480156102e157600080fd5b506102fc60048036038101906102f79190612e6e565b610b77565b6040516103099190613be0565b60405180910390f35b34801561031e57600080fd5b5061033960048036038101906103349190612e6e565b610c38565b6040516103469190613929565b60405180910390f35b34801561035b57600080fd5b5061037660048036038101906103719190612fb2565b610c58565b005b34801561038457600080fd5b5061039f600480360381019061039a9190612f5e565b610d7b565b005b3480156103ad57600080fd5b506103c860048036038101906103c39190612ed3565b610e1a565b6040516103d59190613929565b60405180910390f35b3480156103ea57600080fd5b5061040560048036038101906104009190612e6e565b610e7b565b6040516104129190613929565b60405180910390f35b34801561042757600080fd5b50610442600480360381019061043d9190612ed3565b610f2f565b005b34801561045057600080fd5b5061046b60048036038101906104669190612e6e565b610fe6565b6040516104789190613929565b60405180910390f35b34801561048d57600080fd5b5061049661123c565b6040516104a39190613b9c565b60405180910390f35b3480156104b857600080fd5b506104c16112e3565b6040516104ce9190613b9c565b60405180910390f35b3480156104e357600080fd5b506104fe60048036038101906104f99190613094565b6112fe565b60405161050b919061395f565b60405180910390f35b34801561052057600080fd5b5061053b60048036038101906105369190612e6e565b6113a3565b005b34801561054957600080fd5b50610564600480360381019061055f9190613094565b61153f565b604051610571919061387e565b60405180910390f35b34801561058657600080fd5b506105a1600480360381019061059c9190612e6e565b6115f1565b6040516105ae9190613be0565b60405180910390f35b3480156105c357600080fd5b506105de60048036038101906105d99190612e6e565b6116b2565b6040516105eb9190613b81565b60405180910390f35b34801561060057600080fd5b5061061b60048036038101906106169190612e6e565b6117b6565b6040516106289190613b9c565b60405180910390f35b34801561063d57600080fd5b5061064661186e565b604051610653919061387e565b60405180910390f35b34801561066857600080fd5b50610683600480360381019061067e9190612e6e565b611898565b6040516106909190613b9c565b60405180910390f35b3480156106a557600080fd5b506106ae61194c565b6040516106bb919061387e565b60405180910390f35b3480156106d057600080fd5b506106d9611972565b6040516106e6919061395f565b60405180910390f35b3480156106fb57600080fd5b5061071660048036038101906107119190612f22565b611a04565b005b34801561072457600080fd5b5061073f600480360381019061073a9190612fb2565b611a13565b005b34801561074d57600080fd5b5061076860048036038101906107639190612fee565b611bae565b005b34801561077657600080fd5b50610791600480360381019061078c9190613094565b611cd1565b60405161079e919061395f565b60405180910390f35b6107af611d78565b005b3480156107bd57600080fd5b506107d860048036038101906107d39190612fb2565b611f7b565b005b3480156107e657600080fd5b5061080160048036038101906107fc9190612e97565b61209e565b60405161080e9190613929565b60405180910390f35b34801561082357600080fd5b5061082c612132565b6040516108399190613b9c565b60405180910390f35b34801561084e57600080fd5b5061085761213c565b6040516108649190613944565b60405180910390f35b60007f7aa5391d000000000000000000000000000000000000000000000000000000007bffffffffffffffffffffffffffffffffffffffffffffffffffffffff1916827bffffffffffffffffffffffffffffffffffffffffffffffffffffffff1916148061093857507f5b5e139f000000000000000000000000000000000000000000000000000000007bffffffffffffffffffffffffffffffffffffffffffffffffffffffff1916827bffffffffffffffffffffffffffffffffffffffffffffffffffffffff1916145b80610948575061094782612162565b5b9050919050565b60606000805461095e90613ec7565b80601f016020809104026020016040519081016040528092919081815260200182805461098a90613ec7565b80156109d75780601f106109ac576101008083540402835291602001916109d7565b820191906000526020600020905b8154815290600101906020018083116109ba57829003601f168201915b5050505050905090565b60006109ec826121cc565b610a2b576040517f08c379a0000000000000000000000000000000000000000000000000000000008152600401610a2290613ac1565b60405180910390fd5b6005600083815260200190815260200160002060009054906101000a900473ffffffffffffffffffffffffffffffffffffffff169050919050565b600080610a728361153f565b90508073ffffffffffffffffffffffffffffffffffffffff168473ffffffffffffffffffffffffffffffffffffffff161415610ae3576040517f08c379a0000000000000000000000000000000000000000000000000000000008152600401610ada90613b01565b60405180910390fd5b8073ffffffffffffffffffffffffffffffffffffffff163373ffffffffffffffffffffffffffffffffffffffff161480610b235750610b22813361209e565b5b610b62576040517f08c379a0000000000000000000000000000000000000000000000000000000008152600401610b5990613a21565b60405180910390fd5b610b6c8484612238565b600191505092915050565b60008160011515600a60008373ffffffffffffffffffffffffffffffffffffffff1673ffffffffffffffffffffffffffffffffffffffff16815260200190815260200160002060009054906101000a900460ff16151514610bd757600080fd5b6000600b60008573ffffffffffffffffffffffffffffffffffffffff1673ffffffffffffffffffffffffffffffffffffffff16815260200190815260200160002090508060000160049054906101000a900463ffffffff1692505050919050565b600a6020528060005260406000206000915054906101000a900460ff1681565b600960009054906101000a900473ffffffffffffffffffffffffffffffffffffffff1673ffffffffffffffffffffffffffffffffffffffff163373ffffffffffffffffffffffffffffffffffffffff1614610ce8576040517f08c379a0000000000000000000000000000000000000000000000000000000008152600401610cdf90613b21565b60405180910390fd5b600c60009054906101000a900473ffffffffffffffffffffffffffffffffffffffff1673ffffffffffffffffffffffffffffffffffffffff16639dc29fac83836040518363ffffffff1660e01b8152600401610d459291906138d0565b600060405180830381600087803b158015610d5f57600080fd5b505af1158015610d73573d6000803e3d6000fd5b505050505050565b600960009054906101000a900473ffffffffffffffffffffffffffffffffffffffff1673ffffffffffffffffffffffffffffffffffffffff163373ffffffffffffffffffffffffffffffffffffffff1614610e0b576040517f08c379a0000000000000000000000000000000000000000000000000000000008152600401610e0290613b21565b60405180910390fd5b610e1582826122f1565b505050565b6000610e268483612348565b610e65576040517f08c379a0000000000000000000000000000000000000000000000000000000008152600401610e5c90613b41565b60405180910390fd5b610e70848484612426565b600190509392505050565b6000600c60009054906101000a900473ffffffffffffffffffffffffffffffffffffffff1673ffffffffffffffffffffffffffffffffffffffff1663c23697a8836040518263ffffffff1660e01b8152600401610ed8919061387e565b60206040518083038186803b158015610ef057600080fd5b505afa158015610f04573d6000803e3d6000fd5b505050506040513d601f19601f82011682018060405250810190610f289190613042565b9050919050565b600c60009054906101000a900473ffffffffffffffffffffffffffffffffffffffff1673ffffffffffffffffffffffffffffffffffffffff1663beabacc88484846040518463ffffffff1660e01b8152600401610f8e93929190613899565b602060405180830381600087803b158015610fa857600080fd5b505af1158015610fbc573d6000803e3d6000fd5b505050506040513d601f19601f82011682018060405250810190610fe09190613042565b50505050565b6000600960009054906101000a900473ffffffffffffffffffffffffffffffffffffffff1673ffffffffffffffffffffffffffffffffffffffff163373ffffffffffffffffffffffffffffffffffffffff1614611078576040517f08c379a000000000000000000000000000000000000000000000000000000000815260040161106f90613b21565b60405180910390fd5b60001515600a60008473ffffffffffffffffffffffffffffffffffffffff1673ffffffffffffffffffffffffffffffffffffffff16815260200190815260200160002060009054906101000a900460ff161515146110d557600080fd5b6001600a60008473ffffffffffffffffffffffffffffffffffffffff1673ffffffffffffffffffffffffffffffffffffffff16815260200190815260200160002060006101000a81548160ff0219169083151502179055506000600b60008473ffffffffffffffffffffffffffffffffffffffff1673ffffffffffffffffffffffffffffffffffffffff168152602001908152602001600020905060018160000160006101000a81548163ffffffff021916908363ffffffff16021790555061012c8160000160046101000a81548163ffffffff021916908363ffffffff1602179055508060000160049054906101000a900463ffffffff1663ffffffff168160000160009054906101000a900463ffffffff1663ffffffff168473ffffffffffffffffffffffffffffffffffffffff167f35beac3098d189b6a4a53c370f630e51e7aeedceadeb14009537abfbc782e89160405160405180910390a46001915050919050565b6000600c60009054906101000a900473ffffffffffffffffffffffffffffffffffffffff1673ffffffffffffffffffffffffffffffffffffffff166318160ddd6040518163ffffffff1660e01b815260040160206040518083038186803b1580156112a657600080fd5b505afa1580156112ba573d6000803e3d6000fd5b505050506040513d601f19601f820116820180604052508101906112de91906130bd565b905090565b6000600a6112ef612677565b6112f99190613f70565b905090565b606060076000838152602001908152602001600020805461131e90613ec7565b80601f016020809104026020016040519081016040528092919081815260200182805461134a90613ec7565b80156113975780601f1061136c57610100808354040283529160200191611397565b820191906000526020600020905b81548152906001019060200180831161137a57829003601f168201915b50505050509050919050565b8060011515600a60008373ffffffffffffffffffffffffffffffffffffffff1673ffffffffffffffffffffffffffffffffffffffff16815260200190815260200160002060009054906101000a900460ff1615151461140157600080fd5b600960009054906101000a900473ffffffffffffffffffffffffffffffffffffffff1673ffffffffffffffffffffffffffffffffffffffff163373ffffffffffffffffffffffffffffffffffffffff1614611491576040517f08c379a000000000000000000000000000000000000000000000000000000000815260040161148890613b21565b60405180910390fd5b600e5461149d83611898565b10156114a857600080fd5b6114b482600e54610c58565b6000600b60008473ffffffffffffffffffffffffffffffffffffffff1673ffffffffffffffffffffffffffffffffffffffff168152602001908152602001600020905061012c8160000160048282829054906101000a900463ffffffff1661151c9190613d3e565b92506101000a81548163ffffffff021916908363ffffffff160217905550505050565b6000806003600084815260200190815260200160002060009054906101000a900473ffffffffffffffffffffffffffffffffffffffff169050600073ffffffffffffffffffffffffffffffffffffffff168173ffffffffffffffffffffffffffffffffffffffff1614156115e8576040517f08c379a00000000000000000000000000000000000000000000000000000000081526004016115df90613a61565b60405180910390fd5b80915050919050565b60008160011515600a60008373ffffffffffffffffffffffffffffffffffffffff1673ffffffffffffffffffffffffffffffffffffffff16815260200190815260200160002060009054906101000a900460ff1615151461165157600080fd5b6000600b60008573ffffffffffffffffffffffffffffffffffffffff1673ffffffffffffffffffffffffffffffffffffffff16815260200190815260200160002090508060000160009054906101000a900463ffffffff1692505050919050565b6116ba612c29565b8160011515600a60008373ffffffffffffffffffffffffffffffffffffffff1673ffffffffffffffffffffffffffffffffffffffff16815260200190815260200160002060009054906101000a900460ff1615151461171857600080fd5b600b60008473ffffffffffffffffffffffffffffffffffffffff1673ffffffffffffffffffffffffffffffffffffffff1681526020019081526020016000206040518060400160405290816000820160009054906101000a900463ffffffff1663ffffffff1663ffffffff1681526020016000820160049054906101000a900463ffffffff1663ffffffff1663ffffffff1681525050915050919050565b60008073ffffffffffffffffffffffffffffffffffffffff168273ffffffffffffffffffffffffffffffffffffffff161415611827576040517f08c379a000000000000000000000000000000000000000000000000000000000815260040161181e90613a41565b60405180910390fd5b600460008373ffffffffffffffffffffffffffffffffffffffff1673ffffffffffffffffffffffffffffffffffffffff168152602001908152602001600020549050919050565b6000600960009054906101000a900473ffffffffffffffffffffffffffffffffffffffff16905090565b6000600c60009054906101000a900473ffffffffffffffffffffffffffffffffffffffff1673ffffffffffffffffffffffffffffffffffffffff166370a08231836040518263ffffffff1660e01b81526004016118f5919061387e565b60206040518083038186803b15801561190d57600080fd5b505afa158015611921573d6000803e3d6000fd5b505050506040513d601f19601f8201168201806040525081019061194591906130bd565b9050919050565b600960009054906101000a900473ffffffffffffffffffffffffffffffffffffffff1681565b60606001805461198190613ec7565b80601f01602080910402602001604051908101604052809291908181526020018280546119ad90613ec7565b80156119fa5780601f106119cf576101008083540402835291602001916119fa565b820191906000526020600020905b8154815290600101906020018083116119dd57829003601f168201915b5050505050905090565b611a0f3383836126c2565b5050565b8160011515600a60008373ffffffffffffffffffffffffffffffffffffffff1673ffffffffffffffffffffffffffffffffffffffff16815260200190815260200160002060009054906101000a900460ff16151514611a7157600080fd5b600960009054906101000a900473ffffffffffffffffffffffffffffffffffffffff1673ffffffffffffffffffffffffffffffffffffffff163373ffffffffffffffffffffffffffffffffffffffff1614611b01576040517f08c379a0000000000000000000000000000000000000000000000000000000008152600401611af890613b21565b60405180910390fd5b600d54611b0d84611898565b1015611b1857600080fd5b611b2483600d54610c58565b6000600b60008573ffffffffffffffffffffffffffffffffffffffff1673ffffffffffffffffffffffffffffffffffffffff1681526020019081526020016000209050828160000160008282829054906101000a900463ffffffff16611b8a9190613d3e565b92506101000a81548163ffffffff021916908363ffffffff16021790555050505050565b600960009054906101000a900473ffffffffffffffffffffffffffffffffffffffff1673ffffffffffffffffffffffffffffffffffffffff163373ffffffffffffffffffffffffffffffffffffffff1614611c3e576040517f08c379a0000000000000000000000000000000000000000000000000000000008152600401611c3590613b21565b60405180910390fd5b600c60009054906101000a900473ffffffffffffffffffffffffffffffffffffffff1673ffffffffffffffffffffffffffffffffffffffff16638318c12483836040518363ffffffff1660e01b8152600401611c9b9291906138f9565b600060405180830381600087803b158015611cb557600080fd5b505af1158015611cc9573d6000803e3d6000fd5b505050505050565b6060611cdc826121cc565b611d1b576040517f08c379a0000000000000000000000000000000000000000000000000000000008152600401611d1290613ae1565b60405180910390fd5b6000611d2561282f565b90506000815111611d455760405180602001604052806000815250611d70565b80611d4f84612846565b604051602001611d6092919061385a565b6040516020818303038152906040525b915050919050565b600073ffffffffffffffffffffffffffffffffffffffff163373ffffffffffffffffffffffffffffffffffffffff161415611de8576040517f08c379a0000000000000000000000000000000000000000000000000000000008152600401611ddf90613b61565b60405180910390fd5b600064174876e80034611dfb9190613d78565b9050600c60009054906101000a900473ffffffffffffffffffffffffffffffffffffffff1673ffffffffffffffffffffffffffffffffffffffff1663138c8e1082336040518363ffffffff1660e01b8152600401611e5a929190613bb7565b600060405180830381600087803b158015611e7457600080fd5b505af1158015611e88573d6000803e3d6000fd5b505050506000600960009054906101000a900473ffffffffffffffffffffffffffffffffffffffff1690508073ffffffffffffffffffffffffffffffffffffffff166108fc349081150290604051600060405180830381858888f19350505050158015611ef9573d6000803e3d6000fd5b50600960009054906101000a900473ffffffffffffffffffffffffffffffffffffffff1673ffffffffffffffffffffffffffffffffffffffff16823373ffffffffffffffffffffffffffffffffffffffff167fd16ca01a270b004da993588e82e930de96672c56d0797fa5d3cb88a93e36f37b60405160405180910390a45050565b600960009054906101000a900473ffffffffffffffffffffffffffffffffffffffff1673ffffffffffffffffffffffffffffffffffffffff163373ffffffffffffffffffffffffffffffffffffffff161461200b576040517f08c379a000000000000000000000000000000000000000000000000000000000815260040161200290613b21565b60405180910390fd5b600c60009054906101000a900473ffffffffffffffffffffffffffffffffffffffff1673ffffffffffffffffffffffffffffffffffffffff1663138c8e1082846040518363ffffffff1660e01b8152600401612068929190613bb7565b600060405180830381600087803b15801561208257600080fd5b505af1158015612096573d6000803e3d6000fd5b505050505050565b6000600660008473ffffffffffffffffffffffffffffffffffffffff1673ffffffffffffffffffffffffffffffffffffffff16815260200190815260200160002060008373ffffffffffffffffffffffffffffffffffffffff1673ffffffffffffffffffffffffffffffffffffffff16815260200190815260200160002060009054906101000a900460ff16905092915050565b6000600854905090565b600c60009054906101000a900473ffffffffffffffffffffffffffffffffffffffff1681565b60007f01ffc9a7000000000000000000000000000000000000000000000000000000007bffffffffffffffffffffffffffffffffffffffffffffffffffffffff1916827bffffffffffffffffffffffffffffffffffffffffffffffffffffffff1916149050919050565b60008073ffffffffffffffffffffffffffffffffffffffff166003600084815260200190815260200160002060009054906101000a900473ffffffffffffffffffffffffffffffffffffffff1673ffffffffffffffffffffffffffffffffffffffff1614159050919050565b816005600083815260200190815260200160002060006101000a81548173ffffffffffffffffffffffffffffffffffffffff021916908373ffffffffffffffffffffffffffffffffffffffff160217905550808273ffffffffffffffffffffffffffffffffffffffff166122ab8361153f565b73ffffffffffffffffffffffffffffffffffffffff167f8c5be1e5ebec7d5bd14f71427d1e84f3dd0314c0f7b2291e5b200ac8c7c3b92560405160405180910390a45050565b60006002600081548092919061230690613ef9565b91905055506008600081548092919061231e90613ef9565b91905055506000600254905061233484826129f3565b61233e8184612bb5565b8091505092915050565b6000612353826121cc565b612392576040517f08c379a000000000000000000000000000000000000000000000000000000000815260040161238990613a01565b60405180910390fd5b600061239d8361153f565b90508073ffffffffffffffffffffffffffffffffffffffff168473ffffffffffffffffffffffffffffffffffffffff16148061240c57508373ffffffffffffffffffffffffffffffffffffffff166123f4846109e1565b73ffffffffffffffffffffffffffffffffffffffff16145b8061241d575061241c818561209e565b5b91505092915050565b8273ffffffffffffffffffffffffffffffffffffffff166124468261153f565b73ffffffffffffffffffffffffffffffffffffffff161461249c576040517f08c379a000000000000000000000000000000000000000000000000000000000815260040161249390613981565b60405180910390fd5b600073ffffffffffffffffffffffffffffffffffffffff168273ffffffffffffffffffffffffffffffffffffffff16141561250c576040517f08c379a0000000000000000000000000000000000000000000000000000000008152600401612503906139c1565b60405180910390fd5b612517600082612238565b6001600460008573ffffffffffffffffffffffffffffffffffffffff1673ffffffffffffffffffffffffffffffffffffffff16815260200190815260200160002060008282546125679190613da9565b925050819055506001600460008473ffffffffffffffffffffffffffffffffffffffff1673ffffffffffffffffffffffffffffffffffffffff16815260200190815260200160002060008282546125be9190613ce8565b92505081905550816003600083815260200190815260200160002060006101000a81548173ffffffffffffffffffffffffffffffffffffffff021916908373ffffffffffffffffffffffffffffffffffffffff160217905550808273ffffffffffffffffffffffffffffffffffffffff168473ffffffffffffffffffffffffffffffffffffffff167fddf252ad1be2c89b69c2b068fc378daa952ba7f163c4a11628f55a4df523b3ef60405160405180910390a4505050565b60008061268261123c565b90506064338260405160200161269992919061382e565b6040516020818303038152906040528051906020012060001c6126bc9190613f70565b91505090565b8173ffffffffffffffffffffffffffffffffffffffff168373ffffffffffffffffffffffffffffffffffffffff161415612731576040517f08c379a0000000000000000000000000000000000000000000000000000000008152600401612728906139e1565b60405180910390fd5b80600660008573ffffffffffffffffffffffffffffffffffffffff1673ffffffffffffffffffffffffffffffffffffffff16815260200190815260200160002060008473ffffffffffffffffffffffffffffffffffffffff1673ffffffffffffffffffffffffffffffffffffffff16815260200190815260200160002060006101000a81548160ff0219169083151502179055508173ffffffffffffffffffffffffffffffffffffffff168373ffffffffffffffffffffffffffffffffffffffff167f17307eab39ab6107e8899845ad3d59bd9653f200f220920489ca2b5937696c31836040516128229190613929565b60405180910390a3505050565b606060405180602001604052806000815250905090565b6060600082141561288e576040518060400160405280600181526020017f300000000000000000000000000000000000000000000000000000000000000081525090506129ee565b600082905060005b600082146128c05780806128a990613ef9565b915050600a826128b99190613d78565b9150612896565b60008167ffffffffffffffff811115612902577f4e487b7100000000000000000000000000000000000000000000000000000000600052604160045260246000fd5b6040519080825280601f01601f1916602001820160405280156129345781602001600182028036833780820191505090505b5090505b600085146129e75760018261294d9190613da9565b9150600a8561295c9190613f70565b60306129689190613ce8565b60f81b8183815181106129a4577f4e487b7100000000000000000000000000000000000000000000000000000000600052603260045260246000fd5b60200101907effffffffffffffffffffffffffffffffffffffffffffffffffffffffffffff1916908160001a905350600a856129e09190613d78565b9450612938565b8093505050505b919050565b600073ffffffffffffffffffffffffffffffffffffffff168273ffffffffffffffffffffffffffffffffffffffff161415612a63576040517f08c379a0000000000000000000000000000000000000000000000000000000008152600401612a5a90613aa1565b60405180910390fd5b612a6c816121cc565b15612aac576040517f08c379a0000000000000000000000000000000000000000000000000000000008152600401612aa3906139a1565b60405180910390fd5b6001600460008473ffffffffffffffffffffffffffffffffffffffff1673ffffffffffffffffffffffffffffffffffffffff1681526020019081526020016000206000828254612afc9190613ce8565b92505081905550816003600083815260200190815260200160002060006101000a81548173ffffffffffffffffffffffffffffffffffffffff021916908373ffffffffffffffffffffffffffffffffffffffff160217905550808273ffffffffffffffffffffffffffffffffffffffff16600073ffffffffffffffffffffffffffffffffffffffff167fddf252ad1be2c89b69c2b068fc378daa952ba7f163c4a11628f55a4df523b3ef60405160405180910390a45050565b612bbe826121cc565b612bfd576040517f08c379a0000000000000000000000000000000000000000000000000000000008152600401612bf490613a81565b60405180910390fd5b80600760008481526020019081526020016000209080519060200190612c24929190612c4f565b505050565b6040518060400160405280600063ffffffff168152602001600063ffffffff1681525090565b828054612c5b90613ec7565b90600052602060002090601f016020900481019282612c7d5760008555612cc4565b82601f10612c9657805160ff1916838001178555612cc4565b82800160010185558215612cc4579182015b82811115612cc3578251825591602001919060010190612ca8565b5b509050612cd19190612cd5565b5090565b5b80821115612cee576000816000905550600101612cd6565b5090565b6000612d05612d0084613c2c565b613bfb565b90508083825260208201905082856020860282011115612d2457600080fd5b60005b85811015612d545781612d3a8882612d9c565b845260208401935060208301925050600181019050612d27565b5050509392505050565b6000612d71612d6c84613c58565b613bfb565b905082815260208101848484011115612d8957600080fd5b612d94848285613e85565b509392505050565b600081359050612dab8161407b565b92915050565b600082601f830112612dc257600080fd5b8135612dd2848260208601612cf2565b91505092915050565b600081359050612dea81614092565b92915050565b600081519050612dff81614092565b92915050565b600081359050612e14816140a9565b92915050565b600082601f830112612e2b57600080fd5b8135612e3b848260208601612d5e565b91505092915050565b600081359050612e53816140c0565b92915050565b600081519050612e68816140c0565b92915050565b600060208284031215612e8057600080fd5b6000612e8e84828501612d9c565b91505092915050565b60008060408385031215612eaa57600080fd5b6000612eb885828601612d9c565b9250506020612ec985828601612d9c565b9150509250929050565b600080600060608486031215612ee857600080fd5b6000612ef686828701612d9c565b9350506020612f0786828701612d9c565b9250506040612f1886828701612e44565b9150509250925092565b60008060408385031215612f3557600080fd5b6000612f4385828601612d9c565b9250506020612f5485828601612ddb565b9150509250929050565b60008060408385031215612f7157600080fd5b6000612f7f85828601612d9c565b925050602083013567ffffffffffffffff811115612f9c57600080fd5b612fa885828601612e1a565b9150509250929050565b60008060408385031215612fc557600080fd5b6000612fd385828601612d9c565b9250506020612fe485828601612e44565b9150509250929050565b6000806040838503121561300157600080fd5b600083013567ffffffffffffffff81111561301b57600080fd5b61302785828601612db1565b925050602061303885828601612e44565b9150509250929050565b60006020828403121561305457600080fd5b600061306284828501612df0565b91505092915050565b60006020828403121561307d57600080fd5b600061308b84828501612e05565b91505092915050565b6000602082840312156130a657600080fd5b60006130b484828501612e44565b91505092915050565b6000602082840312156130cf57600080fd5b60006130dd84828501612e59565b91505092915050565b60006130f283836130fe565b60208301905092915050565b61310781613ddd565b82525050565b61311681613ddd565b82525050565b61312d61312882613ddd565b613f42565b82525050565b600061313e82613c98565b6131488185613cbb565b935061315383613c88565b8060005b8381101561318457815161316b88826130e6565b975061317683613cae565b925050600181019050613157565b5085935050505092915050565b61319a81613def565b82525050565b6131a981613e61565b82525050565b60006131ba82613ca3565b6131c48185613ccc565b93506131d4818560208601613e94565b6131dd8161405d565b840191505092915050565b60006131f382613ca3565b6131fd8185613cdd565b935061320d818560208601613e94565b80840191505092915050565b6000613226602583613ccc565b91507f4552433732313a207472616e736665722066726f6d20696e636f72726563742060008301527f6f776e65720000000000000000000000000000000000000000000000000000006020830152604082019050919050565b600061328c601c83613ccc565b91507f4552433732313a20746f6b656e20616c7265616479206d696e746564000000006000830152602082019050919050565b60006132cc602483613ccc565b91507f4552433732313a207472616e7366657220746f20746865207a65726f2061646460008301527f72657373000000000000000000000000000000000000000000000000000000006020830152604082019050919050565b6000613332601983613ccc565b91507f4552433732313a20617070726f766520746f2063616c6c6572000000000000006000830152602082019050919050565b6000613372602c83613ccc565b91507f4552433732313a206f70657261746f7220717565727920666f72206e6f6e657860008301527f697374656e7420746f6b656e00000000000000000000000000000000000000006020830152604082019050919050565b60006133d8603883613ccc565b91507f4552433732313a20617070726f76652063616c6c6572206973206e6f74206f7760008301527f6e6572206e6f7220617070726f76656420666f7220616c6c00000000000000006020830152604082019050919050565b600061343e602a83613ccc565b91507f4552433732313a2062616c616e636520717565727920666f7220746865207a6560008301527f726f2061646472657373000000000000000000000000000000000000000000006020830152604082019050919050565b60006134a4602983613ccc565b91507f4552433732313a206f776e657220717565727920666f72206e6f6e657869737460008301527f656e7420746f6b656e00000000000000000000000000000000000000000000006020830152604082019050919050565b600061350a602e83613ccc565b91507f45524337323155524953746f726167653a2055524920736574206f66206e6f6e60008301527f6578697374656e7420746f6b656e0000000000000000000000000000000000006020830152604082019050919050565b6000613570602083613ccc565b91507f4552433732313a206d696e7420746f20746865207a65726f20616464726573736000830152602082019050919050565b60006135b0602c83613ccc565b91507f4552433732313a20617070726f76656420717565727920666f72206e6f6e657860008301527f697374656e7420746f6b656e00000000000000000000000000000000000000006020830152604082019050919050565b6000613616602f83613ccc565b91507f4552433732314d657461646174613a2055524920717565727920666f72206e6f60008301527f6e6578697374656e7420746f6b656e00000000000000000000000000000000006020830152604082019050919050565b600061367c602183613ccc565b91507f4552433732313a20617070726f76616c20746f2063757272656e74206f776e6560008301527f72000000000000000000000000000000000000000000000000000000000000006020830152604082019050919050565b60006136e2600b83613ccc565b91507f4e6f74204f776e657221210000000000000000000000000000000000000000006000830152602082019050919050565b6000613722603183613ccc565b91507f4552433732313a207472616e736665722063616c6c6572206973206e6f74206f60008301527f776e6572206e6f7220617070726f7665640000000000000000000000000000006020830152604082019050919050565b6000613788601283613ccc565b91507f4e6f2045786973746564206164647265737300000000000000000000000000006000830152602082019050919050565b6040820160008201516137d16000850182613810565b5060208201516137e46020850182613810565b50505050565b6137f381613e47565b82525050565b61380a61380582613e47565b613f66565b82525050565b61381981613e51565b82525050565b61382881613e51565b82525050565b600061383a828561311c565b60148201915061384a82846137f9565b6020820191508190509392505050565b600061386682856131e8565b915061387282846131e8565b91508190509392505050565b6000602082019050613893600083018461310d565b92915050565b60006060820190506138ae600083018661310d565b6138bb602083018561310d565b6138c860408301846137ea565b949350505050565b60006040820190506138e5600083018561310d565b6138f260208301846137ea565b9392505050565b600060408201905081810360008301526139138185613133565b905061392260208301846137ea565b9392505050565b600060208201905061393e6000830184613191565b92915050565b600060208201905061395960008301846131a0565b92915050565b6000602082019050818103600083015261397981846131af565b905092915050565b6000602082019050818103600083015261399a81613219565b9050919050565b600060208201905081810360008301526139ba8161327f565b9050919050565b600060208201905081810360008301526139da816132bf565b9050919050565b600060208201905081810360008301526139fa81613325565b9050919050565b60006020820190508181036000830152613a1a81613365565b9050919050565b60006020820190508181036000830152613a3a816133cb565b9050919050565b60006020820190508181036000830152613a5a81613431565b9050919050565b60006020820190508181036000830152613a7a81613497565b9050919050565b60006020820190508181036000830152613a9a816134fd565b9050919050565b60006020820190508181036000830152613aba81613563565b9050919050565b60006020820190508181036000830152613ada816135a3565b9050919050565b60006020820190508181036000830152613afa81613609565b9050919050565b60006020820190508181036000830152613b1a8161366f565b9050919050565b60006020820190508181036000830152613b3a816136d5565b9050919050565b60006020820190508181036000830152613b5a81613715565b9050919050565b60006020820190508181036000830152613b7a8161377b565b9050919050565b6000604082019050613b9660008301846137bb565b92915050565b6000602082019050613bb160008301846137ea565b92915050565b6000604082019050613bcc60008301856137ea565b613bd9602083018461310d565b9392505050565b6000602082019050613bf5600083018461381f565b92915050565b6000604051905081810181811067ffffffffffffffff82111715613c2257613c2161402e565b5b8060405250919050565b600067ffffffffffffffff821115613c4757613c4661402e565b5b602082029050602081019050919050565b600067ffffffffffffffff821115613c7357613c7261402e565b5b601f19601f8301169050602081019050919050565b6000819050602082019050919050565b600081519050919050565b600081519050919050565b6000602082019050919050565b600082825260208201905092915050565b600082825260208201905092915050565b600081905092915050565b6000613cf382613e47565b9150613cfe83613e47565b9250827fffffffffffffffffffffffffffffffffffffffffffffffffffffffffffffffff03821115613d3357613d32613fa1565b5b828201905092915050565b6000613d4982613e51565b9150613d5483613e51565b92508263ffffffff03821115613d6d57613d6c613fa1565b5b828201905092915050565b6000613d8382613e47565b9150613d8e83613e47565b925082613d9e57613d9d613fd0565b5b828204905092915050565b6000613db482613e47565b9150613dbf83613e47565b925082821015613dd257613dd1613fa1565b5b828203905092915050565b6000613de882613e27565b9050919050565b60008115159050919050565b60007fffffffff0000000000000000000000000000000000000000000000000000000082169050919050565b600073ffffffffffffffffffffffffffffffffffffffff82169050919050565b6000819050919050565b600063ffffffff82169050919050565b6000613e6c82613e73565b9050919050565b6000613e7e82613e27565b9050919050565b82818337600083830152505050565b60005b83811015613eb2578082015181840152602081019050613e97565b83811115613ec1576000848401525b50505050565b60006002820490506001821680613edf57607f821691505b60208210811415613ef357613ef2613fff565b5b50919050565b6000613f0482613e47565b91507fffffffffffffffffffffffffffffffffffffffffffffffffffffffffffffffff821415613f3757613f36613fa1565b5b600182019050919050565b6000613f4d82613f54565b9050919050565b6000613f5f8261406e565b9050919050565b6000819050919050565b6000613f7b82613e47565b9150613f8683613e47565b925082613f9657613f95613fd0565b5b828206905092915050565b7f4e487b7100000000000000000000000000000000000000000000000000000000600052601160045260246000fd5b7f4e487b7100000000000000000000000000000000000000000000000000000000600052601260045260246000fd5b7f4e487b7100000000000000000000000000000000000000000000000000000000600052602260045260246000fd5b7f4e487b7100000000000000000000000000000000000000000000000000000000600052604160045260246000fd5b6000601f19601f8301169050919050565b60008160601b9050919050565b61408481613ddd565b811461408f57600080fd5b50565b61409b81613def565b81146140a657600080fd5b50565b6140b281613dfb565b81146140bd57600080fd5b50565b6140c981613e47565b81146140d457600080fd5b5056fea264697066735822122040ee4e73e02f278945430da7d3411285a0f5ace43af1daa1a031b796b7e5ae0564736f6c63430008000033",
  "immutableReferences": {},
  "source": "// SPDX-License-Identifier: GPL-3.0\npragma solidity 0.8.0;\nimport \"./libraries/Token.sol\";\nimport \"./libraries/NFT.sol\";\n\ninterface char {\n    event NewUser(\n        address indexed owner,\n        uint256 indexed Pow,\n        uint256 indexed limit\n    );\n    event TokenPurchased(\n        address indexed account,\n        uint256 indexed amount,\n        address indexed server\n    );\n}\n\ncontract onlyOwner {\n    address public owner;\n    mapping(address => bool) public checkUser;\n\n    constructor() {\n        owner = msg.sender;\n    }\n\n    modifier onlyowner() {\n        require(msg.sender == owner, \"Not Owner!!\");\n        _;\n    }\n    modifier isOwner(address _address) {\n        require(checkUser[_address] == true);\n        _;\n    }\n}\n\ncontract Character is NFT(\"item\", \"ITM\"), char, onlyOwner {\n    mapping(address => Characters) private _Character;\n    Token public gold;\n    uint256 PowFee = 30;\n    uint256 limitFee = 50;\n\n    struct Characters {\n        uint32 Pow;\n        uint32 limit;\n    }\n\n    constructor(address token) {\n        gold = Token(token);\n    }\n\n    function buyTokens() public payable {\n        require(msg.sender != address(0x0), \"No Existed address\");\n\n        uint256 tokenAmount = msg.value / 100000000000;\n\n        gold.mintGold(tokenAmount, msg.sender);\n\n        address payable p_owner = payable(owner);\n        p_owner.transfer(msg.value);\n\n        emit TokenPurchased(msg.sender, tokenAmount, owner);\n    }\n\n    // 0x6F8E9daca7Db2C63Ec2A8529Cb8B1bdFF683A36e\n    // 0xaea07e179dfc59dd118005a4a56768a51ad8f48b\n    function goldMint(address to, uint256 amount) public onlyowner {\n        gold.mintGold(amount, to);\n    }\n\n    function NFTminting(address to, string memory URI) public onlyowner {\n        NFT.mintNFT(to, URI);\n    }\n\n    function goldTransfer(\n        address from,\n        address to,\n        uint256 amount\n    ) public {\n        gold.transfer(from, to, amount);\n    }\n\n    function goldBurn(address account, uint256 amount) public onlyowner {\n        gold.burn(account, amount);\n    }\n\n    function goldmintAll(address[] memory account, uint256 amount)\n        public\n        onlyowner\n    {\n        gold.mintGoldAll(account, amount);\n    }\n\n    function makeCharacter(address _address) public onlyowner returns (bool) {\n        require(checkUser[_address] == false);\n        checkUser[_address] = true;\n        Characters storage character = _Character[_address];\n        character.Pow = 1;\n        character.limit = 300;\n\n        emit NewUser(_address, character.Pow, character.limit);\n        return true;\n    }\n\n    function IncreaseLimit(address _address)\n        public\n        isOwner(_address)\n        onlyowner\n    {\n        require(goldBalanceOf(_address) >= limitFee);\n        goldBurn(_address, limitFee);\n\n        Characters storage character = _Character[_address];\n        character.limit += 300;\n    }\n\n    function IncreasePow(address _address, uint256 _value)\n        public\n        isOwner(_address)\n        onlyowner\n    {\n        require(goldBalanceOf(_address) >= PowFee);\n        goldBurn(_address, PowFee);\n\n        Characters storage character = _Character[_address];\n        character.Pow += uint32(_value);\n    }\n\n    function getPow(address _address)\n        public\n        view\n        isOwner(_address)\n        returns (uint32)\n    {\n        Characters storage character = _Character[_address];\n        return character.Pow;\n    }\n\n    function getLimit(address _address)\n        public\n        view\n        isOwner(_address)\n        returns (uint32)\n    {\n        Characters storage character = _Character[_address];\n        return character.limit;\n    }\n\n    function getUser(address _address)\n        public\n        view\n        isOwner(_address)\n        returns (Characters memory)\n    {\n        return _Character[_address];\n    }\n\n    function getRandomNumber() internal view returns (uint256) {\n        uint256 total = goldTotalSupply();\n        return uint256(keccak256(abi.encodePacked(msg.sender, total))) % 100;\n    }\n\n    function getStatus() public view returns (uint256) {\n        return getRandomNumber() % 10;\n    }\n\n    function goldTotalSupply() public view returns (uint256) {\n        return gold.totalSupply();\n    }\n\n    function goldBalanceOf(address account) public view returns (uint256) {\n        return gold.balanceOf(account);\n    }\n\n    function goldCheck(address account) public view returns (bool) {\n        return gold.check(account);\n    }\n\n    function show_character_owner() public view returns (address) {\n        return owner;\n    }\n}\n",
  "sourcePath": "/Users/yuhojin/Desktop/BEB_01_final2-contract/truffle/contracts/Characeter.sol",
  "compiler": {
    "name": "solc",
    "version": "0.8.0+commit.c7dfd78e.Emscripten.clang"
  },
  "schemaVersion": "3.4.4",
  "updatedAt": "2022-01-26T01:03:45.030Z",
  "networkType": "ethereum",
  "devdoc": {
    "kind": "dev",
    "methods": {},
    "version": 1
  },
  "userdoc": {
    "kind": "user",
    "methods": {},
    "version": 1
  }
}