{
  "contractName": "Character",
  "abi": [
    {
      "inputs": [
        {
          "internalType": "address",
          "name": "token",
          "type": "address"
        }
      ],
      "stateMutability": "nonpayable",
      "type": "constructor"
    },
    {
      "anonymous": false,
      "inputs": [
        {
          "indexed": true,
          "internalType": "address",
          "name": "owner",
          "type": "address"
        },
        {
          "indexed": true,
          "internalType": "address",
          "name": "approved",
          "type": "address"
        },
        {
          "indexed": true,
          "internalType": "uint256",
          "name": "tokenId",
          "type": "uint256"
        }
      ],
      "name": "Approval",
      "type": "event"
    },
    {
      "anonymous": false,
      "inputs": [
        {
          "indexed": true,
          "internalType": "address",
          "name": "owner",
          "type": "address"
        },
        {
          "indexed": true,
          "internalType": "address",
          "name": "operator",
          "type": "address"
        },
        {
          "indexed": false,
          "internalType": "bool",
          "name": "approved",
          "type": "bool"
        }
      ],
      "name": "ApprovalForAll",
      "type": "event"
    },
    {
      "anonymous": false,
      "inputs": [
        {
          "indexed": true,
          "internalType": "address",
          "name": "owner",
          "type": "address"
        },
        {
          "indexed": true,
          "internalType": "uint256",
          "name": "Pow",
          "type": "uint256"
        },
        {
          "indexed": true,
          "internalType": "uint256",
          "name": "limit",
          "type": "uint256"
        }
      ],
      "name": "NewUser",
      "type": "event"
    },
    {
      "anonymous": false,
      "inputs": [
        {
          "indexed": true,
          "internalType": "address",
          "name": "account",
          "type": "address"
        },
        {
          "indexed": true,
          "internalType": "uint256",
          "name": "amount",
          "type": "uint256"
        },
        {
          "indexed": true,
          "internalType": "address",
          "name": "server",
          "type": "address"
        }
      ],
      "name": "TokenPurchased",
      "type": "event"
    },
    {
      "anonymous": false,
      "inputs": [
        {
          "indexed": true,
          "internalType": "address",
          "name": "account",
          "type": "address"
        },
        {
          "indexed": true,
          "internalType": "uint256",
          "name": "amount",
          "type": "uint256"
        },
        {
          "indexed": true,
          "internalType": "address",
          "name": "server",
          "type": "address"
        }
      ],
      "name": "Token_Sell",
      "type": "event"
    },
    {
      "anonymous": false,
      "inputs": [
        {
          "indexed": true,
          "internalType": "address[]",
          "name": "account",
          "type": "address[]"
        },
        {
          "indexed": true,
          "internalType": "uint256",
          "name": "value",
          "type": "uint256"
        }
      ],
      "name": "Token_Transfer_All",
      "type": "event"
    },
    {
      "anonymous": false,
      "inputs": [
        {
          "indexed": true,
          "internalType": "address",
          "name": "from",
          "type": "address"
        },
        {
          "indexed": true,
          "internalType": "address",
          "name": "to",
          "type": "address"
        },
        {
          "indexed": true,
          "internalType": "uint256",
          "name": "tokenId",
          "type": "uint256"
        }
      ],
      "name": "Transfer",
      "type": "event"
    },
    {
      "inputs": [
        {
          "internalType": "address",
          "name": "to",
          "type": "address"
        },
        {
          "internalType": "uint256",
          "name": "tokenId",
          "type": "uint256"
        }
      ],
      "name": "approve",
      "outputs": [
        {
          "internalType": "bool",
          "name": "",
          "type": "bool"
        }
      ],
      "stateMutability": "nonpayable",
      "type": "function"
    },
    {
      "inputs": [
        {
          "internalType": "address",
          "name": "owner",
          "type": "address"
        }
      ],
      "name": "balanceOf",
      "outputs": [
        {
          "internalType": "uint256",
          "name": "",
          "type": "uint256"
        }
      ],
      "stateMutability": "view",
      "type": "function",
      "constant": true
    },
    {
      "inputs": [
        {
          "internalType": "address",
          "name": "",
          "type": "address"
        }
      ],
      "name": "checkUser",
      "outputs": [
        {
          "internalType": "bool",
          "name": "",
          "type": "bool"
        }
      ],
      "stateMutability": "view",
      "type": "function",
      "constant": true
    },
    {
      "inputs": [
        {
          "internalType": "uint256",
          "name": "tokenId",
          "type": "uint256"
        }
      ],
      "name": "getApproved",
      "outputs": [
        {
          "internalType": "address",
          "name": "",
          "type": "address"
        }
      ],
      "stateMutability": "view",
      "type": "function",
      "constant": true
    },
    {
      "inputs": [
        {
          "internalType": "uint256",
          "name": "_id",
          "type": "uint256"
        }
      ],
      "name": "getNFT",
      "outputs": [
        {
          "internalType": "string",
          "name": "",
          "type": "string"
        }
      ],
      "stateMutability": "view",
      "type": "function",
      "constant": true
    },
    {
      "inputs": [],
      "name": "getTotalNFTAmount",
      "outputs": [
        {
          "internalType": "uint256",
          "name": "",
          "type": "uint256"
        }
      ],
      "stateMutability": "view",
      "type": "function",
      "constant": true
    },
    {
      "inputs": [],
      "name": "gold",
      "outputs": [
        {
          "internalType": "contract Token",
          "name": "",
          "type": "address"
        }
      ],
      "stateMutability": "view",
      "type": "function",
      "constant": true
    },
    {
      "inputs": [
        {
          "internalType": "address",
          "name": "owner",
          "type": "address"
        },
        {
          "internalType": "address",
          "name": "operator",
          "type": "address"
        }
      ],
      "name": "isApprovedForAll",
      "outputs": [
        {
          "internalType": "bool",
          "name": "",
          "type": "bool"
        }
      ],
      "stateMutability": "view",
      "type": "function",
      "constant": true
    },
    {
      "inputs": [],
      "name": "name",
      "outputs": [
        {
          "internalType": "string",
          "name": "",
          "type": "string"
        }
      ],
      "stateMutability": "view",
      "type": "function",
      "constant": true
    },
    {
      "inputs": [],
      "name": "owner",
      "outputs": [
        {
          "internalType": "address",
          "name": "",
          "type": "address"
        }
      ],
      "stateMutability": "view",
      "type": "function",
      "constant": true
    },
    {
      "inputs": [
        {
          "internalType": "uint256",
          "name": "tokenId",
          "type": "uint256"
        }
      ],
      "name": "ownerOf",
      "outputs": [
        {
          "internalType": "address",
          "name": "",
          "type": "address"
        }
      ],
      "stateMutability": "view",
      "type": "function",
      "constant": true
    },
    {
      "inputs": [
        {
          "internalType": "address",
          "name": "operator",
          "type": "address"
        },
        {
          "internalType": "bool",
          "name": "approved",
          "type": "bool"
        }
      ],
      "name": "setApprovalForAll",
      "outputs": [],
      "stateMutability": "nonpayable",
      "type": "function"
    },
    {
      "inputs": [],
      "name": "showOwner",
      "outputs": [
        {
          "internalType": "address",
          "name": "",
          "type": "address"
        }
      ],
      "stateMutability": "view",
      "type": "function",
      "constant": true
    },
    {
      "inputs": [
        {
          "internalType": "bytes4",
          "name": "interfaceId",
          "type": "bytes4"
        }
      ],
      "name": "supportsInterface",
      "outputs": [
        {
          "internalType": "bool",
          "name": "",
          "type": "bool"
        }
      ],
      "stateMutability": "view",
      "type": "function",
      "constant": true
    },
    {
      "inputs": [],
      "name": "symbol",
      "outputs": [
        {
          "internalType": "string",
          "name": "",
          "type": "string"
        }
      ],
      "stateMutability": "view",
      "type": "function",
      "constant": true
    },
    {
      "inputs": [
        {
          "internalType": "uint256",
          "name": "tokenId",
          "type": "uint256"
        }
      ],
      "name": "tokenURI",
      "outputs": [
        {
          "internalType": "string",
          "name": "",
          "type": "string"
        }
      ],
      "stateMutability": "view",
      "type": "function",
      "constant": true
    },
    {
      "inputs": [
        {
          "internalType": "address",
          "name": "from",
          "type": "address"
        },
        {
          "internalType": "address",
          "name": "to",
          "type": "address"
        },
        {
          "internalType": "uint256",
          "name": "tokenId",
          "type": "uint256"
        }
      ],
      "name": "transferFrom",
      "outputs": [
        {
          "internalType": "bool",
          "name": "",
          "type": "bool"
        }
      ],
      "stateMutability": "nonpayable",
      "type": "function"
    },
    {
      "inputs": [],
      "name": "buyTokens",
      "outputs": [],
      "stateMutability": "payable",
      "type": "function",
      "payable": true
    },
    {
      "inputs": [
        {
          "internalType": "uint256",
          "name": "value",
          "type": "uint256"
        },
        {
          "internalType": "address",
          "name": "seller",
          "type": "address"
        }
      ],
      "name": "sellTokens",
      "outputs": [],
      "stateMutability": "payable",
      "type": "function",
      "payable": true
    },
    {
      "inputs": [
        {
          "internalType": "address",
          "name": "to",
          "type": "address"
        },
        {
          "internalType": "string",
          "name": "URI",
          "type": "string"
        }
      ],
      "name": "NFTminting",
      "outputs": [],
      "stateMutability": "nonpayable",
      "type": "function"
    },
    {
      "inputs": [
        {
          "internalType": "address",
          "name": "to",
          "type": "address"
        },
        {
          "internalType": "uint256",
          "name": "amount",
          "type": "uint256"
        }
      ],
      "name": "Gold_transfer",
      "outputs": [],
      "stateMutability": "nonpayable",
      "type": "function"
    },
    {
      "inputs": [
        {
          "internalType": "address",
          "name": "recipient",
          "type": "address"
        },
        {
          "internalType": "address",
          "name": "sender",
          "type": "address"
        },
        {
          "internalType": "uint256",
          "name": "value",
          "type": "uint256"
        }
      ],
      "name": "Gold_transferfrom",
      "outputs": [],
      "stateMutability": "nonpayable",
      "type": "function"
    },
    {
      "inputs": [
        {
          "internalType": "address[]",
          "name": "account",
          "type": "address[]"
        },
        {
          "internalType": "uint256",
          "name": "amount",
          "type": "uint256"
        }
      ],
      "name": "goldmintAll",
      "outputs": [],
      "stateMutability": "nonpayable",
      "type": "function"
    },
    {
      "inputs": [
        {
          "internalType": "address",
          "name": "_address",
          "type": "address"
        }
      ],
      "name": "makeCharacter",
      "outputs": [
        {
          "internalType": "bool",
          "name": "",
          "type": "bool"
        }
      ],
      "stateMutability": "nonpayable",
      "type": "function"
    },
    {
      "inputs": [
        {
          "internalType": "address",
          "name": "_address",
          "type": "address"
        }
      ],
      "name": "IncreaseLimit",
      "outputs": [],
      "stateMutability": "nonpayable",
      "type": "function"
    },
    {
      "inputs": [
        {
          "internalType": "address",
          "name": "_address",
          "type": "address"
        },
        {
          "internalType": "uint256",
          "name": "_value",
          "type": "uint256"
        }
      ],
      "name": "IncreasePow",
      "outputs": [],
      "stateMutability": "nonpayable",
      "type": "function"
    },
    {
      "inputs": [
        {
          "internalType": "address",
          "name": "_address",
          "type": "address"
        }
      ],
      "name": "getPow",
      "outputs": [
        {
          "internalType": "uint32",
          "name": "",
          "type": "uint32"
        }
      ],
      "stateMutability": "view",
      "type": "function",
      "constant": true
    },
    {
      "inputs": [
        {
          "internalType": "address",
          "name": "_address",
          "type": "address"
        }
      ],
      "name": "getLimit",
      "outputs": [
        {
          "internalType": "uint32",
          "name": "",
          "type": "uint32"
        }
      ],
      "stateMutability": "view",
      "type": "function",
      "constant": true
    },
    {
      "inputs": [
        {
          "internalType": "address",
          "name": "_address",
          "type": "address"
        }
      ],
      "name": "getUser",
      "outputs": [
        {
          "components": [
            {
              "internalType": "uint32",
              "name": "Pow",
              "type": "uint32"
            },
            {
              "internalType": "uint32",
              "name": "limit",
              "type": "uint32"
            }
          ],
          "internalType": "struct Character.Characters",
          "name": "",
          "type": "tuple"
        }
      ],
      "stateMutability": "view",
      "type": "function",
      "constant": true
    },
    {
      "inputs": [],
      "name": "getStatus",
      "outputs": [
        {
          "internalType": "uint256",
          "name": "",
          "type": "uint256"
        }
      ],
      "stateMutability": "view",
      "type": "function",
      "constant": true
    },
    {
      "inputs": [],
      "name": "goldTotalSupply",
      "outputs": [
        {
          "internalType": "uint256",
          "name": "",
          "type": "uint256"
        }
      ],
      "stateMutability": "view",
      "type": "function",
      "constant": true
    },
    {
      "inputs": [
        {
          "internalType": "address",
          "name": "account",
          "type": "address"
        }
      ],
      "name": "goldBalanceOf",
      "outputs": [
        {
          "internalType": "uint256",
          "name": "",
          "type": "uint256"
        }
      ],
      "stateMutability": "view",
      "type": "function",
      "constant": true
    }
  ],
  "bytecode": "0x608060405260006002556000600855601e600d556032600e553480156200002557600080fd5b50604051620044903803806200449083398181016040528101906200004b91906200023b565b6040518060400160405280600481526020017f6974656d000000000000000000000000000000000000000000000000000000008152506040518060400160405280600381526020017f49544d00000000000000000000000000000000000000000000000000000000008152508160009080519060200190620000cf92919062000174565b508060019080519060200190620000e892919062000174565b50505033600960006101000a81548173ffffffffffffffffffffffffffffffffffffffff021916908373ffffffffffffffffffffffffffffffffffffffff16021790555080600c60006101000a81548173ffffffffffffffffffffffffffffffffffffffff021916908373ffffffffffffffffffffffffffffffffffffffff160217905550506200031a565b82805462000182906200029b565b90600052602060002090601f016020900481019282620001a65760008555620001f2565b82601f10620001c157805160ff1916838001178555620001f2565b82800160010185558215620001f2579182015b82811115620001f1578251825591602001919060010190620001d4565b5b50905062000201919062000205565b5090565b5b808211156200022057600081600090555060010162000206565b5090565b600081519050620002358162000300565b92915050565b6000602082840312156200024e57600080fd5b60006200025e8482850162000224565b91505092915050565b600062000274826200027b565b9050919050565b600073ffffffffffffffffffffffffffffffffffffffff82169050919050565b60006002820490506001821680620002b457607f821691505b60208210811415620002cb57620002ca620002d1565b5b50919050565b7f4e487b7100000000000000000000000000000000000000000000000000000000600052602260045260246000fd5b6200030b8162000267565b81146200031757600080fd5b50565b614166806200032a6000396000f3fe6080604052600436106101e35760003560e01c806369b9966c11610102578063bbf4a66111610095578063e985e9c511610064578063e985e9c51461075c578063ee4ff36014610799578063f01070e8146107c4578063fbec6f21146107ed576101e3565b8063bbf4a661146106c1578063c87b56dd146106ea578063d0febe4c14610727578063ded9468814610731576101e3565b80638da5cb5b116100d15780638da5cb5b1461061957806395d89b4114610644578063a22cb4651461066f578063bba554a314610698576101e3565b806369b9966c146105255780636f77926b1461056257806370a082311461059f578063864ca300146105dc576101e3565b806323b872dd1161017a578063576f7ea711610149578063576f7ea714610466578063602b6ece146104a35780636352211e146104cc578063670f715114610509576101e3565b806323b872dd146103965780633b779340146103d357806342616d21146104105780634e69d5601461043b576101e3565b80631ce28e72116101b65780631ce28e72146102ca5780631e9d48cf1461030757806321c3034b1461034457806322a4276f1461036d576101e3565b806301ffc9a7146101e857806306fdde0314610225578063081812fc14610250578063095ea7b31461028d575b600080fd5b3480156101f457600080fd5b5061020f600480360381019061020a91906130d0565b610818565b60405161021c91906139b1565b60405180910390f35b34801561023157600080fd5b5061023a6108fa565b60405161024791906139e7565b60405180910390f35b34801561025c57600080fd5b50610277600480360381019061027291906130f9565b61098c565b6040516102849190613936565b60405180910390f35b34801561029957600080fd5b506102b460048036038101906102af9190613017565b610a11565b6040516102c191906139b1565b60405180910390f35b3480156102d657600080fd5b506102f160048036038101906102ec9190612ed3565b610b22565b6040516102fe9190613c3f565b60405180910390f35b34801561031357600080fd5b5061032e60048036038101906103299190612ed3565b610be3565b60405161033b91906139b1565b60405180910390f35b34801561035057600080fd5b5061036b60048036038101906103669190613017565b610c03565b005b34801561037957600080fd5b50610394600480360381019061038f9190612fc3565b610d47565b005b3480156103a257600080fd5b506103bd60048036038101906103b89190612f38565b610de6565b6040516103ca91906139b1565b60405180910390f35b3480156103df57600080fd5b506103fa60048036038101906103f59190612ed3565b610e47565b60405161040791906139b1565b60405180910390f35b34801561041c57600080fd5b5061042561109d565b6040516104329190613c24565b60405180910390f35b34801561044757600080fd5b50610450611144565b60405161045d9190613c24565b60405180910390f35b34801561047257600080fd5b5061048d600480360381019061048891906130f9565b61115f565b60405161049a91906139e7565b60405180910390f35b3480156104af57600080fd5b506104ca60048036038101906104c59190612ed3565b611204565b005b3480156104d857600080fd5b506104f360048036038101906104ee91906130f9565b6113c2565b6040516105009190613936565b60405180910390f35b610523600480360381019061051e919061314b565b611474565b005b34801561053157600080fd5b5061054c60048036038101906105479190612ed3565b611682565b6040516105599190613c3f565b60405180910390f35b34801561056e57600080fd5b5061058960048036038101906105849190612ed3565b611743565b6040516105969190613c09565b60405180910390f35b3480156105ab57600080fd5b506105c660048036038101906105c19190612ed3565b611847565b6040516105d39190613c24565b60405180910390f35b3480156105e857600080fd5b5061060360048036038101906105fe9190612ed3565b6118ff565b6040516106109190613c24565b60405180910390f35b34801561062557600080fd5b5061062e6119b3565b60405161063b9190613936565b60405180910390f35b34801561065057600080fd5b506106596119d9565b60405161066691906139e7565b60405180910390f35b34801561067b57600080fd5b5061069660048036038101906106919190612f87565b611a6b565b005b3480156106a457600080fd5b506106bf60048036038101906106ba9190613017565b611a7a565b005b3480156106cd57600080fd5b506106e860048036038101906106e39190613053565b611c37565b005b3480156106f657600080fd5b50610711600480360381019061070c91906130f9565b611d78565b60405161071e91906139e7565b60405180910390f35b61072f611e1f565b005b34801561073d57600080fd5b50610746612043565b6040516107539190613936565b60405180910390f35b34801561076857600080fd5b50610783600480360381019061077e9190612efc565b61206d565b60405161079091906139b1565b60405180910390f35b3480156107a557600080fd5b506107ae612101565b6040516107bb9190613c24565b60405180910390f35b3480156107d057600080fd5b506107eb60048036038101906107e69190612f38565b61210b565b005b3480156107f957600080fd5b506108026121a1565b60405161080f91906139cc565b60405180910390f35b60007f7aa5391d000000000000000000000000000000000000000000000000000000007bffffffffffffffffffffffffffffffffffffffffffffffffffffffff1916827bffffffffffffffffffffffffffffffffffffffffffffffffffffffff191614806108e357507f5b5e139f000000000000000000000000000000000000000000000000000000007bffffffffffffffffffffffffffffffffffffffffffffffffffffffff1916827bffffffffffffffffffffffffffffffffffffffffffffffffffffffff1916145b806108f357506108f2826121c7565b5b9050919050565b60606000805461090990613f20565b80601f016020809104026020016040519081016040528092919081815260200182805461093590613f20565b80156109825780601f1061095757610100808354040283529160200191610982565b820191906000526020600020905b81548152906001019060200180831161096557829003601f168201915b5050505050905090565b600061099782612231565b6109d6576040517f08c379a00000000000000000000000000000000000000000000000000000000081526004016109cd90613b49565b60405180910390fd5b6005600083815260200190815260200160002060009054906101000a900473ffffffffffffffffffffffffffffffffffffffff169050919050565b600080610a1d836113c2565b90508073ffffffffffffffffffffffffffffffffffffffff168473ffffffffffffffffffffffffffffffffffffffff161415610a8e576040517f08c379a0000000000000000000000000000000000000000000000000000000008152600401610a8590613b89565b60405180910390fd5b8073ffffffffffffffffffffffffffffffffffffffff163373ffffffffffffffffffffffffffffffffffffffff161480610ace5750610acd813361206d565b5b610b0d576040517f08c379a0000000000000000000000000000000000000000000000000000000008152600401610b0490613aa9565b60405180910390fd5b610b17848461229d565b600191505092915050565b60008160011515600a60008373ffffffffffffffffffffffffffffffffffffffff1673ffffffffffffffffffffffffffffffffffffffff16815260200190815260200160002060009054906101000a900460ff16151514610b8257600080fd5b6000600b60008573ffffffffffffffffffffffffffffffffffffffff1673ffffffffffffffffffffffffffffffffffffffff16815260200190815260200160002090508060000160049054906101000a900463ffffffff1692505050919050565b600a6020528060005260406000206000915054906101000a900460ff1681565b600960009054906101000a900473ffffffffffffffffffffffffffffffffffffffff1673ffffffffffffffffffffffffffffffffffffffff163373ffffffffffffffffffffffffffffffffffffffff1614610c93576040517f08c379a0000000000000000000000000000000000000000000000000000000008152600401610c8a90613ba9565b60405180910390fd5b600c60009054906101000a900473ffffffffffffffffffffffffffffffffffffffff1673ffffffffffffffffffffffffffffffffffffffff1663a9059cbb83836040518363ffffffff1660e01b8152600401610cf0929190613988565b602060405180830381600087803b158015610d0a57600080fd5b505af1158015610d1e573d6000803e3d6000fd5b505050506040513d601f19601f82011682018060405250810190610d4291906130a7565b505050565b600960009054906101000a900473ffffffffffffffffffffffffffffffffffffffff1673ffffffffffffffffffffffffffffffffffffffff163373ffffffffffffffffffffffffffffffffffffffff1614610dd7576040517f08c379a0000000000000000000000000000000000000000000000000000000008152600401610dce90613ba9565b60405180910390fd5b610de18282612356565b505050565b6000610df284836123ad565b610e31576040517f08c379a0000000000000000000000000000000000000000000000000000000008152600401610e2890613bc9565b60405180910390fd5b610e3c84848461248b565b600190509392505050565b6000600960009054906101000a900473ffffffffffffffffffffffffffffffffffffffff1673ffffffffffffffffffffffffffffffffffffffff163373ffffffffffffffffffffffffffffffffffffffff1614610ed9576040517f08c379a0000000000000000000000000000000000000000000000000000000008152600401610ed090613ba9565b60405180910390fd5b60001515600a60008473ffffffffffffffffffffffffffffffffffffffff1673ffffffffffffffffffffffffffffffffffffffff16815260200190815260200160002060009054906101000a900460ff16151514610f3657600080fd5b6001600a60008473ffffffffffffffffffffffffffffffffffffffff1673ffffffffffffffffffffffffffffffffffffffff16815260200190815260200160002060006101000a81548160ff0219169083151502179055506000600b60008473ffffffffffffffffffffffffffffffffffffffff1673ffffffffffffffffffffffffffffffffffffffff168152602001908152602001600020905060018160000160006101000a81548163ffffffff021916908363ffffffff16021790555061012c8160000160046101000a81548163ffffffff021916908363ffffffff1602179055508060000160049054906101000a900463ffffffff1663ffffffff168160000160009054906101000a900463ffffffff1663ffffffff168473ffffffffffffffffffffffffffffffffffffffff167f35beac3098d189b6a4a53c370f630e51e7aeedceadeb14009537abfbc782e89160405160405180910390a46001915050919050565b6000600c60009054906101000a900473ffffffffffffffffffffffffffffffffffffffff1673ffffffffffffffffffffffffffffffffffffffff166318160ddd6040518163ffffffff1660e01b815260040160206040518083038186803b15801561110757600080fd5b505afa15801561111b573d6000803e3d6000fd5b505050506040513d601f19601f8201168201806040525081019061113f9190613122565b905090565b6000600a6111506126dc565b61115a9190613fc9565b905090565b606060076000838152602001908152602001600020805461117f90613f20565b80601f01602080910402602001604051908101604052809291908181526020018280546111ab90613f20565b80156111f85780601f106111cd576101008083540402835291602001916111f8565b820191906000526020600020905b8154815290600101906020018083116111db57829003601f168201915b50505050509050919050565b8060011515600a60008373ffffffffffffffffffffffffffffffffffffffff1673ffffffffffffffffffffffffffffffffffffffff16815260200190815260200160002060009054906101000a900460ff1615151461126257600080fd5b600960009054906101000a900473ffffffffffffffffffffffffffffffffffffffff1673ffffffffffffffffffffffffffffffffffffffff163373ffffffffffffffffffffffffffffffffffffffff16146112f2576040517f08c379a00000000000000000000000000000000000000000000000000000000081526004016112e990613ba9565b60405180910390fd5b600e546112fe836118ff565b101561130957600080fd5b611337600c60009054906101000a900473ffffffffffffffffffffffffffffffffffffffff16600e54610c03565b6000600b60008473ffffffffffffffffffffffffffffffffffffffff1673ffffffffffffffffffffffffffffffffffffffff168152602001908152602001600020905061012c8160000160048282829054906101000a900463ffffffff1661139f9190613d97565b92506101000a81548163ffffffff021916908363ffffffff160217905550505050565b6000806003600084815260200190815260200160002060009054906101000a900473ffffffffffffffffffffffffffffffffffffffff169050600073ffffffffffffffffffffffffffffffffffffffff168173ffffffffffffffffffffffffffffffffffffffff16141561146b576040517f08c379a000000000000000000000000000000000000000000000000000000000815260040161146290613ae9565b60405180910390fd5b80915050919050565b600960009054906101000a900473ffffffffffffffffffffffffffffffffffffffff1673ffffffffffffffffffffffffffffffffffffffff163373ffffffffffffffffffffffffffffffffffffffff1614611504576040517f08c379a00000000000000000000000000000000000000000000000000000000081526004016114fb90613ba9565b60405180910390fd5b600c60009054906101000a900473ffffffffffffffffffffffffffffffffffffffff1673ffffffffffffffffffffffffffffffffffffffff16636841998c82846040518363ffffffff1660e01b8152600401611561929190613988565b602060405180830381600087803b15801561157b57600080fd5b505af115801561158f573d6000803e3d6000fd5b505050506040513d601f19601f820116820180604052508101906115b391906130a7565b5060008190508073ffffffffffffffffffffffffffffffffffffffff166108fc349081150290604051600060405180830381858888f193505050501580156115ff573d6000803e3d6000fd5b50600960009054906101000a900473ffffffffffffffffffffffffffffffffffffffff1673ffffffffffffffffffffffffffffffffffffffff16343373ffffffffffffffffffffffffffffffffffffffff167f2a6aa52b92878a448a6228e76d6028a2f8eef833cd7c3107032f5e52d50ee5e260405160405180910390a4505050565b60008160011515600a60008373ffffffffffffffffffffffffffffffffffffffff1673ffffffffffffffffffffffffffffffffffffffff16815260200190815260200160002060009054906101000a900460ff161515146116e257600080fd5b6000600b60008573ffffffffffffffffffffffffffffffffffffffff1673ffffffffffffffffffffffffffffffffffffffff16815260200190815260200160002090508060000160009054906101000a900463ffffffff1692505050919050565b61174b612c8e565b8160011515600a60008373ffffffffffffffffffffffffffffffffffffffff1673ffffffffffffffffffffffffffffffffffffffff16815260200190815260200160002060009054906101000a900460ff161515146117a957600080fd5b600b60008473ffffffffffffffffffffffffffffffffffffffff1673ffffffffffffffffffffffffffffffffffffffff1681526020019081526020016000206040518060400160405290816000820160009054906101000a900463ffffffff1663ffffffff1663ffffffff1681526020016000820160049054906101000a900463ffffffff1663ffffffff1663ffffffff1681525050915050919050565b60008073ffffffffffffffffffffffffffffffffffffffff168273ffffffffffffffffffffffffffffffffffffffff1614156118b8576040517f08c379a00000000000000000000000000000000000000000000000000000000081526004016118af90613ac9565b60405180910390fd5b600460008373ffffffffffffffffffffffffffffffffffffffff1673ffffffffffffffffffffffffffffffffffffffff168152602001908152602001600020549050919050565b6000600c60009054906101000a900473ffffffffffffffffffffffffffffffffffffffff1673ffffffffffffffffffffffffffffffffffffffff166370a08231836040518263ffffffff1660e01b815260040161195c9190613936565b60206040518083038186803b15801561197457600080fd5b505afa158015611988573d6000803e3d6000fd5b505050506040513d601f19601f820116820180604052508101906119ac9190613122565b9050919050565b600960009054906101000a900473ffffffffffffffffffffffffffffffffffffffff1681565b6060600180546119e890613f20565b80601f0160208091040260200160405190810160405280929190818152602001828054611a1490613f20565b8015611a615780601f10611a3657610100808354040283529160200191611a61565b820191906000526020600020905b815481529060010190602001808311611a4457829003601f168201915b5050505050905090565b611a76338383612727565b5050565b8160011515600a60008373ffffffffffffffffffffffffffffffffffffffff1673ffffffffffffffffffffffffffffffffffffffff16815260200190815260200160002060009054906101000a900460ff16151514611ad857600080fd5b600960009054906101000a900473ffffffffffffffffffffffffffffffffffffffff1673ffffffffffffffffffffffffffffffffffffffff163373ffffffffffffffffffffffffffffffffffffffff1614611b68576040517f08c379a0000000000000000000000000000000000000000000000000000000008152600401611b5f90613ba9565b60405180910390fd5b600d54611b74846118ff565b1015611b7f57600080fd5b611bad600c60009054906101000a900473ffffffffffffffffffffffffffffffffffffffff16600d54610c03565b6000600b60008573ffffffffffffffffffffffffffffffffffffffff1673ffffffffffffffffffffffffffffffffffffffff1681526020019081526020016000209050828160000160008282829054906101000a900463ffffffff16611c139190613d97565b92506101000a81548163ffffffff021916908363ffffffff16021790555050505050565b600960009054906101000a900473ffffffffffffffffffffffffffffffffffffffff1673ffffffffffffffffffffffffffffffffffffffff163373ffffffffffffffffffffffffffffffffffffffff1614611cc7576040517f08c379a0000000000000000000000000000000000000000000000000000000008152600401611cbe90613ba9565b60405180910390fd5b60005b8251811015611d3057611d1d838281518110611d0f577f4e487b7100000000000000000000000000000000000000000000000000000000600052603260045260246000fd5b602002602001015183610c03565b8080611d2890613f52565b915050611cca565b508082604051611d4091906138fb565b60405180910390207fc42b81151105b69b8031a8ef488c24e67c4e0c67868f704c77b36554a8cf57ca60405160405180910390a35050565b6060611d8382612231565b611dc2576040517f08c379a0000000000000000000000000000000000000000000000000000000008152600401611db990613b69565b60405180910390fd5b6000611dcc612894565b90506000815111611dec5760405180602001604052806000815250611e17565b80611df6846128ab565b604051602001611e07929190613912565b6040516020818303038152906040525b915050919050565b600073ffffffffffffffffffffffffffffffffffffffff163373ffffffffffffffffffffffffffffffffffffffff161415611e8f576040517f08c379a0000000000000000000000000000000000000000000000000000000008152600401611e8690613be9565b60405180910390fd5b600064174876e80034611ea29190613dd1565b9050600c60009054906101000a900473ffffffffffffffffffffffffffffffffffffffff1673ffffffffffffffffffffffffffffffffffffffff1663a9059cbb33836040518363ffffffff1660e01b8152600401611f01929190613988565b602060405180830381600087803b158015611f1b57600080fd5b505af1158015611f2f573d6000803e3d6000fd5b505050506040513d601f19601f82011682018060405250810190611f5391906130a7565b506000600960009054906101000a900473ffffffffffffffffffffffffffffffffffffffff1690508073ffffffffffffffffffffffffffffffffffffffff166108fc349081150290604051600060405180830381858888f19350505050158015611fc1573d6000803e3d6000fd5b50600960009054906101000a900473ffffffffffffffffffffffffffffffffffffffff1673ffffffffffffffffffffffffffffffffffffffff16823373ffffffffffffffffffffffffffffffffffffffff167fd16ca01a270b004da993588e82e930de96672c56d0797fa5d3cb88a93e36f37b60405160405180910390a45050565b6000600960009054906101000a900473ffffffffffffffffffffffffffffffffffffffff16905090565b6000600660008473ffffffffffffffffffffffffffffffffffffffff1673ffffffffffffffffffffffffffffffffffffffff16815260200190815260200160002060008373ffffffffffffffffffffffffffffffffffffffff1673ffffffffffffffffffffffffffffffffffffffff16815260200190815260200160002060009054906101000a900460ff16905092915050565b6000600854905090565b600c60009054906101000a900473ffffffffffffffffffffffffffffffffffffffff1673ffffffffffffffffffffffffffffffffffffffff166363b0545f8484846040518463ffffffff1660e01b815260040161216a93929190613951565b600060405180830381600087803b15801561218457600080fd5b505af1158015612198573d6000803e3d6000fd5b50505050505050565b600c60009054906101000a900473ffffffffffffffffffffffffffffffffffffffff1681565b60007f01ffc9a7000000000000000000000000000000000000000000000000000000007bffffffffffffffffffffffffffffffffffffffffffffffffffffffff1916827bffffffffffffffffffffffffffffffffffffffffffffffffffffffff1916149050919050565b60008073ffffffffffffffffffffffffffffffffffffffff166003600084815260200190815260200160002060009054906101000a900473ffffffffffffffffffffffffffffffffffffffff1673ffffffffffffffffffffffffffffffffffffffff1614159050919050565b816005600083815260200190815260200160002060006101000a81548173ffffffffffffffffffffffffffffffffffffffff021916908373ffffffffffffffffffffffffffffffffffffffff160217905550808273ffffffffffffffffffffffffffffffffffffffff16612310836113c2565b73ffffffffffffffffffffffffffffffffffffffff167f8c5be1e5ebec7d5bd14f71427d1e84f3dd0314c0f7b2291e5b200ac8c7c3b92560405160405180910390a45050565b60006002600081548092919061236b90613f52565b91905055506008600081548092919061238390613f52565b9190505550600060025490506123998482612a58565b6123a38184612c1a565b8091505092915050565b60006123b882612231565b6123f7576040517f08c379a00000000000000000000000000000000000000000000000000000000081526004016123ee90613a89565b60405180910390fd5b6000612402836113c2565b90508073ffffffffffffffffffffffffffffffffffffffff168473ffffffffffffffffffffffffffffffffffffffff16148061247157508373ffffffffffffffffffffffffffffffffffffffff166124598461098c565b73ffffffffffffffffffffffffffffffffffffffff16145b806124825750612481818561206d565b5b91505092915050565b8273ffffffffffffffffffffffffffffffffffffffff166124ab826113c2565b73ffffffffffffffffffffffffffffffffffffffff1614612501576040517f08c379a00000000000000000000000000000000000000000000000000000000081526004016124f890613a09565b60405180910390fd5b600073ffffffffffffffffffffffffffffffffffffffff168273ffffffffffffffffffffffffffffffffffffffff161415612571576040517f08c379a000000000000000000000000000000000000000000000000000000000815260040161256890613a49565b60405180910390fd5b61257c60008261229d565b6001600460008573ffffffffffffffffffffffffffffffffffffffff1673ffffffffffffffffffffffffffffffffffffffff16815260200190815260200160002060008282546125cc9190613e02565b925050819055506001600460008473ffffffffffffffffffffffffffffffffffffffff1673ffffffffffffffffffffffffffffffffffffffff16815260200190815260200160002060008282546126239190613d41565b92505081905550816003600083815260200190815260200160002060006101000a81548173ffffffffffffffffffffffffffffffffffffffff021916908373ffffffffffffffffffffffffffffffffffffffff160217905550808273ffffffffffffffffffffffffffffffffffffffff168473ffffffffffffffffffffffffffffffffffffffff167fddf252ad1be2c89b69c2b068fc378daa952ba7f163c4a11628f55a4df523b3ef60405160405180910390a4505050565b6000806126e761109d565b9050606433826040516020016126fe9291906138cf565b6040516020818303038152906040528051906020012060001c6127219190613fc9565b91505090565b8173ffffffffffffffffffffffffffffffffffffffff168373ffffffffffffffffffffffffffffffffffffffff161415612796576040517f08c379a000000000000000000000000000000000000000000000000000000000815260040161278d90613a69565b60405180910390fd5b80600660008573ffffffffffffffffffffffffffffffffffffffff1673ffffffffffffffffffffffffffffffffffffffff16815260200190815260200160002060008473ffffffffffffffffffffffffffffffffffffffff1673ffffffffffffffffffffffffffffffffffffffff16815260200190815260200160002060006101000a81548160ff0219169083151502179055508173ffffffffffffffffffffffffffffffffffffffff168373ffffffffffffffffffffffffffffffffffffffff167f17307eab39ab6107e8899845ad3d59bd9653f200f220920489ca2b5937696c318360405161288791906139b1565b60405180910390a3505050565b606060405180602001604052806000815250905090565b606060008214156128f3576040518060400160405280600181526020017f30000000000000000000000000000000000000000000000000000000000000008152509050612a53565b600082905060005b6000821461292557808061290e90613f52565b915050600a8261291e9190613dd1565b91506128fb565b60008167ffffffffffffffff811115612967577f4e487b7100000000000000000000000000000000000000000000000000000000600052604160045260246000fd5b6040519080825280601f01601f1916602001820160405280156129995781602001600182028036833780820191505090505b5090505b60008514612a4c576001826129b29190613e02565b9150600a856129c19190613fc9565b60306129cd9190613d41565b60f81b818381518110612a09577f4e487b7100000000000000000000000000000000000000000000000000000000600052603260045260246000fd5b60200101907effffffffffffffffffffffffffffffffffffffffffffffffffffffffffffff1916908160001a905350600a85612a459190613dd1565b945061299d565b8093505050505b919050565b600073ffffffffffffffffffffffffffffffffffffffff168273ffffffffffffffffffffffffffffffffffffffff161415612ac8576040517f08c379a0000000000000000000000000000000000000000000000000000000008152600401612abf90613b29565b60405180910390fd5b612ad181612231565b15612b11576040517f08c379a0000000000000000000000000000000000000000000000000000000008152600401612b0890613a29565b60405180910390fd5b6001600460008473ffffffffffffffffffffffffffffffffffffffff1673ffffffffffffffffffffffffffffffffffffffff1681526020019081526020016000206000828254612b619190613d41565b92505081905550816003600083815260200190815260200160002060006101000a81548173ffffffffffffffffffffffffffffffffffffffff021916908373ffffffffffffffffffffffffffffffffffffffff160217905550808273ffffffffffffffffffffffffffffffffffffffff16600073ffffffffffffffffffffffffffffffffffffffff167fddf252ad1be2c89b69c2b068fc378daa952ba7f163c4a11628f55a4df523b3ef60405160405180910390a45050565b612c2382612231565b612c62576040517f08c379a0000000000000000000000000000000000000000000000000000000008152600401612c5990613b09565b60405180910390fd5b80600760008481526020019081526020016000209080519060200190612c89929190612cb4565b505050565b6040518060400160405280600063ffffffff168152602001600063ffffffff1681525090565b828054612cc090613f20565b90600052602060002090601f016020900481019282612ce25760008555612d29565b82601f10612cfb57805160ff1916838001178555612d29565b82800160010185558215612d29579182015b82811115612d28578251825591602001919060010190612d0d565b5b509050612d369190612d3a565b5090565b5b80821115612d53576000816000905550600101612d3b565b5090565b6000612d6a612d6584613c8b565b613c5a565b90508083825260208201905082856020860282011115612d8957600080fd5b60005b85811015612db95781612d9f8882612e01565b845260208401935060208301925050600181019050612d8c565b5050509392505050565b6000612dd6612dd184613cb7565b613c5a565b905082815260208101848484011115612dee57600080fd5b612df9848285613ede565b509392505050565b600081359050612e10816140d4565b92915050565b600082601f830112612e2757600080fd5b8135612e37848260208601612d57565b91505092915050565b600081359050612e4f816140eb565b92915050565b600081519050612e64816140eb565b92915050565b600081359050612e7981614102565b92915050565b600082601f830112612e9057600080fd5b8135612ea0848260208601612dc3565b91505092915050565b600081359050612eb881614119565b92915050565b600081519050612ecd81614119565b92915050565b600060208284031215612ee557600080fd5b6000612ef384828501612e01565b91505092915050565b60008060408385031215612f0f57600080fd5b6000612f1d85828601612e01565b9250506020612f2e85828601612e01565b9150509250929050565b600080600060608486031215612f4d57600080fd5b6000612f5b86828701612e01565b9350506020612f6c86828701612e01565b9250506040612f7d86828701612ea9565b9150509250925092565b60008060408385031215612f9a57600080fd5b6000612fa885828601612e01565b9250506020612fb985828601612e40565b9150509250929050565b60008060408385031215612fd657600080fd5b6000612fe485828601612e01565b925050602083013567ffffffffffffffff81111561300157600080fd5b61300d85828601612e7f565b9150509250929050565b6000806040838503121561302a57600080fd5b600061303885828601612e01565b925050602061304985828601612ea9565b9150509250929050565b6000806040838503121561306657600080fd5b600083013567ffffffffffffffff81111561308057600080fd5b61308c85828601612e16565b925050602061309d85828601612ea9565b9150509250929050565b6000602082840312156130b957600080fd5b60006130c784828501612e55565b91505092915050565b6000602082840312156130e257600080fd5b60006130f084828501612e6a565b91505092915050565b60006020828403121561310b57600080fd5b600061311984828501612ea9565b91505092915050565b60006020828403121561313457600080fd5b600061314284828501612ebe565b91505092915050565b6000806040838503121561315e57600080fd5b600061316c85828601612ea9565b925050602061317d85828601612e01565b9150509250929050565b600061319383836131ae565b60208301905092915050565b6131a881613e36565b82525050565b6131b781613e36565b82525050565b6131ce6131c982613e36565b613f9b565b82525050565b60006131df82613cf7565b6131e98185613d1a565b93506131f483613ce7565b8060005b8381101561322557815161320c8882613187565b975061321783613d0d565b9250506001810190506131f8565b5085935050505092915050565b61323b81613e48565b82525050565b61324a81613eba565b82525050565b600061325b82613d02565b6132658185613d25565b9350613275818560208601613eed565b61327e816140b6565b840191505092915050565b600061329482613d02565b61329e8185613d36565b93506132ae818560208601613eed565b80840191505092915050565b60006132c7602583613d25565b91507f4552433732313a207472616e736665722066726f6d20696e636f72726563742060008301527f6f776e65720000000000000000000000000000000000000000000000000000006020830152604082019050919050565b600061332d601c83613d25565b91507f4552433732313a20746f6b656e20616c7265616479206d696e746564000000006000830152602082019050919050565b600061336d602483613d25565b91507f4552433732313a207472616e7366657220746f20746865207a65726f2061646460008301527f72657373000000000000000000000000000000000000000000000000000000006020830152604082019050919050565b60006133d3601983613d25565b91507f4552433732313a20617070726f766520746f2063616c6c6572000000000000006000830152602082019050919050565b6000613413602c83613d25565b91507f4552433732313a206f70657261746f7220717565727920666f72206e6f6e657860008301527f697374656e7420746f6b656e00000000000000000000000000000000000000006020830152604082019050919050565b6000613479603883613d25565b91507f4552433732313a20617070726f76652063616c6c6572206973206e6f74206f7760008301527f6e6572206e6f7220617070726f76656420666f7220616c6c00000000000000006020830152604082019050919050565b60006134df602a83613d25565b91507f4552433732313a2062616c616e636520717565727920666f7220746865207a6560008301527f726f2061646472657373000000000000000000000000000000000000000000006020830152604082019050919050565b6000613545602983613d25565b91507f4552433732313a206f776e657220717565727920666f72206e6f6e657869737460008301527f656e7420746f6b656e00000000000000000000000000000000000000000000006020830152604082019050919050565b60006135ab602e83613d25565b91507f45524337323155524953746f726167653a2055524920736574206f66206e6f6e60008301527f6578697374656e7420746f6b656e0000000000000000000000000000000000006020830152604082019050919050565b6000613611602083613d25565b91507f4552433732313a206d696e7420746f20746865207a65726f20616464726573736000830152602082019050919050565b6000613651602c83613d25565b91507f4552433732313a20617070726f76656420717565727920666f72206e6f6e657860008301527f697374656e7420746f6b656e00000000000000000000000000000000000000006020830152604082019050919050565b60006136b7602f83613d25565b91507f4552433732314d657461646174613a2055524920717565727920666f72206e6f60008301527f6e6578697374656e7420746f6b656e00000000000000000000000000000000006020830152604082019050919050565b600061371d602183613d25565b91507f4552433732313a20617070726f76616c20746f2063757272656e74206f776e6560008301527f72000000000000000000000000000000000000000000000000000000000000006020830152604082019050919050565b6000613783600b83613d25565b91507f4e6f74204f776e657221210000000000000000000000000000000000000000006000830152602082019050919050565b60006137c3603183613d25565b91507f4552433732313a207472616e736665722063616c6c6572206973206e6f74206f60008301527f776e6572206e6f7220617070726f7665640000000000000000000000000000006020830152604082019050919050565b6000613829601283613d25565b91507f4e6f2045786973746564206164647265737300000000000000000000000000006000830152602082019050919050565b60408201600082015161387260008501826138b1565b50602082015161388560208501826138b1565b50505050565b61389481613ea0565b82525050565b6138ab6138a682613ea0565b613fbf565b82525050565b6138ba81613eaa565b82525050565b6138c981613eaa565b82525050565b60006138db82856131bd565b6014820191506138eb828461389a565b6020820191508190509392505050565b600061390782846131d4565b915081905092915050565b600061391e8285613289565b915061392a8284613289565b91508190509392505050565b600060208201905061394b600083018461319f565b92915050565b6000606082019050613966600083018661319f565b613973602083018561319f565b613980604083018461388b565b949350505050565b600060408201905061399d600083018561319f565b6139aa602083018461388b565b9392505050565b60006020820190506139c66000830184613232565b92915050565b60006020820190506139e16000830184613241565b92915050565b60006020820190508181036000830152613a018184613250565b905092915050565b60006020820190508181036000830152613a22816132ba565b9050919050565b60006020820190508181036000830152613a4281613320565b9050919050565b60006020820190508181036000830152613a6281613360565b9050919050565b60006020820190508181036000830152613a82816133c6565b9050919050565b60006020820190508181036000830152613aa281613406565b9050919050565b60006020820190508181036000830152613ac28161346c565b9050919050565b60006020820190508181036000830152613ae2816134d2565b9050919050565b60006020820190508181036000830152613b0281613538565b9050919050565b60006020820190508181036000830152613b228161359e565b9050919050565b60006020820190508181036000830152613b4281613604565b9050919050565b60006020820190508181036000830152613b6281613644565b9050919050565b60006020820190508181036000830152613b82816136aa565b9050919050565b60006020820190508181036000830152613ba281613710565b9050919050565b60006020820190508181036000830152613bc281613776565b9050919050565b60006020820190508181036000830152613be2816137b6565b9050919050565b60006020820190508181036000830152613c028161381c565b9050919050565b6000604082019050613c1e600083018461385c565b92915050565b6000602082019050613c39600083018461388b565b92915050565b6000602082019050613c5460008301846138c0565b92915050565b6000604051905081810181811067ffffffffffffffff82111715613c8157613c80614087565b5b8060405250919050565b600067ffffffffffffffff821115613ca657613ca5614087565b5b602082029050602081019050919050565b600067ffffffffffffffff821115613cd257613cd1614087565b5b601f19601f8301169050602081019050919050565b6000819050602082019050919050565b600081519050919050565b600081519050919050565b6000602082019050919050565b600081905092915050565b600082825260208201905092915050565b600081905092915050565b6000613d4c82613ea0565b9150613d5783613ea0565b9250827fffffffffffffffffffffffffffffffffffffffffffffffffffffffffffffffff03821115613d8c57613d8b613ffa565b5b828201905092915050565b6000613da282613eaa565b9150613dad83613eaa565b92508263ffffffff03821115613dc657613dc5613ffa565b5b828201905092915050565b6000613ddc82613ea0565b9150613de783613ea0565b925082613df757613df6614029565b5b828204905092915050565b6000613e0d82613ea0565b9150613e1883613ea0565b925082821015613e2b57613e2a613ffa565b5b828203905092915050565b6000613e4182613e80565b9050919050565b60008115159050919050565b60007fffffffff0000000000000000000000000000000000000000000000000000000082169050919050565b600073ffffffffffffffffffffffffffffffffffffffff82169050919050565b6000819050919050565b600063ffffffff82169050919050565b6000613ec582613ecc565b9050919050565b6000613ed782613e80565b9050919050565b82818337600083830152505050565b60005b83811015613f0b578082015181840152602081019050613ef0565b83811115613f1a576000848401525b50505050565b60006002820490506001821680613f3857607f821691505b60208210811415613f4c57613f4b614058565b5b50919050565b6000613f5d82613ea0565b91507fffffffffffffffffffffffffffffffffffffffffffffffffffffffffffffffff821415613f9057613f8f613ffa565b5b600182019050919050565b6000613fa682613fad565b9050919050565b6000613fb8826140c7565b9050919050565b6000819050919050565b6000613fd482613ea0565b9150613fdf83613ea0565b925082613fef57613fee614029565b5b828206905092915050565b7f4e487b7100000000000000000000000000000000000000000000000000000000600052601160045260246000fd5b7f4e487b7100000000000000000000000000000000000000000000000000000000600052601260045260246000fd5b7f4e487b7100000000000000000000000000000000000000000000000000000000600052602260045260246000fd5b7f4e487b7100000000000000000000000000000000000000000000000000000000600052604160045260246000fd5b6000601f19601f8301169050919050565b60008160601b9050919050565b6140dd81613e36565b81146140e857600080fd5b50565b6140f481613e48565b81146140ff57600080fd5b50565b61410b81613e54565b811461411657600080fd5b50565b61412281613ea0565b811461412d57600080fd5b5056fea2646970667358221220ca734511e8512bffdbe7b4dea10ad31a032a7841df4ca5d7209d10dbf1806ceb64736f6c63430008000033",
  "immutableReferences": {},
  "source": "\n// SPDX-License-Identifier: GPL-3.0\npragma solidity 0.8.0;\nimport \"./libraries/Token.sol\";\nimport \"./libraries/NFT.sol\";\n\ninterface char {\n    event NewUser(\n        address indexed owner,\n        uint256 indexed Pow,\n        uint256 indexed limit\n    );\n    event TokenPurchased(\n        address indexed account,\n        uint256 indexed amount,\n        address indexed server\n    );\n\n    event Token_Transfer_All(address[] indexed account, uint256 indexed value);\n\n    event Token_Sell(address indexed account, uint256 indexed amount, address indexed server);\n}\n\ncontract onlyOwner {\n    address public owner;\n    mapping(address => bool) public checkUser;\n\n    constructor() {\n        owner = msg.sender;\n    }\n\n    modifier onlyowner() {\n        require(msg.sender == owner, \"Not Owner!!\");\n        _;\n    }\n    modifier isOwner(address _address) {\n        require(checkUser[_address] == true);\n        _;\n    }\n\n    function showOwner() public view returns(address){\n        return owner;\n    }\n}\n\ncontract Character is NFT(\"item\", \"ITM\"), char, onlyOwner {\n    mapping(address => Characters) private _Character;\n    Token public gold;\n    uint256 PowFee = 30;\n    uint256 limitFee = 50;\n\n    struct Characters {\n        uint32 Pow;\n        uint32 limit;\n    }\n\n    constructor(address token) {\n        gold = Token(token);\n    }\n\n\n    function buyTokens() public payable {\n        require(msg.sender != address(0x0), \"No Existed address\");\n        //   wei   .\n        uint256 tokenAmount = msg.value / 100000000000;\n\n        gold.transfer(msg.sender, tokenAmount);\n\n        address payable p_owner = payable(owner);\n        p_owner.transfer(msg.value);\n\n        emit TokenPurchased(msg.sender, tokenAmount, owner);\n    }\n\n    function sellTokens(uint256 value, address seller) public payable onlyowner {\n        //      \n        // payable   eth    .\n        //   back_end   .\n        gold.transfer_Token_to_Ether(seller, value);\n        //  eth     value .\n\n        address payable p_owner = payable(seller);\n        p_owner.transfer(msg.value);\n\n        emit Token_Sell(msg.sender, msg.value, owner);\n    }\n\n    function NFTminting(address to, string memory URI) public onlyowner {\n        NFT.mintNFT(to, URI);\n    }\n\n    function Gold_transfer(address to,uint256 amount) public onlyowner{\n        gold.transfer(to, amount);\n    }\n\n    function Gold_transferfrom(address recipient, address sender, uint256 value) public {\n        // auction  \n        //    \n        gold.transferfrom(recipient, sender, value);\n    }\n\n    function goldmintAll(address[] memory account, uint256 amount)public onlyowner{\n        for(uint256 i=0; i<account.length; i++){\n            Gold_transfer(account[i], amount);\n        }\n        emit Token_Transfer_All(account, amount);\n    }\n\n    function makeCharacter(address _address) public onlyowner returns (bool) {\n        require(checkUser[_address] == false);\n        checkUser[_address] = true;\n        Characters storage character = _Character[_address];\n        character.Pow = 1;\n        character.limit = 300;\n\n        emit NewUser(_address, character.Pow, character.limit);\n        return true;\n    }\n\n    function IncreaseLimit(address _address)\n        public\n        isOwner(_address)\n        onlyowner\n    {\n        require(goldBalanceOf(_address) >= limitFee);\n        Gold_transfer(address(gold), limitFee);\n\n        Characters storage character = _Character[_address];\n        character.limit += 300;\n    }\n\n    function IncreasePow(address _address, uint256 _value)\n        public\n        isOwner(_address)\n        onlyowner\n    {\n        require(goldBalanceOf(_address) >= PowFee);\n         Gold_transfer(address(gold), PowFee);\n\n        Characters storage character = _Character[_address];\n        character.Pow += uint32(_value);\n    }\n\n    function getPow(address _address)\n        public\n        view\n        isOwner(_address)\n        returns (uint32)\n    {\n        Characters storage character = _Character[_address];\n        return character.Pow;\n    }\n\n    function getLimit(address _address)\n        public\n        view\n        isOwner(_address)\n        returns (uint32)\n    {\n        Characters storage character = _Character[_address];\n        return character.limit;\n    }\n\n    function getUser(address _address)\n        public\n        view\n        isOwner(_address)\n        returns (Characters memory)\n    {\n        return _Character[_address];\n    }\n\n    function getRandomNumber() internal view returns (uint256) {\n        uint256 total = goldTotalSupply();\n        return uint256(keccak256(abi.encodePacked(msg.sender, total))) % 100;\n    }\n\n    function getStatus() public view returns (uint256) {\n        return getRandomNumber() % 10;\n    }\n\n    function goldTotalSupply() public view returns (uint256) {\n        return gold.totalSupply();\n    }\n\n    function goldBalanceOf(address account) public view returns (uint256) {\n        return gold.balanceOf(account);\n    }\n}\n\n",
  "sourcePath": "/Users/yuhojin/Desktop/BEB_01_final2/truffle/contracts/Character.sol",
  "compiler": {
    "name": "solc",
    "version": "0.8.0+commit.c7dfd78e.Emscripten.clang"
  },
  "schemaVersion": "3.4.4",
  "updatedAt": "2022-01-28T08:01:56.720Z",
  "networkType": "ethereum",
  "devdoc": {
    "kind": "dev",
    "methods": {},
    "version": 1
  },
  "userdoc": {
    "kind": "user",
    "methods": {},
    "version": 1
  }
}