{
  "contractName": "NFT",
  "abi": [
    {
      "inputs": [
        {
          "internalType": "string",
          "name": "name_",
          "type": "string"
        },
        {
          "internalType": "string",
          "name": "symbol_",
          "type": "string"
        }
      ],
      "stateMutability": "nonpayable",
      "type": "constructor"
    },
    {
      "anonymous": false,
      "inputs": [
        {
          "indexed": true,
          "internalType": "address",
          "name": "owner",
          "type": "address"
        },
        {
          "indexed": true,
          "internalType": "address",
          "name": "approved",
          "type": "address"
        },
        {
          "indexed": true,
          "internalType": "uint256",
          "name": "tokenId",
          "type": "uint256"
        }
      ],
      "name": "Approval",
      "type": "event"
    },
    {
      "anonymous": false,
      "inputs": [
        {
          "indexed": true,
          "internalType": "address",
          "name": "owner",
          "type": "address"
        },
        {
          "indexed": true,
          "internalType": "address",
          "name": "operator",
          "type": "address"
        },
        {
          "indexed": false,
          "internalType": "bool",
          "name": "approved",
          "type": "bool"
        }
      ],
      "name": "ApprovalForAll",
      "type": "event"
    },
    {
      "anonymous": false,
      "inputs": [
        {
          "indexed": true,
          "internalType": "address",
          "name": "from",
          "type": "address"
        },
        {
          "indexed": true,
          "internalType": "address",
          "name": "to",
          "type": "address"
        },
        {
          "indexed": true,
          "internalType": "uint256",
          "name": "tokenId",
          "type": "uint256"
        }
      ],
      "name": "Transfer",
      "type": "event"
    },
    {
      "inputs": [],
      "name": "getTotalNFTAmount",
      "outputs": [
        {
          "internalType": "uint256",
          "name": "",
          "type": "uint256"
        }
      ],
      "stateMutability": "view",
      "type": "function"
    },
    {
      "inputs": [
        {
          "internalType": "address",
          "name": "from",
          "type": "address"
        },
        {
          "internalType": "address",
          "name": "to",
          "type": "address"
        },
        {
          "internalType": "uint256",
          "name": "tokenId",
          "type": "uint256"
        }
      ],
      "name": "transferFrom",
      "outputs": [
        {
          "internalType": "bool",
          "name": "",
          "type": "bool"
        }
      ],
      "stateMutability": "nonpayable",
      "type": "function"
    },
    {
      "inputs": [
        {
          "internalType": "uint256",
          "name": "_id",
          "type": "uint256"
        }
      ],
      "name": "getNFT",
      "outputs": [
        {
          "internalType": "string",
          "name": "",
          "type": "string"
        }
      ],
      "stateMutability": "view",
      "type": "function"
    },
    {
      "inputs": [
        {
          "internalType": "bytes4",
          "name": "interfaceId",
          "type": "bytes4"
        }
      ],
      "name": "supportsInterface",
      "outputs": [
        {
          "internalType": "bool",
          "name": "",
          "type": "bool"
        }
      ],
      "stateMutability": "view",
      "type": "function"
    },
    {
      "inputs": [
        {
          "internalType": "address",
          "name": "owner",
          "type": "address"
        }
      ],
      "name": "balanceOf",
      "outputs": [
        {
          "internalType": "uint256",
          "name": "",
          "type": "uint256"
        }
      ],
      "stateMutability": "view",
      "type": "function"
    },
    {
      "inputs": [
        {
          "internalType": "uint256",
          "name": "tokenId",
          "type": "uint256"
        }
      ],
      "name": "ownerOf",
      "outputs": [
        {
          "internalType": "address",
          "name": "",
          "type": "address"
        }
      ],
      "stateMutability": "view",
      "type": "function"
    },
    {
      "inputs": [],
      "name": "name",
      "outputs": [
        {
          "internalType": "string",
          "name": "",
          "type": "string"
        }
      ],
      "stateMutability": "view",
      "type": "function"
    },
    {
      "inputs": [],
      "name": "symbol",
      "outputs": [
        {
          "internalType": "string",
          "name": "",
          "type": "string"
        }
      ],
      "stateMutability": "view",
      "type": "function"
    },
    {
      "inputs": [
        {
          "internalType": "uint256",
          "name": "tokenId",
          "type": "uint256"
        }
      ],
      "name": "tokenURI",
      "outputs": [
        {
          "internalType": "string",
          "name": "",
          "type": "string"
        }
      ],
      "stateMutability": "view",
      "type": "function"
    },
    {
      "inputs": [
        {
          "internalType": "uint256",
          "name": "tokenId",
          "type": "uint256"
        }
      ],
      "name": "getApproved",
      "outputs": [
        {
          "internalType": "address",
          "name": "",
          "type": "address"
        }
      ],
      "stateMutability": "view",
      "type": "function"
    },
    {
      "inputs": [
        {
          "internalType": "address",
          "name": "operator",
          "type": "address"
        },
        {
          "internalType": "bool",
          "name": "approved",
          "type": "bool"
        }
      ],
      "name": "setApprovalForAll",
      "outputs": [],
      "stateMutability": "nonpayable",
      "type": "function"
    },
    {
      "inputs": [
        {
          "internalType": "address",
          "name": "owner",
          "type": "address"
        },
        {
          "internalType": "address",
          "name": "operator",
          "type": "address"
        }
      ],
      "name": "isApprovedForAll",
      "outputs": [
        {
          "internalType": "bool",
          "name": "",
          "type": "bool"
        }
      ],
      "stateMutability": "view",
      "type": "function"
    },
    {
      "inputs": [
        {
          "internalType": "address",
          "name": "to",
          "type": "address"
        },
        {
          "internalType": "uint256",
          "name": "tokenId",
          "type": "uint256"
        }
      ],
      "name": "approve",
      "outputs": [
        {
          "internalType": "bool",
          "name": "",
          "type": "bool"
        }
      ],
      "stateMutability": "nonpayable",
      "type": "function"
    }
  ],
  "bytecode": "0x6080604052600060025560006008553480156200001b57600080fd5b506040516200219b3803806200219b83398181016040528101906200004191906200019d565b8160009080519060200190620000599291906200007b565b508060019080519060200190620000729291906200007b565b50505062000341565b8280546200008990620002ad565b90600052602060002090601f016020900481019282620000ad5760008555620000f9565b82601f10620000c857805160ff1916838001178555620000f9565b82800160010185558215620000f9579182015b82811115620000f8578251825591602001919060010190620000db565b5b5090506200010891906200010c565b5090565b5b80821115620001275760008160009055506001016200010d565b5090565b6000620001426200013c8462000244565b62000210565b9050828152602081018484840111156200015b57600080fd5b6200016884828562000277565b509392505050565b600082601f8301126200018257600080fd5b8151620001948482602086016200012b565b91505092915050565b60008060408385031215620001b157600080fd5b600083015167ffffffffffffffff811115620001cc57600080fd5b620001da8582860162000170565b925050602083015167ffffffffffffffff811115620001f857600080fd5b620002068582860162000170565b9150509250929050565b6000604051905081810181811067ffffffffffffffff821117156200023a576200023962000312565b5b8060405250919050565b600067ffffffffffffffff82111562000262576200026162000312565b5b601f19601f8301169050602081019050919050565b60005b83811015620002975780820151818401526020810190506200027a565b83811115620002a7576000848401525b50505050565b60006002820490506001821680620002c657607f821691505b60208210811415620002dd57620002dc620002e3565b5b50919050565b7f4e487b7100000000000000000000000000000000000000000000000000000000600052602260045260246000fd5b7f4e487b7100000000000000000000000000000000000000000000000000000000600052604160045260246000fd5b611e4a80620003516000396000f3fe608060405234801561001057600080fd5b50600436106100cf5760003560e01c80636352211e1161008c578063a22cb46511610066578063a22cb46514610260578063c87b56dd1461027c578063e985e9c5146102ac578063ee4ff360146102dc576100cf565b80636352211e146101e257806370a082311461021257806395d89b4114610242576100cf565b806301ffc9a7146100d457806306fdde0314610104578063081812fc14610122578063095ea7b31461015257806323b872dd14610182578063576f7ea7146101b2575b600080fd5b6100ee60048036038101906100e991906113c9565b6102fa565b6040516100fb919061192d565b60405180910390f35b61010c6103dc565b6040516101199190611948565b60405180910390f35b61013c600480360381019061013791906113f2565b61046e565b6040516101499190611912565b60405180910390f35b61016c6004803603810190610167919061138d565b6104f3565b604051610179919061192d565b60405180910390f35b61019c60048036038101906101979190611302565b610604565b6040516101a9919061192d565b60405180910390f35b6101cc60048036038101906101c791906113f2565b610665565b6040516101d99190611948565b60405180910390f35b6101fc60048036038101906101f791906113f2565b61070a565b6040516102099190611912565b60405180910390f35b61022c6004803603810190610227919061129d565b6107bc565b6040516102399190611aca565b60405180910390f35b61024a610874565b6040516102579190611948565b60405180910390f35b61027a60048036038101906102759190611351565b610906565b005b610296600480360381019061029191906113f2565b610915565b6040516102a39190611948565b60405180910390f35b6102c660048036038101906102c191906112c6565b6109bc565b6040516102d3919061192d565b60405180910390f35b6102e4610a50565b6040516102f19190611aca565b60405180910390f35b60007f7aa5391d000000000000000000000000000000000000000000000000000000007bffffffffffffffffffffffffffffffffffffffffffffffffffffffff1916827bffffffffffffffffffffffffffffffffffffffffffffffffffffffff191614806103c557507f5b5e139f000000000000000000000000000000000000000000000000000000007bffffffffffffffffffffffffffffffffffffffffffffffffffffffff1916827bffffffffffffffffffffffffffffffffffffffffffffffffffffffff1916145b806103d557506103d482610a5a565b5b9050919050565b6060600080546103eb90611c6e565b80601f016020809104026020016040519081016040528092919081815260200182805461041790611c6e565b80156104645780601f1061043957610100808354040283529160200191610464565b820191906000526020600020905b81548152906001019060200180831161044757829003601f168201915b5050505050905090565b600061047982610ac4565b6104b8576040517f08c379a00000000000000000000000000000000000000000000000000000000081526004016104af90611a4a565b60405180910390fd5b6005600083815260200190815260200160002060009054906101000a900473ffffffffffffffffffffffffffffffffffffffff169050919050565b6000806104ff8361070a565b90508073ffffffffffffffffffffffffffffffffffffffff168473ffffffffffffffffffffffffffffffffffffffff161415610570576040517f08c379a000000000000000000000000000000000000000000000000000000000815260040161056790611a8a565b60405180910390fd5b8073ffffffffffffffffffffffffffffffffffffffff163373ffffffffffffffffffffffffffffffffffffffff1614806105b057506105af81336109bc565b5b6105ef576040517f08c379a00000000000000000000000000000000000000000000000000000000081526004016105e6906119ea565b60405180910390fd5b6105f98484610b30565b600191505092915050565b60006106108483610be9565b61064f576040517f08c379a000000000000000000000000000000000000000000000000000000000815260040161064690611aaa565b60405180910390fd5b61065a848484610cc7565b600190509392505050565b606060076000838152602001908152602001600020805461068590611c6e565b80601f01602080910402602001604051908101604052809291908181526020018280546106b190611c6e565b80156106fe5780601f106106d3576101008083540402835291602001916106fe565b820191906000526020600020905b8154815290600101906020018083116106e157829003601f168201915b50505050509050919050565b6000806003600084815260200190815260200160002060009054906101000a900473ffffffffffffffffffffffffffffffffffffffff169050600073ffffffffffffffffffffffffffffffffffffffff168173ffffffffffffffffffffffffffffffffffffffff1614156107b3576040517f08c379a00000000000000000000000000000000000000000000000000000000081526004016107aa90611a2a565b60405180910390fd5b80915050919050565b60008073ffffffffffffffffffffffffffffffffffffffff168273ffffffffffffffffffffffffffffffffffffffff16141561082d576040517f08c379a000000000000000000000000000000000000000000000000000000000815260040161082490611a0a565b60405180910390fd5b600460008373ffffffffffffffffffffffffffffffffffffffff1673ffffffffffffffffffffffffffffffffffffffff168152602001908152602001600020549050919050565b60606001805461088390611c6e565b80601f01602080910402602001604051908101604052809291908181526020018280546108af90611c6e565b80156108fc5780601f106108d1576101008083540402835291602001916108fc565b820191906000526020600020905b8154815290600101906020018083116108df57829003601f168201915b5050505050905090565b610911338383610f18565b5050565b606061092082610ac4565b61095f576040517f08c379a000000000000000000000000000000000000000000000000000000000815260040161095690611a6a565b60405180910390fd5b6000610969611085565b9050600081511161098957604051806020016040528060008152506109b4565b806109938461109c565b6040516020016109a49291906118ee565b6040516020818303038152906040525b915050919050565b6000600660008473ffffffffffffffffffffffffffffffffffffffff1673ffffffffffffffffffffffffffffffffffffffff16815260200190815260200160002060008373ffffffffffffffffffffffffffffffffffffffff1673ffffffffffffffffffffffffffffffffffffffff16815260200190815260200160002060009054906101000a900460ff16905092915050565b6000600854905090565b60007f01ffc9a7000000000000000000000000000000000000000000000000000000007bffffffffffffffffffffffffffffffffffffffffffffffffffffffff1916827bffffffffffffffffffffffffffffffffffffffffffffffffffffffff1916149050919050565b60008073ffffffffffffffffffffffffffffffffffffffff166003600084815260200190815260200160002060009054906101000a900473ffffffffffffffffffffffffffffffffffffffff1673ffffffffffffffffffffffffffffffffffffffff1614159050919050565b816005600083815260200190815260200160002060006101000a81548173ffffffffffffffffffffffffffffffffffffffff021916908373ffffffffffffffffffffffffffffffffffffffff160217905550808273ffffffffffffffffffffffffffffffffffffffff16610ba38361070a565b73ffffffffffffffffffffffffffffffffffffffff167f8c5be1e5ebec7d5bd14f71427d1e84f3dd0314c0f7b2291e5b200ac8c7c3b92560405160405180910390a45050565b6000610bf482610ac4565b610c33576040517f08c379a0000000000000000000000000000000000000000000000000000000008152600401610c2a906119ca565b60405180910390fd5b6000610c3e8361070a565b90508073ffffffffffffffffffffffffffffffffffffffff168473ffffffffffffffffffffffffffffffffffffffff161480610cad57508373ffffffffffffffffffffffffffffffffffffffff16610c958461046e565b73ffffffffffffffffffffffffffffffffffffffff16145b80610cbe5750610cbd81856109bc565b5b91505092915050565b8273ffffffffffffffffffffffffffffffffffffffff16610ce78261070a565b73ffffffffffffffffffffffffffffffffffffffff1614610d3d576040517f08c379a0000000000000000000000000000000000000000000000000000000008152600401610d349061196a565b60405180910390fd5b600073ffffffffffffffffffffffffffffffffffffffff168273ffffffffffffffffffffffffffffffffffffffff161415610dad576040517f08c379a0000000000000000000000000000000000000000000000000000000008152600401610da49061198a565b60405180910390fd5b610db8600082610b30565b6001600460008573ffffffffffffffffffffffffffffffffffffffff1673ffffffffffffffffffffffffffffffffffffffff1681526020019081526020016000206000828254610e089190611b93565b925050819055506001600460008473ffffffffffffffffffffffffffffffffffffffff1673ffffffffffffffffffffffffffffffffffffffff1681526020019081526020016000206000828254610e5f9190611b0c565b92505081905550816003600083815260200190815260200160002060006101000a81548173ffffffffffffffffffffffffffffffffffffffff021916908373ffffffffffffffffffffffffffffffffffffffff160217905550808273ffffffffffffffffffffffffffffffffffffffff168473ffffffffffffffffffffffffffffffffffffffff167fddf252ad1be2c89b69c2b068fc378daa952ba7f163c4a11628f55a4df523b3ef60405160405180910390a4505050565b8173ffffffffffffffffffffffffffffffffffffffff168373ffffffffffffffffffffffffffffffffffffffff161415610f87576040517f08c379a0000000000000000000000000000000000000000000000000000000008152600401610f7e906119aa565b60405180910390fd5b80600660008573ffffffffffffffffffffffffffffffffffffffff1673ffffffffffffffffffffffffffffffffffffffff16815260200190815260200160002060008473ffffffffffffffffffffffffffffffffffffffff1673ffffffffffffffffffffffffffffffffffffffff16815260200190815260200160002060006101000a81548160ff0219169083151502179055508173ffffffffffffffffffffffffffffffffffffffff168373ffffffffffffffffffffffffffffffffffffffff167f17307eab39ab6107e8899845ad3d59bd9653f200f220920489ca2b5937696c3183604051611078919061192d565b60405180910390a3505050565b606060405180602001604052806000815250905090565b606060008214156110e4576040518060400160405280600181526020017f30000000000000000000000000000000000000000000000000000000000000008152509050611244565b600082905060005b600082146111165780806110ff90611ca0565b915050600a8261110f9190611b62565b91506110ec565b60008167ffffffffffffffff811115611158577f4e487b7100000000000000000000000000000000000000000000000000000000600052604160045260246000fd5b6040519080825280601f01601f19166020018201604052801561118a5781602001600182028036833780820191505090505b5090505b6000851461123d576001826111a39190611b93565b9150600a856111b29190611ce9565b60306111be9190611b0c565b60f81b8183815181106111fa577f4e487b7100000000000000000000000000000000000000000000000000000000600052603260045260246000fd5b60200101907effffffffffffffffffffffffffffffffffffffffffffffffffffffffffffff1916908160001a905350600a856112369190611b62565b945061118e565b8093505050505b919050565b60008135905061125881611db8565b92915050565b60008135905061126d81611dcf565b92915050565b60008135905061128281611de6565b92915050565b60008135905061129781611dfd565b92915050565b6000602082840312156112af57600080fd5b60006112bd84828501611249565b91505092915050565b600080604083850312156112d957600080fd5b60006112e785828601611249565b92505060206112f885828601611249565b9150509250929050565b60008060006060848603121561131757600080fd5b600061132586828701611249565b935050602061133686828701611249565b925050604061134786828701611288565b9150509250925092565b6000806040838503121561136457600080fd5b600061137285828601611249565b92505060206113838582860161125e565b9150509250929050565b600080604083850312156113a057600080fd5b60006113ae85828601611249565b92505060206113bf85828601611288565b9150509250929050565b6000602082840312156113db57600080fd5b60006113e984828501611273565b91505092915050565b60006020828403121561140457600080fd5b600061141284828501611288565b91505092915050565b61142481611bc7565b82525050565b61143381611bd9565b82525050565b600061144482611ae5565b61144e8185611af0565b935061145e818560208601611c3b565b61146781611da7565b840191505092915050565b600061147d82611ae5565b6114878185611b01565b9350611497818560208601611c3b565b80840191505092915050565b60006114b0602583611af0565b91507f4552433732313a207472616e736665722066726f6d20696e636f72726563742060008301527f6f776e65720000000000000000000000000000000000000000000000000000006020830152604082019050919050565b6000611516602483611af0565b91507f4552433732313a207472616e7366657220746f20746865207a65726f2061646460008301527f72657373000000000000000000000000000000000000000000000000000000006020830152604082019050919050565b600061157c601983611af0565b91507f4552433732313a20617070726f766520746f2063616c6c6572000000000000006000830152602082019050919050565b60006115bc602c83611af0565b91507f4552433732313a206f70657261746f7220717565727920666f72206e6f6e657860008301527f697374656e7420746f6b656e00000000000000000000000000000000000000006020830152604082019050919050565b6000611622603883611af0565b91507f4552433732313a20617070726f76652063616c6c6572206973206e6f74206f7760008301527f6e6572206e6f7220617070726f76656420666f7220616c6c00000000000000006020830152604082019050919050565b6000611688602a83611af0565b91507f4552433732313a2062616c616e636520717565727920666f7220746865207a6560008301527f726f2061646472657373000000000000000000000000000000000000000000006020830152604082019050919050565b60006116ee602983611af0565b91507f4552433732313a206f776e657220717565727920666f72206e6f6e657869737460008301527f656e7420746f6b656e00000000000000000000000000000000000000000000006020830152604082019050919050565b6000611754602c83611af0565b91507f4552433732313a20617070726f76656420717565727920666f72206e6f6e657860008301527f697374656e7420746f6b656e00000000000000000000000000000000000000006020830152604082019050919050565b60006117ba602f83611af0565b91507f4552433732314d657461646174613a2055524920717565727920666f72206e6f60008301527f6e6578697374656e7420746f6b656e00000000000000000000000000000000006020830152604082019050919050565b6000611820602183611af0565b91507f4552433732313a20617070726f76616c20746f2063757272656e74206f776e6560008301527f72000000000000000000000000000000000000000000000000000000000000006020830152604082019050919050565b6000611886603183611af0565b91507f4552433732313a207472616e736665722063616c6c6572206973206e6f74206f60008301527f776e6572206e6f7220617070726f7665640000000000000000000000000000006020830152604082019050919050565b6118e881611c31565b82525050565b60006118fa8285611472565b91506119068284611472565b91508190509392505050565b6000602082019050611927600083018461141b565b92915050565b6000602082019050611942600083018461142a565b92915050565b600060208201905081810360008301526119628184611439565b905092915050565b60006020820190508181036000830152611983816114a3565b9050919050565b600060208201905081810360008301526119a381611509565b9050919050565b600060208201905081810360008301526119c38161156f565b9050919050565b600060208201905081810360008301526119e3816115af565b9050919050565b60006020820190508181036000830152611a0381611615565b9050919050565b60006020820190508181036000830152611a238161167b565b9050919050565b60006020820190508181036000830152611a43816116e1565b9050919050565b60006020820190508181036000830152611a6381611747565b9050919050565b60006020820190508181036000830152611a83816117ad565b9050919050565b60006020820190508181036000830152611aa381611813565b9050919050565b60006020820190508181036000830152611ac381611879565b9050919050565b6000602082019050611adf60008301846118df565b92915050565b600081519050919050565b600082825260208201905092915050565b600081905092915050565b6000611b1782611c31565b9150611b2283611c31565b9250827fffffffffffffffffffffffffffffffffffffffffffffffffffffffffffffffff03821115611b5757611b56611d1a565b5b828201905092915050565b6000611b6d82611c31565b9150611b7883611c31565b925082611b8857611b87611d49565b5b828204905092915050565b6000611b9e82611c31565b9150611ba983611c31565b925082821015611bbc57611bbb611d1a565b5b828203905092915050565b6000611bd282611c11565b9050919050565b60008115159050919050565b60007fffffffff0000000000000000000000000000000000000000000000000000000082169050919050565b600073ffffffffffffffffffffffffffffffffffffffff82169050919050565b6000819050919050565b60005b83811015611c59578082015181840152602081019050611c3e565b83811115611c68576000848401525b50505050565b60006002820490506001821680611c8657607f821691505b60208210811415611c9a57611c99611d78565b5b50919050565b6000611cab82611c31565b91507fffffffffffffffffffffffffffffffffffffffffffffffffffffffffffffffff821415611cde57611cdd611d1a565b5b600182019050919050565b6000611cf482611c31565b9150611cff83611c31565b925082611d0f57611d0e611d49565b5b828206905092915050565b7f4e487b7100000000000000000000000000000000000000000000000000000000600052601160045260246000fd5b7f4e487b7100000000000000000000000000000000000000000000000000000000600052601260045260246000fd5b7f4e487b7100000000000000000000000000000000000000000000000000000000600052602260045260246000fd5b6000601f19601f8301169050919050565b611dc181611bc7565b8114611dcc57600080fd5b50565b611dd881611bd9565b8114611de357600080fd5b50565b611def81611be5565b8114611dfa57600080fd5b50565b611e0681611c31565b8114611e1157600080fd5b5056fea26469706673582212206dc6555c971b0a735111994d34a9aa371650548ab687cc5d791c8f06cf84894264736f6c63430008000033",
  "immutableReferences": {},
  "source": "// SPDX-License-Identifier: GPL-3.0\npragma solidity 0.8.0;\n\nimport \"./ERC165.sol\";\nimport \"./utils/Strings.sol\";\nimport \"./Token.sol\";\n\ninterface IERC721 is IERC165 {\n    function balanceOf(address owner) external view returns (uint256 balance);\n\n    function ownerOf(uint256 tokenId) external view returns (address owner);\n\n    function transferFrom(\n        address from,\n        address to,\n        uint256 tokenId\n    ) external  returns (bool);\n\n    function approve(address to, uint256 tokenId) external returns (bool);\n\n    function getApproved(uint256 tokenId)\n        external\n        view\n        returns (address operator);\n\n    function setApprovalForAll(address operator, bool _approved) external;\n\n    function isApprovedForAll(address owner, address operator)\n        external\n        view\n        returns (bool);\n\n    event Transfer(\n        address indexed from,\n        address indexed to,\n        uint256 indexed tokenId\n    );\n    event Approval(\n        address indexed owner,\n        address indexed approved,\n        uint256 indexed tokenId\n    );\n    event ApprovalForAll(\n        address indexed owner,\n        address indexed operator,\n        bool approved\n    );\n}\n\ninterface IERC721Metadata is IERC721 {\n    function name() external view returns (string memory);\n\n    function symbol() external view returns (string memory);\n\n    function tokenURI(uint256 tokenId) external view returns (string memory);\n}\n\ncontract NFT is IERC721, IERC721Metadata, ERC165 {\n    using Strings for uint256;\n\n    string private _name;\n    string private _symbol;\n    uint256 private _nftId = 0;\n\n    mapping(uint256 => address) private _owners;\n    mapping(address => uint256) private _balances;\n    mapping(uint256 => address) private _tokenApprovals;\n    mapping(address => mapping(address => bool)) private _operatorApprovals;\n    mapping(uint256 => string) private _tokenURIs;\n\n    uint256 private _TotalNFTAmount = 0;\n\n    constructor(string memory name_, string memory symbol_) {\n        _name = name_;\n        _symbol = symbol_;\n    }\n\n    function mintNFT(address to, string memory URI) internal returns (uint256) {\n        _nftId++;\n        _TotalNFTAmount++;\n        uint256 newId = _nftId;\n        _mint(to, newId);\n        _setTokenURI(newId, URI);\n\n        return newId;\n    }\n\n    function _mint(address to, uint256 tokenId) internal virtual {\n        require(to != address(0), \"ERC721: mint to the zero address\");\n        require(!_exists(tokenId), \"ERC721: token already minted\");\n\n        _balances[to] += 1;\n        _owners[tokenId] = to;\n\n        emit Transfer(address(0), to, tokenId);\n    }\n\n    function _setTokenURI(uint256 tokenId, string memory _tokenURI)\n        internal\n        virtual\n    {\n        require(\n            _exists(tokenId),\n            \"ERC721URIStorage: URI set of nonexistent token\"\n        );\n        _tokenURIs[tokenId] = _tokenURI;\n    }\n\n    function _exists(uint256 tokenId) internal view virtual returns (bool) {\n        return _owners[tokenId] != address(0);\n    }\n\n    function getTotalNFTAmount() public view returns (uint256) {\n        return _TotalNFTAmount;\n    }\n\n    function transferFrom(\n        address from,\n        address to,\n        uint256 tokenId\n    ) external virtual override  returns (bool) {\n        require(\n            _isApprovedOrOwner(from, tokenId),\n            \"ERC721: transfer caller is not owner nor approved\"\n        );\n\n        _Transfer(from, to, tokenId);\n        return true;\n    }\n\n    function getNFT(uint256 _id) public view returns (string memory) {\n        return _tokenURIs[_id];\n    }\n\n    function _isApprovedOrOwner(address spender, uint256 tokenId)\n        internal\n        view\n        virtual\n        returns (bool)\n    {\n        require(\n            _exists(tokenId),\n            \"ERC721: operator query for nonexistent token\"\n        );\n        address owner = NFT.ownerOf(tokenId);\n        return (spender == owner ||\n            getApproved(tokenId) == spender ||\n            isApprovedForAll(owner, spender));\n    }\n\n    function _Transfer(\n        address from,\n        address to,\n        uint256 tokenId\n    ) internal virtual {\n        require(\n            NFT.ownerOf(tokenId) == from,\n            \"ERC721: transfer from incorrect owner\"\n        );\n        require(to != address(0), \"ERC721: transfer to the zero address\");\n\n        _approve(address(0), tokenId);\n\n        _balances[from] -= 1;\n        _balances[to] += 1;\n        _owners[tokenId] = to;\n\n        emit Transfer(from, to, tokenId);\n    }\n\n    function supportsInterface(bytes4 interfaceId)\n        public\n        view\n        virtual\n        override(ERC165, IERC165)\n        returns (bool)\n    {\n        return\n            interfaceId == type(IERC721).interfaceId ||\n            interfaceId == type(IERC721Metadata).interfaceId ||\n            super.supportsInterface(interfaceId);\n    }\n\n    function balanceOf(address owner)\n        public\n        view\n        virtual\n        override\n        returns (uint256)\n    {\n        require(\n            owner != address(0),\n            \"ERC721: balance query for the zero address\"\n        );\n        return _balances[owner];\n    }\n\n    function ownerOf(uint256 tokenId)\n        public\n        view\n        virtual\n        override\n        returns (address)\n    {\n        address owner = _owners[tokenId];\n        require(\n            owner != address(0),\n            \"ERC721: owner query for nonexistent token\"\n        );\n        return owner;\n    }\n\n    function name() external view virtual override returns (string memory) {\n        return _name;\n    }\n\n    function symbol() external view virtual override returns (string memory) {\n        return _symbol;\n    }\n\n    function tokenURI(uint256 tokenId)\n        public\n        view\n        virtual\n        override\n        returns (string memory)\n    {\n        require(\n            _exists(tokenId),\n            \"ERC721Metadata: URI query for nonexistent token\"\n        );\n        string memory baseURI = _baseURI();\n        return\n            bytes(baseURI).length > 0\n                ? string(abi.encodePacked(baseURI, tokenId.toString()))\n                : \"\";\n    }\n\n    function getApproved(uint256 tokenId)\n        public\n        view\n        virtual\n        override\n        returns (address)\n    {\n        require(\n            _exists(tokenId),\n            \"ERC721: approved query for nonexistent token\"\n        );\n        return _tokenApprovals[tokenId];\n    }\n\n    function setApprovalForAll(address operator, bool approved)\n        public\n        virtual\n        override\n    {\n        _setApprovalForAll(msg.sender, operator, approved);\n    }\n\n    function isApprovedForAll(address owner, address operator)\n        public\n        view\n        virtual\n        override\n        returns (bool)\n    {\n        return _operatorApprovals[owner][operator];\n    }\n\n    function approve(address to, uint256 tokenId)\n        external\n        virtual\n        override\n        returns (bool)\n    {\n        address owner = NFT.ownerOf(tokenId);\n        require(to != owner, \"ERC721: approval to current owner\");\n\n        require(\n            msg.sender == owner || isApprovedForAll(owner, msg.sender),\n            \"ERC721: approve caller is not owner nor approved for all\"\n        );\n\n        _approve(to, tokenId);\n        return true;\n    }\n\n    function _baseURI() internal view virtual returns (string memory) {\n        return \"\";\n    }\n\n    function _approve(address to, uint256 tokenId) internal virtual {\n        _tokenApprovals[tokenId] = to;\n        emit Approval(NFT.ownerOf(tokenId), to, tokenId);\n    }\n\n    function _setApprovalForAll(\n        address owner,\n        address operator,\n        bool approved\n    ) internal virtual {\n        require(owner != operator, \"ERC721: approve to caller\");\n        _operatorApprovals[owner][operator] = approved;\n        emit ApprovalForAll(owner, operator, approved);\n    }\n\n    function _burn(uint256 tokenId) internal virtual {\n        address owner = NFT.ownerOf(tokenId);\n\n        _approve(address(0), tokenId);\n\n        _balances[owner] -= 1;\n        delete _owners[tokenId];\n\n        emit Transfer(owner, address(0), tokenId);\n    }\n}\n",
  "sourcePath": "/Users/yuhojin/Desktop/BEB_01_final2-contract/truffle/contracts/libraries/NFT.sol",
  "compiler": {
    "name": "solc",
    "version": "0.8.0+commit.c7dfd78e.Emscripten.clang"
  },
  "schemaVersion": "3.4.4",
  "updatedAt": "2022-01-24T07:11:44.740Z",
  "devdoc": {
    "kind": "dev",
    "methods": {},
    "version": 1
  },
  "userdoc": {
    "kind": "user",
    "methods": {},
    "version": 1
  }
}