{
  "contractName": "onlyOwner",
  "abi": [
    {
      "inputs": [],
      "stateMutability": "nonpayable",
      "type": "constructor"
    },
    {
      "inputs": [
        {
          "internalType": "address",
          "name": "",
          "type": "address"
        }
      ],
      "name": "checkUser",
      "outputs": [
        {
          "internalType": "bool",
          "name": "",
          "type": "bool"
        }
      ],
      "stateMutability": "view",
      "type": "function"
    },
    {
      "inputs": [],
      "name": "owner",
      "outputs": [
        {
          "internalType": "address",
          "name": "",
          "type": "address"
        }
      ],
      "stateMutability": "view",
      "type": "function"
    },
    {
      "inputs": [],
      "name": "showOwner",
      "outputs": [
        {
          "internalType": "address",
          "name": "",
          "type": "address"
        }
      ],
      "stateMutability": "view",
      "type": "function"
    }
  ],
  "bytecode": "0x608060405234801561001057600080fd5b50336000806101000a81548173ffffffffffffffffffffffffffffffffffffffff021916908373ffffffffffffffffffffffffffffffffffffffff16021790555061023c806100606000396000f3fe608060405234801561001057600080fd5b50600436106100415760003560e01c80631e9d48cf146100465780638da5cb5b14610076578063ded9468814610094575b600080fd5b610060600480360381019061005b9190610134565b6100b2565b60405161006d9190610196565b60405180910390f35b61007e6100d2565b60405161008b919061017b565b60405180910390f35b61009c6100f6565b6040516100a9919061017b565b60405180910390f35b60016020528060005260406000206000915054906101000a900460ff1681565b60008054906101000a900473ffffffffffffffffffffffffffffffffffffffff1681565b60008060009054906101000a900473ffffffffffffffffffffffffffffffffffffffff16905090565b60008135905061012e816101ef565b92915050565b60006020828403121561014657600080fd5b60006101548482850161011f565b91505092915050565b610166816101b1565b82525050565b610175816101c3565b82525050565b6000602082019050610190600083018461015d565b92915050565b60006020820190506101ab600083018461016c565b92915050565b60006101bc826101cf565b9050919050565b60008115159050919050565b600073ffffffffffffffffffffffffffffffffffffffff82169050919050565b6101f8816101b1565b811461020357600080fd5b5056fea26469706673582212205c3f611e84addccef2d174d50962cf9fd3b2b289ebb977fbfce5735d94357b5a64736f6c63430008000033",
  "immutableReferences": {},
  "source": "\n// SPDX-License-Identifier: GPL-3.0\npragma solidity 0.8.0;\nimport \"./libraries/Token.sol\";\nimport \"./libraries/NFT.sol\";\n\ninterface char {\n    event NewUser(\n        address indexed owner,\n        uint256 indexed Pow,\n        uint256 indexed limit\n    );\n    event TokenPurchased(\n        address indexed account,\n        uint256 indexed amount,\n        address indexed server\n    );\n\n    event Token_Transfer_All(address[] indexed account, uint256 indexed value);\n\n    event Token_Sell(address indexed account, uint256 indexed amount, address indexed server);\n}\n\ncontract onlyOwner {\n    address public owner;\n    mapping(address => bool) public checkUser;\n\n    constructor() {\n        owner = msg.sender;\n    }\n\n    modifier onlyowner() {\n        require(msg.sender == owner, \"Not Owner!!\");\n        _;\n    }\n    modifier isOwner(address _address) {\n        require(checkUser[_address] == true);\n        _;\n    }\n\n    function showOwner() public view returns(address){\n        return owner;\n    }\n}\n\ncontract Character is NFT(\"item\", \"ITM\"), char, onlyOwner {\n    mapping(address => Characters) private _Character;\n    Token public gold;\n    uint256 PowFee = 30;\n    uint256 limitFee = 50;\n\n    struct Characters {\n        uint32 Pow;\n        uint32 limit;\n    }\n\n    constructor(address token) {\n        gold = Token(token);\n    }\n\n\n    function buyTokens() public payable {\n        require(msg.sender != address(0x0), \"No Existed address\");\n        // 단위 계산이 wei로 들어오기 때문에 나눠준다.\n        uint256 tokenAmount = msg.value / 100000000000;\n\n        gold.transfer(msg.sender, tokenAmount);\n\n        address payable p_owner = payable(owner);\n        p_owner.transfer(msg.value);\n\n        emit TokenPurchased(msg.sender, tokenAmount, owner);\n    }\n\n    function sellTokens(uint256 value, address seller) public payable onlyowner {\n        // 중앙화된 서버 객체가 실행 시켜야 한다\n        // payable함수 이기 떄문에 eth를 함께 전송해 주어야 한다.\n        // 값 계산은 back_end에서 이루어 지게 구성하였다.\n        gold.transfer_Token_to_Ether(seller, value);\n        // 단위를 eth로 전송을 할 것이기 떄문에 value에서 나눠준다.\n\n        address payable p_owner = payable(seller);\n        p_owner.transfer(msg.value);\n\n        emit Token_Sell(msg.sender, msg.value, owner);\n    }\n\n    function NFTminting(address to, string memory URI) public onlyowner {\n        NFT.mintNFT(to, URI);\n    }\n\n    function Gold_transfer(address to,uint256 amount) public onlyowner{\n        gold.transfer(to, amount);\n    }\n\n    function Gold_transferfrom(address recipient, address sender, uint256 value) public {\n        // auction에서 사용되는 부분\n        // 사용자간에 토큰 이동을 지원\n        gold.transferfrom(recipient, sender, value);\n    }\n\n    function goldmintAll(address[] memory account, uint256 amount)public onlyowner{\n        for(uint256 i=0; i<account.length; i++){\n            Gold_transfer(account[i], amount);\n        }\n        emit Token_Transfer_All(account, amount);\n    }\n\n    function makeCharacter(address _address) public onlyowner returns (bool) {\n        require(checkUser[_address] == false);\n        checkUser[_address] = true;\n        Characters storage character = _Character[_address];\n        character.Pow = 1;\n        character.limit = 300;\n\n        emit NewUser(_address, character.Pow, character.limit);\n        return true;\n    }\n\n    function IncreaseLimit(address _address)\n        public\n        isOwner(_address)\n        onlyowner\n    {\n        require(goldBalanceOf(_address) >= limitFee);\n        Gold_transfer(address(gold), limitFee);\n\n        Characters storage character = _Character[_address];\n        character.limit += 300;\n    }\n\n    function IncreasePow(address _address, uint256 _value)\n        public\n        isOwner(_address)\n        onlyowner\n    {\n        require(goldBalanceOf(_address) >= PowFee);\n         Gold_transfer(address(gold), PowFee);\n\n        Characters storage character = _Character[_address];\n        character.Pow += uint32(_value);\n    }\n\n    function getPow(address _address)\n        public\n        view\n        isOwner(_address)\n        returns (uint32)\n    {\n        Characters storage character = _Character[_address];\n        return character.Pow;\n    }\n\n    function getLimit(address _address)\n        public\n        view\n        isOwner(_address)\n        returns (uint32)\n    {\n        Characters storage character = _Character[_address];\n        return character.limit;\n    }\n\n    function getUser(address _address)\n        public\n        view\n        isOwner(_address)\n        returns (Characters memory)\n    {\n        return _Character[_address];\n    }\n\n    function getRandomNumber() internal view returns (uint256) {\n        uint256 total = goldTotalSupply();\n        return uint256(keccak256(abi.encodePacked(msg.sender, total))) % 100;\n    }\n\n    function getStatus() public view returns (uint256) {\n        return getRandomNumber() % 10;\n    }\n\n    function goldTotalSupply() public view returns (uint256) {\n        return gold.totalSupply();\n    }\n\n    function goldBalanceOf(address account) public view returns (uint256) {\n        return gold.balanceOf(account);\n    }\n}\n\n",
  "sourcePath": "/Users/yuhojin/Desktop/BEB_01_final2/truffle/contracts/Character.sol",
  "compiler": {
    "name": "solc",
    "version": "0.8.0+commit.c7dfd78e.Emscripten.clang"
  },
  "schemaVersion": "3.4.4",
  "updatedAt": "2022-01-28T07:56:52.666Z",
  "devdoc": {
    "kind": "dev",
    "methods": {},
    "version": 1
  },
  "userdoc": {
    "kind": "user",
    "methods": {},
    "version": 1
  }
}