{
  "contractName": "Token",
  "abi": [
    {
      "inputs": [
        {
          "internalType": "string",
          "name": "TokenName_",
          "type": "string"
        },
        {
          "internalType": "string",
          "name": "TokenSymbol_",
          "type": "string"
        }
      ],
      "stateMutability": "nonpayable",
      "type": "constructor"
    },
    {
      "anonymous": false,
      "inputs": [
        {
          "indexed": true,
          "internalType": "address",
          "name": "from",
          "type": "address"
        },
        {
          "indexed": true,
          "internalType": "address",
          "name": "to",
          "type": "address"
        },
        {
          "indexed": false,
          "internalType": "uint256",
          "name": "amount",
          "type": "uint256"
        }
      ],
      "name": "Transfer",
      "type": "event"
    },
    {
      "inputs": [
        {
          "internalType": "address",
          "name": "account",
          "type": "address"
        }
      ],
      "name": "balanceOf",
      "outputs": [
        {
          "internalType": "uint256",
          "name": "",
          "type": "uint256"
        }
      ],
      "stateMutability": "view",
      "type": "function",
      "constant": true
    },
    {
      "inputs": [
        {
          "internalType": "address",
          "name": "recipient",
          "type": "address"
        },
        {
          "internalType": "uint256",
          "name": "amount",
          "type": "uint256"
        }
      ],
      "name": "transfer",
      "outputs": [
        {
          "internalType": "bool",
          "name": "",
          "type": "bool"
        }
      ],
      "stateMutability": "nonpayable",
      "type": "function"
    },
    {
      "inputs": [
        {
          "internalType": "address",
          "name": "seller",
          "type": "address"
        },
        {
          "internalType": "uint256",
          "name": "amount",
          "type": "uint256"
        }
      ],
      "name": "transfer_Token_to_Ether",
      "outputs": [
        {
          "internalType": "bool",
          "name": "",
          "type": "bool"
        }
      ],
      "stateMutability": "nonpayable",
      "type": "function"
    },
    {
      "inputs": [
        {
          "internalType": "address",
          "name": "recipient",
          "type": "address"
        },
        {
          "internalType": "address",
          "name": "sender",
          "type": "address"
        },
        {
          "internalType": "uint256",
          "name": "amount",
          "type": "uint256"
        }
      ],
      "name": "transferfrom",
      "outputs": [],
      "stateMutability": "nonpayable",
      "type": "function"
    },
    {
      "inputs": [],
      "name": "name",
      "outputs": [
        {
          "internalType": "string",
          "name": "",
          "type": "string"
        }
      ],
      "stateMutability": "view",
      "type": "function",
      "constant": true
    },
    {
      "inputs": [],
      "name": "symbol",
      "outputs": [
        {
          "internalType": "string",
          "name": "",
          "type": "string"
        }
      ],
      "stateMutability": "view",
      "type": "function",
      "constant": true
    },
    {
      "inputs": [],
      "name": "showSymbol",
      "outputs": [
        {
          "internalType": "string",
          "name": "",
          "type": "string"
        }
      ],
      "stateMutability": "view",
      "type": "function",
      "constant": true
    },
    {
      "inputs": [],
      "name": "totalSupply",
      "outputs": [
        {
          "internalType": "uint256",
          "name": "",
          "type": "uint256"
        }
      ],
      "stateMutability": "view",
      "type": "function",
      "constant": true
    }
  ],
  "bytecode": "0x608060405269152d02c7e14af68000006002553480156200001f57600080fd5b50604051620011b0380380620011b08339818101604052810190620000459190620001e6565b81600390805190602001906200005d929190620000c4565b50806004908051906020019062000076929190620000c4565b506002546000803073ffffffffffffffffffffffffffffffffffffffff1673ffffffffffffffffffffffffffffffffffffffff1681526020019081526020016000208190555050506200038a565b828054620000d290620002f6565b90600052602060002090601f016020900481019282620000f6576000855562000142565b82601f106200011157805160ff191683800117855562000142565b8280016001018555821562000142579182015b828111156200014157825182559160200191906001019062000124565b5b50905062000151919062000155565b5090565b5b808211156200017057600081600090555060010162000156565b5090565b60006200018b62000185846200028d565b62000259565b905082815260208101848484011115620001a457600080fd5b620001b1848285620002c0565b509392505050565b600082601f830112620001cb57600080fd5b8151620001dd84826020860162000174565b91505092915050565b60008060408385031215620001fa57600080fd5b600083015167ffffffffffffffff8111156200021557600080fd5b6200022385828601620001b9565b925050602083015167ffffffffffffffff8111156200024157600080fd5b6200024f85828601620001b9565b9150509250929050565b6000604051905081810181811067ffffffffffffffff821117156200028357620002826200035b565b5b8060405250919050565b600067ffffffffffffffff821115620002ab57620002aa6200035b565b5b601f19601f8301169050602081019050919050565b60005b83811015620002e0578082015181840152602081019050620002c3565b83811115620002f0576000848401525b50505050565b600060028204905060018216806200030f57607f821691505b602082108114156200032657620003256200032c565b5b50919050565b7f4e487b7100000000000000000000000000000000000000000000000000000000600052602260045260246000fd5b7f4e487b7100000000000000000000000000000000000000000000000000000000600052604160045260246000fd5b610e16806200039a6000396000f3fe608060405234801561001057600080fd5b50600436106100885760003560e01c80636841998c1161005b5780636841998c1461010357806370a082311461013357806395d89b4114610163578063a9059cbb1461018157610088565b806306fdde031461008d57806318160ddd146100ab5780635bcf6935146100c957806363b0545f146100e7575b600080fd5b6100956101b1565b6040516100a29190610b53565b60405180910390f35b6100b3610243565b6040516100c09190610bd5565b60405180910390f35b6100d161024d565b6040516100de9190610b53565b60405180910390f35b61010160048036038101906100fc9190610924565b6102df565b005b61011d60048036038101906101189190610973565b6104ef565b60405161012a9190610b38565b60405180910390f35b61014d600480360381019061014891906108fb565b61056b565b60405161015a9190610bd5565b60405180910390f35b61016b6105b3565b6040516101789190610b53565b60405180910390f35b61019b60048036038101906101969190610973565b610645565b6040516101a89190610b38565b60405180910390f35b6060600380546101c090610d11565b80601f01602080910402602001604051908101604052809291908181526020018280546101ec90610d11565b80156102395780601f1061020e57610100808354040283529160200191610239565b820191906000526020600020905b81548152906001019060200180831161021c57829003601f168201915b5050505050905090565b6000600254905090565b60606004805461025c90610d11565b80601f016020809104026020016040519081016040528092919081815260200182805461028890610d11565b80156102d55780601f106102aa576101008083540402835291602001916102d5565b820191906000526020600020905b8154815290600101906020018083116102b857829003601f168201915b5050505050905090565b600073ffffffffffffffffffffffffffffffffffffffff168273ffffffffffffffffffffffffffffffffffffffff16141561034f576040517f08c379a000000000000000000000000000000000000000000000000000000000815260040161034690610bb5565b60405180910390fd5b600073ffffffffffffffffffffffffffffffffffffffff168373ffffffffffffffffffffffffffffffffffffffff1614156103bf576040517f08c379a00000000000000000000000000000000000000000000000000000000081526004016103b690610b75565b60405180910390fd5b806000808473ffffffffffffffffffffffffffffffffffffffff1673ffffffffffffffffffffffffffffffffffffffff168152602001908152602001600020541015610440576040517f08c379a000000000000000000000000000000000000000000000000000000000815260040161043790610b95565b60405180910390fd5b806000808473ffffffffffffffffffffffffffffffffffffffff1673ffffffffffffffffffffffffffffffffffffffff168152602001908152602001600020600082825461048e9190610c62565b92505081905550806000808573ffffffffffffffffffffffffffffffffffffffff1673ffffffffffffffffffffffffffffffffffffffff16815260200190815260200160002060008282546104e39190610c0c565b92505081905550505050565b60006104fc8330846106c1565b3073ffffffffffffffffffffffffffffffffffffffff168373ffffffffffffffffffffffffffffffffffffffff167fddf252ad1be2c89b69c2b068fc378daa952ba7f163c4a11628f55a4df523b3ef846040516105599190610bd5565b60405180910390a36001905092915050565b60008060008373ffffffffffffffffffffffffffffffffffffffff1673ffffffffffffffffffffffffffffffffffffffff168152602001908152602001600020549050919050565b6060600480546105c290610d11565b80601f01602080910402602001604051908101604052809291908181526020018280546105ee90610d11565b801561063b5780601f106106105761010080835404028352916020019161063b565b820191906000526020600020905b81548152906001019060200180831161061e57829003601f168201915b5050505050905090565b60006106523084846106c1565b8273ffffffffffffffffffffffffffffffffffffffff163073ffffffffffffffffffffffffffffffffffffffff167fddf252ad1be2c89b69c2b068fc378daa952ba7f163c4a11628f55a4df523b3ef846040516106af9190610bd5565b60405180910390a36001905092915050565b600073ffffffffffffffffffffffffffffffffffffffff168373ffffffffffffffffffffffffffffffffffffffff161415610731576040517f08c379a000000000000000000000000000000000000000000000000000000000815260040161072890610bb5565b60405180910390fd5b600073ffffffffffffffffffffffffffffffffffffffff168273ffffffffffffffffffffffffffffffffffffffff1614156107a1576040517f08c379a000000000000000000000000000000000000000000000000000000000815260040161079890610b75565b60405180910390fd5b806000808573ffffffffffffffffffffffffffffffffffffffff1673ffffffffffffffffffffffffffffffffffffffff168152602001908152602001600020541015610822576040517f08c379a000000000000000000000000000000000000000000000000000000000815260040161081990610b95565b60405180910390fd5b806000808573ffffffffffffffffffffffffffffffffffffffff1673ffffffffffffffffffffffffffffffffffffffff16815260200190815260200160002060008282546108709190610c62565b92505081905550806000808473ffffffffffffffffffffffffffffffffffffffff1673ffffffffffffffffffffffffffffffffffffffff16815260200190815260200160002060008282546108c59190610c0c565b92505081905550505050565b6000813590506108e081610db2565b92915050565b6000813590506108f581610dc9565b92915050565b60006020828403121561090d57600080fd5b600061091b848285016108d1565b91505092915050565b60008060006060848603121561093957600080fd5b6000610947868287016108d1565b9350506020610958868287016108d1565b9250506040610969868287016108e6565b9150509250925092565b6000806040838503121561098657600080fd5b6000610994858286016108d1565b92505060206109a5858286016108e6565b9150509250929050565b6109b881610ca8565b82525050565b60006109c982610bf0565b6109d38185610bfb565b93506109e3818560208601610cde565b6109ec81610da1565b840191505092915050565b6000610a04602383610bfb565b91507f45524332303a207472616e7366657220746f20746865207a65726f206164647260008301527f65737300000000000000000000000000000000000000000000000000000000006020830152604082019050919050565b6000610a6a602683610bfb565b91507f45524332303a207472616e7366657220616d6f756e742065786365656473206260008301527f616c616e636500000000000000000000000000000000000000000000000000006020830152604082019050919050565b6000610ad0602583610bfb565b91507f45524332303a207472616e736665722066726f6d20746865207a65726f20616460008301527f64726573730000000000000000000000000000000000000000000000000000006020830152604082019050919050565b610b3281610cd4565b82525050565b6000602082019050610b4d60008301846109af565b92915050565b60006020820190508181036000830152610b6d81846109be565b905092915050565b60006020820190508181036000830152610b8e816109f7565b9050919050565b60006020820190508181036000830152610bae81610a5d565b9050919050565b60006020820190508181036000830152610bce81610ac3565b9050919050565b6000602082019050610bea6000830184610b29565b92915050565b600081519050919050565b600082825260208201905092915050565b6000610c1782610cd4565b9150610c2283610cd4565b9250827fffffffffffffffffffffffffffffffffffffffffffffffffffffffffffffffff03821115610c5757610c56610d43565b5b828201905092915050565b6000610c6d82610cd4565b9150610c7883610cd4565b925082821015610c8b57610c8a610d43565b5b828203905092915050565b6000610ca182610cb4565b9050919050565b60008115159050919050565b600073ffffffffffffffffffffffffffffffffffffffff82169050919050565b6000819050919050565b60005b83811015610cfc578082015181840152602081019050610ce1565b83811115610d0b576000848401525b50505050565b60006002820490506001821680610d2957607f821691505b60208210811415610d3d57610d3c610d72565b5b50919050565b7f4e487b7100000000000000000000000000000000000000000000000000000000600052601160045260246000fd5b7f4e487b7100000000000000000000000000000000000000000000000000000000600052602260045260246000fd5b6000601f19601f8301169050919050565b610dbb81610c96565b8114610dc657600080fd5b50565b610dd281610cd4565b8114610ddd57600080fd5b5056fea2646970667358221220350f9625c2d4467b3107b7e27e01f332fdbac3aed1dbfdcdbc1cef9a10b5afe564736f6c63430008000033",
  "immutableReferences": {},
  "source": "\n\n// SPDX-License-Identifier: GPL-3.0\npragma solidity 0.8.0;\n\ninterface TokenInterface {\n    function totalSupply() external view returns (uint256);\n\n    function balanceOf(address account) external view returns (uint256);\n\n    function transfer(\n        address recipient,\n        uint256 amount\n    ) external returns (bool);\n\n    event Transfer(address indexed from, address indexed to, uint256 amount);\n}\n\ncontract Token is TokenInterface {\n    mapping(address => uint256) private _balances;\n    mapping(address => bool) private _check;\n\n    uint256 private Token_totalSupply  = 100000000000000000000000;\n    string private _name;\n    string private _symbol;\n    uint256 private _decimals;\n\n    constructor(string memory TokenName_, string memory TokenSymbol_) {\n        _name = TokenName_;\n        _symbol = TokenSymbol_;\n        _balances[address(this)] = Token_totalSupply;\n    }\n\n    function balanceOf(address account) public view virtual override returns (uint256) {\n        return _balances[account];\n    }\n\n    function transfer(\n        address recipient,\n        uint256 amount\n    ) external virtual override returns (bool) {\n        _transfer(address(this), recipient, amount);\n        emit Transfer(address(this), recipient, amount);\n        return true;\n    }\n\n    function transfer_Token_to_Ether(address seller, uint256 amount) external returns(bool){\n        _transfer(seller, address(this), amount);\n\n        emit Transfer(seller, address(this), amount);\n        return true;\n    }\n    \n    function _transfer(\n        address sender,\n        address recipient,\n        uint256 amount\n    ) internal {\n        require(sender != address(0), \"ERC20: transfer from the zero address\");\n        require(recipient != address(0), \"ERC20: transfer to the zero address\");\n        require(\n            _balances[sender] >= amount,\n            \"ERC20: transfer amount exceeds balance\"\n        );\n        _balances[sender] -= amount;\n        _balances[recipient] += amount;\n    }\n\n    function transferfrom(address recipient, address sender, uint256 amount) external{\n        require(sender != address(0), \"ERC20: transfer from the zero address\");\n        require(recipient != address(0), \"ERC20: transfer to the zero address\");\n        require(_balances[sender] >= amount,  \"ERC20: transfer amount exceeds balance\");\n\n        _balances[sender] -= amount;\n        _balances[recipient] += amount;\n    }\n\n     function name() public view virtual returns (string memory) {\n        return _name;\n    }\n\n    function symbol() public view virtual returns (string memory) {\n        return _symbol;\n    }\n\n    function showSymbol() public view returns (string memory) {\n        return _symbol;\n    }\n\n    function totalSupply() public view override returns (uint256) {\n        return Token_totalSupply;\n    }\n\n}\n\n",
  "sourcePath": "/Users/yuhojin/Desktop/BEB_01_final2/truffle/contracts/libraries/Token.sol",
  "compiler": {
    "name": "solc",
    "version": "0.8.0+commit.c7dfd78e.Emscripten.clang"
  },
  "schemaVersion": "3.4.4",
  "updatedAt": "2022-01-28T08:01:56.701Z",
  "networkType": "ethereum",
  "devdoc": {
    "kind": "dev",
    "methods": {},
    "version": 1
  },
  "userdoc": {
    "kind": "user",
    "methods": {},
    "version": 1
  }
}