{
  "contractName": "Token",
  "abi": [
    {
      "inputs": [
        {
          "internalType": "string",
          "name": "TokenName_",
          "type": "string"
        },
        {
          "internalType": "string",
          "name": "TokenSymbol_",
          "type": "string"
        }
      ],
      "stateMutability": "nonpayable",
      "type": "constructor"
    },
    {
      "anonymous": false,
      "inputs": [
        {
          "indexed": true,
          "internalType": "address",
          "name": "from",
          "type": "address"
        },
        {
          "indexed": true,
          "internalType": "address",
          "name": "to",
          "type": "address"
        },
        {
          "indexed": false,
          "internalType": "uint256",
          "name": "amount",
          "type": "uint256"
        }
      ],
      "name": "Transfer",
      "type": "event"
    },
    {
      "inputs": [],
      "name": "totalSupply",
      "outputs": [
        {
          "internalType": "uint256",
          "name": "",
          "type": "uint256"
        }
      ],
      "stateMutability": "view",
      "type": "function",
      "constant": true
    },
    {
      "inputs": [
        {
          "internalType": "address",
          "name": "account",
          "type": "address"
        }
      ],
      "name": "balanceOf",
      "outputs": [
        {
          "internalType": "uint256",
          "name": "",
          "type": "uint256"
        }
      ],
      "stateMutability": "view",
      "type": "function",
      "constant": true
    },
    {
      "inputs": [],
      "name": "decimals",
      "outputs": [
        {
          "internalType": "uint8",
          "name": "",
          "type": "uint8"
        }
      ],
      "stateMutability": "view",
      "type": "function",
      "constant": true
    },
    {
      "inputs": [],
      "name": "name",
      "outputs": [
        {
          "internalType": "string",
          "name": "",
          "type": "string"
        }
      ],
      "stateMutability": "view",
      "type": "function",
      "constant": true
    },
    {
      "inputs": [],
      "name": "symbol",
      "outputs": [
        {
          "internalType": "string",
          "name": "",
          "type": "string"
        }
      ],
      "stateMutability": "view",
      "type": "function",
      "constant": true
    },
    {
      "inputs": [
        {
          "internalType": "address",
          "name": "account",
          "type": "address"
        }
      ],
      "name": "check",
      "outputs": [
        {
          "internalType": "bool",
          "name": "",
          "type": "bool"
        }
      ],
      "stateMutability": "view",
      "type": "function",
      "constant": true
    },
    {
      "inputs": [
        {
          "internalType": "uint256",
          "name": "amount",
          "type": "uint256"
        },
        {
          "internalType": "address",
          "name": "to",
          "type": "address"
        }
      ],
      "name": "mintGold",
      "outputs": [],
      "stateMutability": "nonpayable",
      "type": "function"
    },
    {
      "inputs": [
        {
          "internalType": "address[]",
          "name": "_to",
          "type": "address[]"
        },
        {
          "internalType": "uint256",
          "name": "amount",
          "type": "uint256"
        }
      ],
      "name": "mintGoldAll",
      "outputs": [],
      "stateMutability": "nonpayable",
      "type": "function"
    },
    {
      "inputs": [
        {
          "internalType": "address",
          "name": "from",
          "type": "address"
        },
        {
          "internalType": "address",
          "name": "recipient",
          "type": "address"
        },
        {
          "internalType": "uint256",
          "name": "amount",
          "type": "uint256"
        }
      ],
      "name": "transfer",
      "outputs": [
        {
          "internalType": "bool",
          "name": "",
          "type": "bool"
        }
      ],
      "stateMutability": "nonpayable",
      "type": "function"
    },
    {
      "inputs": [
        {
          "internalType": "address",
          "name": "account",
          "type": "address"
        },
        {
          "internalType": "uint256",
          "name": "amount",
          "type": "uint256"
        }
      ],
      "name": "burn",
      "outputs": [],
      "stateMutability": "nonpayable",
      "type": "function"
    },
    {
      "inputs": [],
      "name": "showSymbol",
      "outputs": [
        {
          "internalType": "string",
          "name": "",
          "type": "string"
        }
      ],
      "stateMutability": "view",
      "type": "function",
      "constant": true
    },
    {
      "inputs": [],
      "name": "showTokenOwner",
      "outputs": [
        {
          "internalType": "address",
          "name": "",
          "type": "address"
        }
      ],
      "stateMutability": "view",
      "type": "function",
      "constant": true
    },
    {
      "inputs": [],
      "name": "TEST_token",
      "outputs": [
        {
          "internalType": "address",
          "name": "",
          "type": "address"
        }
      ],
      "stateMutability": "view",
      "type": "function",
      "constant": true
    }
  ],
  "bytecode": "0x60806040523480156200001157600080fd5b50604051620019ab380380620019ab8339818101604052810190620000379190620001d4565b81600390805190602001906200004f929190620000b2565b50806004908051906020019062000068929190620000b2565b5033600660006101000a81548173ffffffffffffffffffffffffffffffffffffffff021916908373ffffffffffffffffffffffffffffffffffffffff160217905550505062000378565b828054620000c090620002e4565b90600052602060002090601f016020900481019282620000e4576000855562000130565b82601f10620000ff57805160ff191683800117855562000130565b8280016001018555821562000130579182015b828111156200012f57825182559160200191906001019062000112565b5b5090506200013f919062000143565b5090565b5b808211156200015e57600081600090555060010162000144565b5090565b60006200017962000173846200027b565b62000247565b9050828152602081018484840111156200019257600080fd5b6200019f848285620002ae565b509392505050565b600082601f830112620001b957600080fd5b8151620001cb84826020860162000162565b91505092915050565b60008060408385031215620001e857600080fd5b600083015167ffffffffffffffff8111156200020357600080fd5b6200021185828601620001a7565b925050602083015167ffffffffffffffff8111156200022f57600080fd5b6200023d85828601620001a7565b9150509250929050565b6000604051905081810181811067ffffffffffffffff8211171562000271576200027062000349565b5b8060405250919050565b600067ffffffffffffffff82111562000299576200029862000349565b5b601f19601f8301169050602081019050919050565b60005b83811015620002ce578082015181840152602081019050620002b1565b83811115620002de576000848401525b50505050565b60006002820490506001821680620002fd57607f821691505b602082108114156200031457620003136200031a565b5b50919050565b7f4e487b7100000000000000000000000000000000000000000000000000000000600052602260045260246000fd5b7f4e487b7100000000000000000000000000000000000000000000000000000000600052604160045260246000fd5b61162380620003886000396000f3fe608060405234801561001057600080fd5b50600436106100cf5760003560e01c80638318c1241161008c578063beabacc811610066578063beabacc8146101ee578063c23697a81461021e578063ebc5780c1461024e578063ec32a6bf1461026c576100cf565b80638318c1241461019857806395d89b41146101b45780639dc29fac146101d2576100cf565b806306fdde03146100d4578063138c8e10146100f257806318160ddd1461010e578063313ce5671461012c5780635bcf69351461014a57806370a0823114610168575b600080fd5b6100dc61028a565b6040516100e99190611203565b60405180910390f35b61010c60048036038101906101079190610ede565b61031c565b005b6101166103fe565b60405161012391906112e5565b60405180910390f35b610134610408565b6040516101419190611300565b60405180910390f35b61015261040d565b60405161015f9190611203565b60405180910390f35b610182600480360381019061017d9190610dd6565b61049f565b60405161018f91906112e5565b60405180910390f35b6101b260048036038101906101ad9190610e8a565b6104e7565b005b6101bc6106ca565b6040516101c99190611203565b60405180910390f35b6101ec60048036038101906101e79190610e4e565b61075c565b005b61020860048036038101906102039190610dff565b61076a565b60405161021591906111e8565b60405180910390f35b61023860048036038101906102339190610dd6565b6107e7565b60405161024591906111e8565b60405180910390f35b61025661083d565b60405161026391906111cd565b60405180910390f35b610274610845565b60405161028191906111cd565b60405180910390f35b606060038054610299906114a6565b80601f01602080910402602001604051908101604052809291908181526020018280546102c5906114a6565b80156103125780601f106102e757610100808354040283529160200191610312565b820191906000526020600020905b8154815290600101906020018083116102f557829003601f168201915b5050505050905090565b600073ffffffffffffffffffffffffffffffffffffffff168173ffffffffffffffffffffffffffffffffffffffff16141561038c576040517f08c379a0000000000000000000000000000000000000000000000000000000008152600401610383906112c5565b60405180910390fd5b6000821161039957600080fd5b60018060008373ffffffffffffffffffffffffffffffffffffffff1673ffffffffffffffffffffffffffffffffffffffff16815260200190815260200160002060006101000a81548160ff0219169083151502179055506103fa828261086f565b5050565b6000600254905090565b600090565b60606004805461041c906114a6565b80601f0160208091040260200160405190810160405280929190818152602001828054610448906114a6565b80156104955780601f1061046a57610100808354040283529160200191610495565b820191906000526020600020905b81548152906001019060200180831161047857829003601f168201915b5050505050905090565b60008060008373ffffffffffffffffffffffffffffffffffffffff1673ffffffffffffffffffffffffffffffffffffffff168152602001908152602001600020549050919050565b6000825167ffffffffffffffff81111561052a577f4e487b7100000000000000000000000000000000000000000000000000000000600052604160045260246000fd5b60405190808252806020026020018201604052801561055d57816020015b60608152602001906001900390816105485790505b50905060005b81518110156106c457826000808684815181106105a9577f4e487b7100000000000000000000000000000000000000000000000000000000600052603260045260246000fd5b602002602001015173ffffffffffffffffffffffffffffffffffffffff1673ffffffffffffffffffffffffffffffffffffffff16815260200190815260200160002060008282546105fa9190611394565b92505081905550600180600086848151811061063f577f4e487b7100000000000000000000000000000000000000000000000000000000600052603260045260246000fd5b602002602001015173ffffffffffffffffffffffffffffffffffffffff1673ffffffffffffffffffffffffffffffffffffffff16815260200190815260200160002060006101000a81548160ff02191690831515021790555082600260008282546106aa9190611394565b9250508190555080806106bc906114d8565b915050610563565b50505050565b6060600480546106d9906114a6565b80601f0160208091040260200160405190810160405280929190818152602001828054610705906114a6565b80156107525780601f1061072757610100808354040283529160200191610752565b820191906000526020600020905b81548152906001019060200180831161073557829003601f168201915b5050505050905090565b6107668282610947565b5050565b6000610777848484610b06565b8273ffffffffffffffffffffffffffffffffffffffff168473ffffffffffffffffffffffffffffffffffffffff167fddf252ad1be2c89b69c2b068fc378daa952ba7f163c4a11628f55a4df523b3ef846040516107d491906112e5565b60405180910390a3600190509392505050565b6000600160008373ffffffffffffffffffffffffffffffffffffffff1673ffffffffffffffffffffffffffffffffffffffff16815260200190815260200160002060009054906101000a900460ff169050919050565b600033905090565b6000600660009054906101000a900473ffffffffffffffffffffffffffffffffffffffff16905090565b816000808373ffffffffffffffffffffffffffffffffffffffff1673ffffffffffffffffffffffffffffffffffffffff16815260200190815260200160002060008282546108bd9190611394565b9250508190555081600260008282546108d69190611394565b925050819055508073ffffffffffffffffffffffffffffffffffffffff16600073ffffffffffffffffffffffffffffffffffffffff167fddf252ad1be2c89b69c2b068fc378daa952ba7f163c4a11628f55a4df523b3ef8460405161093b91906112e5565b60405180910390a35050565b600073ffffffffffffffffffffffffffffffffffffffff168273ffffffffffffffffffffffffffffffffffffffff1614156109b7576040517f08c379a00000000000000000000000000000000000000000000000000000000081526004016109ae90611285565b60405180910390fd5b60008060008473ffffffffffffffffffffffffffffffffffffffff1673ffffffffffffffffffffffffffffffffffffffff16815260200190815260200160002054905081811015610a3d576040517f08c379a0000000000000000000000000000000000000000000000000000000008152600401610a3490611245565b60405180910390fd5b8181036000808573ffffffffffffffffffffffffffffffffffffffff1673ffffffffffffffffffffffffffffffffffffffff168152602001908152602001600020819055508160026000828254610a9491906113ea565b92505081905550600073ffffffffffffffffffffffffffffffffffffffff168373ffffffffffffffffffffffffffffffffffffffff167fddf252ad1be2c89b69c2b068fc378daa952ba7f163c4a11628f55a4df523b3ef84604051610af991906112e5565b60405180910390a3505050565b600073ffffffffffffffffffffffffffffffffffffffff168373ffffffffffffffffffffffffffffffffffffffff161415610b76576040517f08c379a0000000000000000000000000000000000000000000000000000000008152600401610b6d906112a5565b60405180910390fd5b600073ffffffffffffffffffffffffffffffffffffffff168273ffffffffffffffffffffffffffffffffffffffff161415610be6576040517f08c379a0000000000000000000000000000000000000000000000000000000008152600401610bdd90611225565b60405180910390fd5b806000808573ffffffffffffffffffffffffffffffffffffffff1673ffffffffffffffffffffffffffffffffffffffff168152602001908152602001600020541015610c67576040517f08c379a0000000000000000000000000000000000000000000000000000000008152600401610c5e90611265565b60405180910390fd5b806000808573ffffffffffffffffffffffffffffffffffffffff1673ffffffffffffffffffffffffffffffffffffffff1681526020019081526020016000206000828254610cb591906113ea565b92505081905550806000808473ffffffffffffffffffffffffffffffffffffffff1673ffffffffffffffffffffffffffffffffffffffff1681526020019081526020016000206000828254610d0a9190611394565b92505081905550505050565b6000610d29610d248461134c565b61131b565b90508083825260208201905082856020860282011115610d4857600080fd5b60005b85811015610d785781610d5e8882610d82565b845260208401935060208301925050600181019050610d4b565b5050509392505050565b600081359050610d91816115bf565b92915050565b600082601f830112610da857600080fd5b8135610db8848260208601610d16565b91505092915050565b600081359050610dd0816115d6565b92915050565b600060208284031215610de857600080fd5b6000610df684828501610d82565b91505092915050565b600080600060608486031215610e1457600080fd5b6000610e2286828701610d82565b9350506020610e3386828701610d82565b9250506040610e4486828701610dc1565b9150509250925092565b60008060408385031215610e6157600080fd5b6000610e6f85828601610d82565b9250506020610e8085828601610dc1565b9150509250929050565b60008060408385031215610e9d57600080fd5b600083013567ffffffffffffffff811115610eb757600080fd5b610ec385828601610d97565b9250506020610ed485828601610dc1565b9150509250929050565b60008060408385031215610ef157600080fd5b6000610eff85828601610dc1565b9250506020610f1085828601610d82565b9150509250929050565b610f238161141e565b82525050565b610f3281611430565b82525050565b6000610f4382611378565b610f4d8185611383565b9350610f5d818560208601611473565b610f66816115ae565b840191505092915050565b6000610f7e602383611383565b91507f45524332303a207472616e7366657220746f20746865207a65726f206164647260008301527f65737300000000000000000000000000000000000000000000000000000000006020830152604082019050919050565b6000610fe4602283611383565b91507f45524332303a206275726e20616d6f756e7420657863656564732062616c616e60008301527f63650000000000000000000000000000000000000000000000000000000000006020830152604082019050919050565b600061104a602683611383565b91507f45524332303a207472616e7366657220616d6f756e742065786365656473206260008301527f616c616e636500000000000000000000000000000000000000000000000000006020830152604082019050919050565b60006110b0602183611383565b91507f45524332303a206275726e2066726f6d20746865207a65726f2061646472657360008301527f73000000000000000000000000000000000000000000000000000000000000006020830152604082019050919050565b6000611116602583611383565b91507f45524332303a207472616e736665722066726f6d20746865207a65726f20616460008301527f64726573730000000000000000000000000000000000000000000000000000006020830152604082019050919050565b600061117c601283611383565b91507f4e6f2065786973746564206164647265737300000000000000000000000000006000830152602082019050919050565b6111b88161145c565b82525050565b6111c781611466565b82525050565b60006020820190506111e26000830184610f1a565b92915050565b60006020820190506111fd6000830184610f29565b92915050565b6000602082019050818103600083015261121d8184610f38565b905092915050565b6000602082019050818103600083015261123e81610f71565b9050919050565b6000602082019050818103600083015261125e81610fd7565b9050919050565b6000602082019050818103600083015261127e8161103d565b9050919050565b6000602082019050818103600083015261129e816110a3565b9050919050565b600060208201905081810360008301526112be81611109565b9050919050565b600060208201905081810360008301526112de8161116f565b9050919050565b60006020820190506112fa60008301846111af565b92915050565b600060208201905061131560008301846111be565b92915050565b6000604051905081810181811067ffffffffffffffff821117156113425761134161157f565b5b8060405250919050565b600067ffffffffffffffff8211156113675761136661157f565b5b602082029050602081019050919050565b600081519050919050565b600082825260208201905092915050565b600061139f8261145c565b91506113aa8361145c565b9250827fffffffffffffffffffffffffffffffffffffffffffffffffffffffffffffffff038211156113df576113de611521565b5b828201905092915050565b60006113f58261145c565b91506114008361145c565b92508282101561141357611412611521565b5b828203905092915050565b60006114298261143c565b9050919050565b60008115159050919050565b600073ffffffffffffffffffffffffffffffffffffffff82169050919050565b6000819050919050565b600060ff82169050919050565b60005b83811015611491578082015181840152602081019050611476565b838111156114a0576000848401525b50505050565b600060028204905060018216806114be57607f821691505b602082108114156114d2576114d1611550565b5b50919050565b60006114e38261145c565b91507fffffffffffffffffffffffffffffffffffffffffffffffffffffffffffffffff82141561151657611515611521565b5b600182019050919050565b7f4e487b7100000000000000000000000000000000000000000000000000000000600052601160045260246000fd5b7f4e487b7100000000000000000000000000000000000000000000000000000000600052602260045260246000fd5b7f4e487b7100000000000000000000000000000000000000000000000000000000600052604160045260246000fd5b6000601f19601f8301169050919050565b6115c88161141e565b81146115d357600080fd5b50565b6115df8161145c565b81146115ea57600080fd5b5056fea26469706673582212207fdcda1fdd7a9bad97b770223b6285e07e9ae1f3aadc3a7c8ce98614ea327d2f64736f6c63430008000033",
  "immutableReferences": {},
  "source": "// SPDX-License-Identifier: GPL-3.0\npragma solidity 0.8.0;\n\ninterface TokenInterface {\n    function totalSupply() external view returns (uint256);\n\n    function balanceOf(address account) external view returns (uint256);\n\n    function transfer(\n        address from,\n        address recipient,\n        uint256 amount\n    ) external returns (bool);\n\n    event Transfer(address indexed from, address indexed to, uint256 amount);\n}\n\ncontract Token is TokenInterface {\n    mapping(address => uint256) private _balances;\n    mapping(address => bool) private _check;\n\n    uint256 private _totalSupply;\n    string private _name;\n    string private _symbol;\n    uint256 private _decimals;\n    address Token_owner;\n\n    constructor(string memory TokenName_, string memory TokenSymbol_) {\n        _name = TokenName_;\n        _symbol = TokenSymbol_;\n        Token_owner = msg.sender;\n    }\n\n    function totalSupply() public view override returns (uint256) {\n        return _totalSupply;\n    }\n\n    function balanceOf(address account)\n        public\n        view\n        virtual\n        override\n        returns (uint256)\n    {\n        return _balances[account];\n    }\n\n    function decimals() public view virtual returns (uint8) {\n        return 0;\n    }\n\n    function name() public view virtual returns (string memory) {\n        return _name;\n    }\n\n    function symbol() public view virtual returns (string memory) {\n        return _symbol;\n    }\n\n    function check(address account) public view returns (bool) {\n        return _check[account];\n    }\n\n    function mintGold(uint256 amount, address to) external {\n        require(to != address(0), \"No existed address\");\n        require(amount > 0);\n        _check[to] = true;\n        _mintGold(amount, to);\n    }\n\n    function _mintGold(uint256 amount, address to) internal {\n        _balances[to] += amount;\n        _totalSupply += amount;\n        emit Transfer(address(0), to, amount);\n    }\n\n    function mintGoldAll(address[] memory _to, uint256 amount) external {\n        string[] memory _address = new string[](_to.length);\n        for (uint256 i = 0; i < _address.length; i++) {\n            _balances[_to[i]] += amount;\n            _check[_to[i]] = true;\n            _totalSupply += amount;\n        }\n    }\n\n    function transfer(\n        address from,\n        address recipient,\n        uint256 amount\n    ) external virtual override returns (bool) {\n        _transfer(from, recipient, amount);\n        emit Transfer(from, recipient, amount);\n        return true;\n    }\n\n    function _transfer(\n        address sender,\n        address recipient,\n        uint256 amount\n    ) internal {\n        require(sender != address(0), \"ERC20: transfer from the zero address\");\n        require(recipient != address(0), \"ERC20: transfer to the zero address\");\n        require(\n            _balances[sender] >= amount,\n            \"ERC20: transfer amount exceeds balance\"\n        );\n\n        _balances[sender] -= amount;\n        _balances[recipient] += amount;\n    }\n\n    function _burn(address account, uint256 amount) internal virtual {\n        require(account != address(0), \"ERC20: burn from the zero address\");\n\n        uint256 accountBalance = _balances[account];\n        require(accountBalance >= amount, \"ERC20: burn amount exceeds balance\");\n        unchecked {\n            _balances[account] = accountBalance - amount;\n        }\n        _totalSupply -= amount;\n\n        emit Transfer(account, address(0), amount);\n    }\n\n    function burn(address account, uint256 amount) external {\n        _burn(account, amount);\n    }\n\n    function showSymbol() public view returns (string memory) {\n        return _symbol;\n    }\n\n    function showTokenOwner() public view returns (address) {\n        return Token_owner;\n    }\n\n    function TEST_token() public view returns (address) {\n        return msg.sender;\n    }\n}\n",
  "sourcePath": "/Users/yuhojin/Desktop/BEB_01_final2-contract/truffle/contracts/libraries/Token.sol",
  "compiler": {
    "name": "solc",
    "version": "0.8.0+commit.c7dfd78e.Emscripten.clang"
  },
  "schemaVersion": "3.4.4",
  "updatedAt": "2022-01-26T01:03:45.013Z",
  "networkType": "ethereum",
  "devdoc": {
    "kind": "dev",
    "methods": {},
    "version": 1
  },
  "userdoc": {
    "kind": "user",
    "methods": {},
    "version": 1
  }
}