{
  "contractName": "Auction",
  "abi": [
    {
      "inputs": [
        {
          "internalType": "address",
          "name": "_char",
          "type": "address"
        }
      ],
      "stateMutability": "nonpayable",
      "type": "constructor"
    },
    {
      "anonymous": false,
      "inputs": [
        {
          "indexed": true,
          "internalType": "uint256",
          "name": "price",
          "type": "uint256"
        },
        {
          "indexed": true,
          "internalType": "address",
          "name": "_address",
          "type": "address"
        }
      ],
      "name": "BidEvent",
      "type": "event"
    },
    {
      "anonymous": false,
      "inputs": [
        {
          "indexed": true,
          "internalType": "address",
          "name": "_owner",
          "type": "address"
        },
        {
          "indexed": true,
          "internalType": "uint256",
          "name": "_price",
          "type": "uint256"
        },
        {
          "indexed": true,
          "internalType": "uint256",
          "name": "_item",
          "type": "uint256"
        }
      ],
      "name": "make_trade_event",
      "type": "event"
    },
    {
      "anonymous": false,
      "inputs": [
        {
          "indexed": true,
          "internalType": "address",
          "name": "_owner",
          "type": "address"
        },
        {
          "indexed": true,
          "internalType": "address",
          "name": "_buyer",
          "type": "address"
        },
        {
          "indexed": true,
          "internalType": "uint256",
          "name": "_price",
          "type": "uint256"
        }
      ],
      "name": "trade_end",
      "type": "event"
    },
    {
      "anonymous": false,
      "inputs": [
        {
          "indexed": true,
          "internalType": "uint256",
          "name": "_number",
          "type": "uint256"
        },
        {
          "indexed": true,
          "internalType": "uint256",
          "name": "tax",
          "type": "uint256"
        }
      ],
      "name": "trade_end_tax",
      "type": "event"
    },
    {
      "inputs": [
        {
          "internalType": "uint256",
          "name": "_price",
          "type": "uint256"
        },
        {
          "internalType": "uint256",
          "name": "_item",
          "type": "uint256"
        }
      ],
      "name": "make_trade",
      "outputs": [
        {
          "internalType": "bool",
          "name": "",
          "type": "bool"
        }
      ],
      "stateMutability": "nonpayable",
      "type": "function"
    },
    {
      "inputs": [
        {
          "internalType": "uint256",
          "name": "price",
          "type": "uint256"
        },
        {
          "internalType": "address",
          "name": "_buyer",
          "type": "address"
        },
        {
          "internalType": "uint256",
          "name": "Room_number",
          "type": "uint256"
        }
      ],
      "name": "Bid",
      "outputs": [
        {
          "internalType": "bool",
          "name": "",
          "type": "bool"
        }
      ],
      "stateMutability": "nonpayable",
      "type": "function"
    },
    {
      "inputs": [
        {
          "internalType": "uint256",
          "name": "room_number",
          "type": "uint256"
        }
      ],
      "name": "trade",
      "outputs": [
        {
          "internalType": "bool",
          "name": "",
          "type": "bool"
        }
      ],
      "stateMutability": "nonpayable",
      "type": "function"
    },
    {
      "inputs": [
        {
          "internalType": "uint256",
          "name": "room_number",
          "type": "uint256"
        }
      ],
      "name": "tradeOff",
      "outputs": [
        {
          "internalType": "bool",
          "name": "",
          "type": "bool"
        }
      ],
      "stateMutability": "nonpayable",
      "type": "function"
    },
    {
      "inputs": [
        {
          "internalType": "uint256",
          "name": "room_number",
          "type": "uint256"
        }
      ],
      "name": "showRoom",
      "outputs": [
        {
          "components": [
            {
              "internalType": "address",
              "name": "seller",
              "type": "address"
            },
            {
              "internalType": "address",
              "name": "buyer",
              "type": "address"
            },
            {
              "internalType": "uint256",
              "name": "price",
              "type": "uint256"
            },
            {
              "internalType": "uint256",
              "name": "product",
              "type": "uint256"
            }
          ],
          "internalType": "struct Auction.Room",
          "name": "",
          "type": "tuple"
        }
      ],
      "stateMutability": "view",
      "type": "function",
      "constant": true
    },
    {
      "inputs": [
        {
          "internalType": "uint256",
          "name": "room_number",
          "type": "uint256"
        }
      ],
      "name": "highest",
      "outputs": [
        {
          "internalType": "uint256",
          "name": "",
          "type": "uint256"
        }
      ],
      "stateMutability": "view",
      "type": "function",
      "constant": true
    },
    {
      "inputs": [
        {
          "internalType": "uint256",
          "name": "room_number",
          "type": "uint256"
        }
      ],
      "name": "showBuyer",
      "outputs": [
        {
          "internalType": "address",
          "name": "",
          "type": "address"
        }
      ],
      "stateMutability": "view",
      "type": "function",
      "constant": true
    },
    {
      "inputs": [
        {
          "internalType": "uint256",
          "name": "room_number",
          "type": "uint256"
        }
      ],
      "name": "showSeller",
      "outputs": [
        {
          "internalType": "address",
          "name": "",
          "type": "address"
        }
      ],
      "stateMutability": "view",
      "type": "function",
      "constant": true
    }
  ],
  "bytecode": "0x60806040523480156200001157600080fd5b506040516200198438038062001984833981810160405281019062000037919062000096565b80600760006101000a81548173ffffffffffffffffffffffffffffffffffffffff021916908373ffffffffffffffffffffffffffffffffffffffff1602179055505062000110565b6000815190506200009081620000f6565b92915050565b600060208284031215620000a957600080fd5b6000620000b9848285016200007f565b91505092915050565b6000620000cf82620000d6565b9050919050565b600073ffffffffffffffffffffffffffffffffffffffff82169050919050565b6200010181620000c2565b81146200010d57600080fd5b50565b61186480620001206000396000f3fe608060405234801561001057600080fd5b50600436106100885760003560e01c8063df1dd8261161005b578063df1dd8261461014d578063e076913c1461017d578063e9afc54c146101ad578063fd92b43e146101dd57610088565b80632af55ced1461008d5780635c3bd8fe146100bd578063b1efbf6e146100ed578063dcd726e11461011d575b600080fd5b6100a760048036038101906100a29190611307565b61020d565b6040516100b491906115aa565b60405180910390f35b6100d760048036038101906100d29190611307565b610365565b6040516100e49190611697565b60405180910390f35b610107600480360381019061010291906113a8565b6104b9565b60405161011491906115fc565b60405180910390f35b61013760048036038101906101329190611359565b6108a9565b60405161014491906115fc565b60405180910390f35b61016760048036038101906101629190611307565b610afc565b60405161017491906115fc565b60405180910390f35b61019760048036038101906101929190611307565b610f12565b6040516101a491906116b2565b60405180910390f35b6101c760048036038101906101c29190611307565b61106a565b6040516101d491906115aa565b60405180910390f35b6101f760048036038101906101f29190611307565b6111c2565b60405161020491906115fc565b60405180910390f35b6000600115156005600084815260200190815260200160002060009054906101000a900460ff16151514610276576040517f08c379a000000000000000000000000000000000000000000000000000000000815260040161026d90611637565b60405180910390fd5b6000600460008481526020019081526020016000206040518060800160405290816000820160009054906101000a900473ffffffffffffffffffffffffffffffffffffffff1673ffffffffffffffffffffffffffffffffffffffff1673ffffffffffffffffffffffffffffffffffffffff1681526020016001820160009054906101000a900473ffffffffffffffffffffffffffffffffffffffff1673ffffffffffffffffffffffffffffffffffffffff1673ffffffffffffffffffffffffffffffffffffffff1681526020016002820154815260200160038201548152505090508060000151915050919050565b61036d6111f8565b600115156005600084815260200190815260200160002060009054906101000a900460ff161515146103d4576040517f08c379a00000000000000000000000000000000000000000000000000000000081526004016103cb90611637565b60405180910390fd5b600460008381526020019081526020016000206040518060800160405290816000820160009054906101000a900473ffffffffffffffffffffffffffffffffffffffff1673ffffffffffffffffffffffffffffffffffffffff1673ffffffffffffffffffffffffffffffffffffffff1681526020016001820160009054906101000a900473ffffffffffffffffffffffffffffffffffffffff1673ffffffffffffffffffffffffffffffffffffffff1673ffffffffffffffffffffffffffffffffffffffff168152602001600282015481526020016003820154815250509050919050565b60008073ffffffffffffffffffffffffffffffffffffffff16600760009054906101000a900473ffffffffffffffffffffffffffffffffffffffff1673ffffffffffffffffffffffffffffffffffffffff16636352211e846040518263ffffffff1660e01b815260040161052d91906116b2565b60206040518083038186803b15801561054557600080fd5b505afa158015610559573d6000803e3d6000fd5b505050506040513d601f19601f8201168201806040525081019061057d91906112b5565b73ffffffffffffffffffffffffffffffffffffffff1614156105d4576040517f08c379a00000000000000000000000000000000000000000000000000000000081526004016105cb90611617565b60405180910390fd5b6040518060800160405280600760009054906101000a900473ffffffffffffffffffffffffffffffffffffffff1673ffffffffffffffffffffffffffffffffffffffff16636352211e856040518263ffffffff1660e01b815260040161063a91906116b2565b60206040518083038186803b15801561065257600080fd5b505afa158015610666573d6000803e3d6000fd5b505050506040513d601f19601f8201168201806040525081019061068a91906112b5565b73ffffffffffffffffffffffffffffffffffffffff168152602001600073ffffffffffffffffffffffffffffffffffffffff168152602001848152602001838152506004600084815260200190815260200160002060008201518160000160006101000a81548173ffffffffffffffffffffffffffffffffffffffff021916908373ffffffffffffffffffffffffffffffffffffffff16021790555060208201518160010160006101000a81548173ffffffffffffffffffffffffffffffffffffffff021916908373ffffffffffffffffffffffffffffffffffffffff160217905550604082015181600201556060820151816003015590505060016005600084815260200190815260200160002060006101000a81548160ff0219169083151502179055508183600760009054906101000a900473ffffffffffffffffffffffffffffffffffffffff1673ffffffffffffffffffffffffffffffffffffffff16636352211e856040518263ffffffff1660e01b815260040161080d91906116b2565b60206040518083038186803b15801561082557600080fd5b505afa158015610839573d6000803e3d6000fd5b505050506040513d601f19601f8201168201806040525081019061085d91906112b5565b73ffffffffffffffffffffffffffffffffffffffff167fa70470f5bc6fff023cafba0342a1f626ec5227fffd3cd25dfd5d46b2310e37a960405160405180910390a46001905092915050565b600080600760009054906101000a900473ffffffffffffffffffffffffffffffffffffffff1673ffffffffffffffffffffffffffffffffffffffff1663864ca300856040518263ffffffff1660e01b815260040161090791906115aa565b60206040518083038186803b15801561091f57600080fd5b505afa158015610933573d6000803e3d6000fd5b505050506040513d601f19601f820116820180604052508101906109579190611330565b905080851061099b576040517f08c379a000000000000000000000000000000000000000000000000000000000815260040161099290611657565b60405180910390fd5b600115156005600085815260200190815260200160002060009054906101000a900460ff16151514610a02576040517f08c379a00000000000000000000000000000000000000000000000000000000081526004016109f990611637565b60405180910390fd5b600060046000858152602001908152602001600020905085816002015410610a5f576040517f08c379a0000000000000000000000000000000000000000000000000000000008152600401610a5690611677565b60405180910390fd5b848160010160006101000a81548173ffffffffffffffffffffffffffffffffffffffff021916908373ffffffffffffffffffffffffffffffffffffffff1602179055508581600201819055508473ffffffffffffffffffffffffffffffffffffffff16867faea98c5b3e39af87a50472acaea8192cceb5f9da7d28b5727d39d3d869fc7d8260405160405180910390a36001925050509392505050565b6000600115156005600084815260200190815260200160002060009054906101000a900460ff16151514610b65576040517f08c379a0000000000000000000000000000000000000000000000000000000008152600401610b5c90611637565b60405180910390fd5b60006004600084815260200190815260200160002090506000600a8260020154610b8f91906116de565b90506000818360020154610ba3919061170f565b9050600760009054906101000a900473ffffffffffffffffffffffffffffffffffffffff1673ffffffffffffffffffffffffffffffffffffffff1663311a7f578460010160009054906101000a900473ffffffffffffffffffffffffffffffffffffffff168560000160009054906101000a900473ffffffffffffffffffffffffffffffffffffffff16846040518463ffffffff1660e01b8152600401610c4c939291906115c5565b600060405180830381600087803b158015610c6657600080fd5b505af1158015610c7a573d6000803e3d6000fd5b50505050600760009054906101000a900473ffffffffffffffffffffffffffffffffffffffff1673ffffffffffffffffffffffffffffffffffffffff1663311a7f578460010160009054906101000a900473ffffffffffffffffffffffffffffffffffffffff1633856040518463ffffffff1660e01b8152600401610d01939291906115c5565b600060405180830381600087803b158015610d1b57600080fd5b505af1158015610d2f573d6000803e3d6000fd5b50505050600760009054906101000a900473ffffffffffffffffffffffffffffffffffffffff1673ffffffffffffffffffffffffffffffffffffffff166323b872dd8460000160009054906101000a900473ffffffffffffffffffffffffffffffffffffffff168560010160009054906101000a900473ffffffffffffffffffffffffffffffffffffffff1686600301546040518463ffffffff1660e01b8152600401610dde939291906115c5565b602060405180830381600087803b158015610df857600080fd5b505af1158015610e0c573d6000803e3d6000fd5b505050506040513d601f19601f82011682018060405250810190610e3091906112de565b5082600201548360010160009054906101000a900473ffffffffffffffffffffffffffffffffffffffff1673ffffffffffffffffffffffffffffffffffffffff168460000160009054906101000a900473ffffffffffffffffffffffffffffffffffffffff1673ffffffffffffffffffffffffffffffffffffffff167f15ca89c15d60b404a21bc4924c3aadf666c5bf96c21450297d005128c0738b4360405160405180910390a481857fc90ef45845ec3a861e6865fbeb07d90c7254694e1a74fc8e8c8202c930a3940c60405160405180910390a360019350505050919050565b6000600115156005600084815260200190815260200160002060009054906101000a900460ff16151514610f7b576040517f08c379a0000000000000000000000000000000000000000000000000000000008152600401610f7290611637565b60405180910390fd5b6000600460008481526020019081526020016000206040518060800160405290816000820160009054906101000a900473ffffffffffffffffffffffffffffffffffffffff1673ffffffffffffffffffffffffffffffffffffffff1673ffffffffffffffffffffffffffffffffffffffff1681526020016001820160009054906101000a900473ffffffffffffffffffffffffffffffffffffffff1673ffffffffffffffffffffffffffffffffffffffff1673ffffffffffffffffffffffffffffffffffffffff1681526020016002820154815260200160038201548152505090508060400151915050919050565b6000600115156005600084815260200190815260200160002060009054906101000a900460ff161515146110d3576040517f08c379a00000000000000000000000000000000000000000000000000000000081526004016110ca90611637565b60405180910390fd5b6000600460008481526020019081526020016000206040518060800160405290816000820160009054906101000a900473ffffffffffffffffffffffffffffffffffffffff1673ffffffffffffffffffffffffffffffffffffffff1673ffffffffffffffffffffffffffffffffffffffff1681526020016001820160009054906101000a900473ffffffffffffffffffffffffffffffffffffffff1673ffffffffffffffffffffffffffffffffffffffff1673ffffffffffffffffffffffffffffffffffffffff1681526020016002820154815260200160038201548152505090508060200151915050919050565b6000806005600084815260200190815260200160002060006101000a81548160ff02191690831515021790555060019050919050565b6040518060800160405280600073ffffffffffffffffffffffffffffffffffffffff168152602001600073ffffffffffffffffffffffffffffffffffffffff16815260200160008152602001600081525090565b60008135905061125b816117e9565b92915050565b600081519050611270816117e9565b92915050565b60008151905061128581611800565b92915050565b60008135905061129a81611817565b92915050565b6000815190506112af81611817565b92915050565b6000602082840312156112c757600080fd5b60006112d584828501611261565b91505092915050565b6000602082840312156112f057600080fd5b60006112fe84828501611276565b91505092915050565b60006020828403121561131957600080fd5b60006113278482850161128b565b91505092915050565b60006020828403121561134257600080fd5b6000611350848285016112a0565b91505092915050565b60008060006060848603121561136e57600080fd5b600061137c8682870161128b565b935050602061138d8682870161124c565b925050604061139e8682870161128b565b9150509250925092565b600080604083850312156113bb57600080fd5b60006113c98582860161128b565b92505060206113da8582860161128b565b9150509250929050565b6113ed81611743565b82525050565b6113fc81611743565b82525050565b61140b81611755565b82525050565b600061141e6010836116cd565b91507f6e6f7420796f7572204974656d212121000000000000000000000000000000006000830152602082019050919050565b600061145e6012836116cd565b91507f4e6f206578697374656420526f6f6d21212100000000000000000000000000006000830152602082019050919050565b600061149e6015836116cd565b91507f707269636520657863656564732062616c616e636500000000000000000000006000830152602082019050919050565b60006114de6024836116cd565b91507f6e65656420746f20626520686967686572207468616e2068696768657374207060008301527f72696365000000000000000000000000000000000000000000000000000000006020830152604082019050919050565b60808201600082015161154d60008501826113e4565b50602082015161156060208501826113e4565b506040820151611573604085018261158c565b506060820151611586606085018261158c565b50505050565b61159581611781565b82525050565b6115a481611781565b82525050565b60006020820190506115bf60008301846113f3565b92915050565b60006060820190506115da60008301866113f3565b6115e760208301856113f3565b6115f4604083018461159b565b949350505050565b60006020820190506116116000830184611402565b92915050565b6000602082019050818103600083015261163081611411565b9050919050565b6000602082019050818103600083015261165081611451565b9050919050565b6000602082019050818103600083015261167081611491565b9050919050565b60006020820190508181036000830152611690816114d1565b9050919050565b60006080820190506116ac6000830184611537565b92915050565b60006020820190506116c7600083018461159b565b92915050565b600082825260208201905092915050565b60006116e982611781565b91506116f483611781565b925082611704576117036117ba565b5b828204905092915050565b600061171a82611781565b915061172583611781565b9250828210156117385761173761178b565b5b828203905092915050565b600061174e82611761565b9050919050565b60008115159050919050565b600073ffffffffffffffffffffffffffffffffffffffff82169050919050565b6000819050919050565b7f4e487b7100000000000000000000000000000000000000000000000000000000600052601160045260246000fd5b7f4e487b7100000000000000000000000000000000000000000000000000000000600052601260045260246000fd5b6117f281611743565b81146117fd57600080fd5b50565b61180981611755565b811461181457600080fd5b50565b61182081611781565b811461182b57600080fd5b5056fea2646970667358221220a71c5d625d8932dea4c8f7f07e93a5dd4693bbfb0be117ba85cc32c3f947fc8a64736f6c63430008000033",
  "immutableReferences": {},
  "source": "// SPDX-License-Identifier: GPL-3.0\npragma solidity 0.8.0;\n\nimport \"./Characeter.sol\";\n\ninterface Auction_test {\n    function Bid(\n        uint256 price,\n        address _address,\n        uint256 room_number\n    ) external returns (bool);\n\n    function make_trade(uint256 _price, uint256 _item) external returns (bool);\n\n    event BidEvent(uint256 indexed price, address indexed _address);\n    event make_trade_event(\n        address indexed _owner,\n        uint256 indexed _price,\n        uint256 indexed _item\n    );\n    event trade_end(\n        address indexed _owner,\n        address indexed _buyer,\n        uint256 indexed _price\n    );\n    event trade_end_tax(uint256 indexed _number, uint256 indexed tax);\n}\n\ncontract Auction is Auction_test {\n    address private seller;\n    address private buyer;\n\n    uint256 private ID;\n    uint256 private highestPrice;\n\n    //    \n    mapping(uint256 => Room) private Room_Number;\n    //    \n    mapping(uint256 => bool) private check_room;\n    //  nft   room_number \n    mapping(uint256 => uint256) private NFT_Room_number;\n\n    Character private character;\n\n    struct Room {\n        address seller;\n        address buyer;\n        uint256 price;\n        uint256 product;\n    }\n\n    constructor(address _char) {\n        character = Character(_char);\n    }\n\n    function make_trade(uint256 _price, uint256 _item)\n        public\n        override\n        returns (bool)\n    {\n        require(character.ownerOf(_item) != address(0x0), \"not your Item!!!\");\n        Room_Number[_item] = Room({\n            seller: character.ownerOf(_item),\n            buyer: address(0x0),\n            price: _price,\n            product: _item\n        });\n        check_room[_item] = true;\n        emit make_trade_event(character.ownerOf(_item), _price, _item);\n        return true;\n    }\n\n    function Bid(\n        uint256 price,\n        address _buyer,\n        uint256 Room_number\n    ) public override returns (bool) {\n        uint256 balance = character.goldBalanceOf(_buyer);\n        require(price < balance, \"price exceeds balance\");\n        require(check_room[Room_number] == true, \"No existed Room!!!\");\n        Room storage room = Room_Number[Room_number];\n        require(room.price < price, \"need to be higher than highest price\");\n        room.buyer = _buyer;\n        room.price = price;\n        emit BidEvent(price, _buyer);\n        return true;\n    }\n\n    function trade(uint256 room_number) public returns (bool) {\n        require(check_room[room_number] == true, \"No existed Room!!!\");\n        Room storage room = Room_Number[room_number];\n        uint256 fee = room.price / 10;\n        uint256 amount = room.price - fee;\n        character.goldTransfer(room.buyer, room.seller, amount);\n        character.goldTransfer(room.buyer, msg.sender, fee);\n        character.transferFrom(room.seller, room.buyer, room.product);\n        emit trade_end(room.seller, room.buyer, room.price);\n        emit trade_end_tax(room_number, fee);\n        return true;\n    }\n\n    function tradeOff(uint256 room_number) public returns (bool) {\n        check_room[room_number] = false;\n        return true;\n    }\n\n    function showRoom(uint256 room_number) public view returns (Room memory) {\n        require(check_room[room_number] == true, \"No existed Room!!!\");\n        return Room_Number[room_number];\n    }\n\n    function highest(uint256 room_number) public view returns (uint256) {\n        require(check_room[room_number] == true, \"No existed Room!!!\");\n        Room memory room = Room_Number[room_number];\n        return room.price;\n    }\n\n    function showBuyer(uint256 room_number) public view returns (address) {\n        require(check_room[room_number] == true, \"No existed Room!!!\");\n        Room memory room = Room_Number[room_number];\n        return room.buyer;\n    }\n\n    function showSeller(uint256 room_number) public view returns (address) {\n        require(check_room[room_number] == true, \"No existed Room!!!\");\n        Room memory room = Room_Number[room_number];\n        return room.seller;\n    }\n}\n",
  "sourcePath": "/Users/yuhojin/Desktop/BEB_01_final2-contract/truffle/contracts/Auction_hojin.sol",
  "compiler": {
    "name": "solc",
    "version": "0.8.0+commit.c7dfd78e.Emscripten.clang"
  },
  "schemaVersion": "3.4.4",
  "updatedAt": "2022-01-24T03:08:54.728Z",
  "networkType": "ethereum",
  "devdoc": {
    "kind": "dev",
    "methods": {},
    "version": 1
  },
  "userdoc": {
    "kind": "user",
    "methods": {},
    "version": 1
  }
}