{
  "contractName": "Character",
  "abi": [
    {
      "inputs": [
        {
          "internalType": "address",
          "name": "token",
          "type": "address"
        }
      ],
      "stateMutability": "nonpayable",
      "type": "constructor"
    },
    {
      "anonymous": false,
      "inputs": [
        {
          "indexed": true,
          "internalType": "address",
          "name": "owner",
          "type": "address"
        },
        {
          "indexed": true,
          "internalType": "address",
          "name": "approved",
          "type": "address"
        },
        {
          "indexed": true,
          "internalType": "uint256",
          "name": "tokenId",
          "type": "uint256"
        }
      ],
      "name": "Approval",
      "type": "event"
    },
    {
      "anonymous": false,
      "inputs": [
        {
          "indexed": true,
          "internalType": "address",
          "name": "owner",
          "type": "address"
        },
        {
          "indexed": true,
          "internalType": "address",
          "name": "operator",
          "type": "address"
        },
        {
          "indexed": false,
          "internalType": "bool",
          "name": "approved",
          "type": "bool"
        }
      ],
      "name": "ApprovalForAll",
      "type": "event"
    },
    {
      "anonymous": false,
      "inputs": [
        {
          "indexed": true,
          "internalType": "address",
          "name": "owner",
          "type": "address"
        },
        {
          "indexed": true,
          "internalType": "uint256",
          "name": "Pow",
          "type": "uint256"
        },
        {
          "indexed": true,
          "internalType": "uint256",
          "name": "limit",
          "type": "uint256"
        }
      ],
      "name": "NewUser",
      "type": "event"
    },
    {
      "anonymous": false,
      "inputs": [
        {
          "indexed": true,
          "internalType": "address",
          "name": "account",
          "type": "address"
        },
        {
          "indexed": true,
          "internalType": "uint256",
          "name": "amount",
          "type": "uint256"
        },
        {
          "indexed": true,
          "internalType": "uint256",
          "name": "rate",
          "type": "uint256"
        }
      ],
      "name": "TokenPurchased",
      "type": "event"
    },
    {
      "anonymous": false,
      "inputs": [
        {
          "indexed": true,
          "internalType": "address",
          "name": "from",
          "type": "address"
        },
        {
          "indexed": true,
          "internalType": "address",
          "name": "to",
          "type": "address"
        },
        {
          "indexed": true,
          "internalType": "uint256",
          "name": "tokenId",
          "type": "uint256"
        }
      ],
      "name": "Transfer",
      "type": "event"
    },
    {
      "inputs": [
        {
          "internalType": "address",
          "name": "to",
          "type": "address"
        },
        {
          "internalType": "uint256",
          "name": "tokenId",
          "type": "uint256"
        }
      ],
      "name": "approve",
      "outputs": [
        {
          "internalType": "bool",
          "name": "",
          "type": "bool"
        }
      ],
      "stateMutability": "nonpayable",
      "type": "function"
    },
    {
      "inputs": [
        {
          "internalType": "address",
          "name": "owner",
          "type": "address"
        }
      ],
      "name": "balanceOf",
      "outputs": [
        {
          "internalType": "uint256",
          "name": "",
          "type": "uint256"
        }
      ],
      "stateMutability": "view",
      "type": "function",
      "constant": true
    },
    {
      "inputs": [
        {
          "internalType": "address",
          "name": "",
          "type": "address"
        }
      ],
      "name": "checkUser",
      "outputs": [
        {
          "internalType": "bool",
          "name": "",
          "type": "bool"
        }
      ],
      "stateMutability": "view",
      "type": "function",
      "constant": true
    },
    {
      "inputs": [
        {
          "internalType": "uint256",
          "name": "tokenId",
          "type": "uint256"
        }
      ],
      "name": "getApproved",
      "outputs": [
        {
          "internalType": "address",
          "name": "",
          "type": "address"
        }
      ],
      "stateMutability": "view",
      "type": "function",
      "constant": true
    },
    {
      "inputs": [
        {
          "internalType": "uint256",
          "name": "_id",
          "type": "uint256"
        }
      ],
      "name": "getNFT",
      "outputs": [
        {
          "internalType": "string",
          "name": "",
          "type": "string"
        }
      ],
      "stateMutability": "view",
      "type": "function",
      "constant": true
    },
    {
      "inputs": [],
      "name": "getTotalNFTAmount",
      "outputs": [
        {
          "internalType": "uint256",
          "name": "",
          "type": "uint256"
        }
      ],
      "stateMutability": "view",
      "type": "function",
      "constant": true
    },
    {
      "inputs": [],
      "name": "gold",
      "outputs": [
        {
          "internalType": "contract Token",
          "name": "",
          "type": "address"
        }
      ],
      "stateMutability": "view",
      "type": "function",
      "constant": true
    },
    {
      "inputs": [
        {
          "internalType": "address",
          "name": "owner",
          "type": "address"
        },
        {
          "internalType": "address",
          "name": "operator",
          "type": "address"
        }
      ],
      "name": "isApprovedForAll",
      "outputs": [
        {
          "internalType": "bool",
          "name": "",
          "type": "bool"
        }
      ],
      "stateMutability": "view",
      "type": "function",
      "constant": true
    },
    {
      "inputs": [],
      "name": "name",
      "outputs": [
        {
          "internalType": "string",
          "name": "",
          "type": "string"
        }
      ],
      "stateMutability": "view",
      "type": "function",
      "constant": true
    },
    {
      "inputs": [],
      "name": "owner",
      "outputs": [
        {
          "internalType": "address",
          "name": "",
          "type": "address"
        }
      ],
      "stateMutability": "view",
      "type": "function",
      "constant": true
    },
    {
      "inputs": [
        {
          "internalType": "uint256",
          "name": "tokenId",
          "type": "uint256"
        }
      ],
      "name": "ownerOf",
      "outputs": [
        {
          "internalType": "address",
          "name": "",
          "type": "address"
        }
      ],
      "stateMutability": "view",
      "type": "function",
      "constant": true
    },
    {
      "inputs": [],
      "name": "rate",
      "outputs": [
        {
          "internalType": "uint256",
          "name": "",
          "type": "uint256"
        }
      ],
      "stateMutability": "view",
      "type": "function",
      "constant": true
    },
    {
      "inputs": [
        {
          "internalType": "address",
          "name": "operator",
          "type": "address"
        },
        {
          "internalType": "bool",
          "name": "approved",
          "type": "bool"
        }
      ],
      "name": "setApprovalForAll",
      "outputs": [],
      "stateMutability": "nonpayable",
      "type": "function"
    },
    {
      "inputs": [
        {
          "internalType": "bytes4",
          "name": "interfaceId",
          "type": "bytes4"
        }
      ],
      "name": "supportsInterface",
      "outputs": [
        {
          "internalType": "bool",
          "name": "",
          "type": "bool"
        }
      ],
      "stateMutability": "view",
      "type": "function",
      "constant": true
    },
    {
      "inputs": [],
      "name": "symbol",
      "outputs": [
        {
          "internalType": "string",
          "name": "",
          "type": "string"
        }
      ],
      "stateMutability": "view",
      "type": "function",
      "constant": true
    },
    {
      "inputs": [
        {
          "internalType": "uint256",
          "name": "tokenId",
          "type": "uint256"
        }
      ],
      "name": "tokenURI",
      "outputs": [
        {
          "internalType": "string",
          "name": "",
          "type": "string"
        }
      ],
      "stateMutability": "view",
      "type": "function",
      "constant": true
    },
    {
      "inputs": [
        {
          "internalType": "address",
          "name": "from",
          "type": "address"
        },
        {
          "internalType": "address",
          "name": "to",
          "type": "address"
        },
        {
          "internalType": "uint256",
          "name": "tokenId",
          "type": "uint256"
        }
      ],
      "name": "transferFrom",
      "outputs": [
        {
          "internalType": "bool",
          "name": "",
          "type": "bool"
        }
      ],
      "stateMutability": "nonpayable",
      "type": "function"
    },
    {
      "inputs": [],
      "name": "buyTokens",
      "outputs": [],
      "stateMutability": "payable",
      "type": "function",
      "payable": true
    },
    {
      "inputs": [
        {
          "internalType": "address",
          "name": "to",
          "type": "address"
        },
        {
          "internalType": "uint256",
          "name": "amount",
          "type": "uint256"
        }
      ],
      "name": "goldMint",
      "outputs": [],
      "stateMutability": "nonpayable",
      "type": "function"
    },
    {
      "inputs": [
        {
          "internalType": "address",
          "name": "to",
          "type": "address"
        },
        {
          "internalType": "string",
          "name": "URI",
          "type": "string"
        }
      ],
      "name": "NFTminting",
      "outputs": [],
      "stateMutability": "nonpayable",
      "type": "function"
    },
    {
      "inputs": [
        {
          "internalType": "address",
          "name": "from",
          "type": "address"
        },
        {
          "internalType": "address",
          "name": "to",
          "type": "address"
        },
        {
          "internalType": "uint256",
          "name": "amount",
          "type": "uint256"
        }
      ],
      "name": "goldTransfer",
      "outputs": [],
      "stateMutability": "nonpayable",
      "type": "function"
    },
    {
      "inputs": [
        {
          "internalType": "address",
          "name": "account",
          "type": "address"
        },
        {
          "internalType": "uint256",
          "name": "amount",
          "type": "uint256"
        }
      ],
      "name": "goldBurn",
      "outputs": [],
      "stateMutability": "nonpayable",
      "type": "function"
    },
    {
      "inputs": [
        {
          "internalType": "address[]",
          "name": "account",
          "type": "address[]"
        },
        {
          "internalType": "uint256",
          "name": "amount",
          "type": "uint256"
        }
      ],
      "name": "goldmintAll",
      "outputs": [],
      "stateMutability": "nonpayable",
      "type": "function"
    },
    {
      "inputs": [
        {
          "internalType": "address",
          "name": "_address",
          "type": "address"
        }
      ],
      "name": "makeCharacter",
      "outputs": [
        {
          "internalType": "bool",
          "name": "",
          "type": "bool"
        }
      ],
      "stateMutability": "nonpayable",
      "type": "function"
    },
    {
      "inputs": [
        {
          "internalType": "address",
          "name": "_address",
          "type": "address"
        }
      ],
      "name": "IncreaseLimit",
      "outputs": [],
      "stateMutability": "nonpayable",
      "type": "function"
    },
    {
      "inputs": [
        {
          "internalType": "address",
          "name": "_address",
          "type": "address"
        },
        {
          "internalType": "uint256",
          "name": "_value",
          "type": "uint256"
        }
      ],
      "name": "IncreasePow",
      "outputs": [],
      "stateMutability": "nonpayable",
      "type": "function"
    },
    {
      "inputs": [
        {
          "internalType": "address",
          "name": "_address",
          "type": "address"
        }
      ],
      "name": "getPow",
      "outputs": [
        {
          "internalType": "uint32",
          "name": "",
          "type": "uint32"
        }
      ],
      "stateMutability": "view",
      "type": "function",
      "constant": true
    },
    {
      "inputs": [
        {
          "internalType": "address",
          "name": "_address",
          "type": "address"
        }
      ],
      "name": "getLimit",
      "outputs": [
        {
          "internalType": "uint32",
          "name": "",
          "type": "uint32"
        }
      ],
      "stateMutability": "view",
      "type": "function",
      "constant": true
    },
    {
      "inputs": [
        {
          "internalType": "address",
          "name": "_address",
          "type": "address"
        }
      ],
      "name": "getUser",
      "outputs": [
        {
          "components": [
            {
              "internalType": "uint32",
              "name": "Pow",
              "type": "uint32"
            },
            {
              "internalType": "uint32",
              "name": "limit",
              "type": "uint32"
            }
          ],
          "internalType": "struct Character.Characters",
          "name": "",
          "type": "tuple"
        }
      ],
      "stateMutability": "view",
      "type": "function",
      "constant": true
    },
    {
      "inputs": [],
      "name": "getStatus",
      "outputs": [
        {
          "internalType": "uint256",
          "name": "",
          "type": "uint256"
        }
      ],
      "stateMutability": "view",
      "type": "function",
      "constant": true
    },
    {
      "inputs": [],
      "name": "goldTotalSupply",
      "outputs": [
        {
          "internalType": "uint256",
          "name": "",
          "type": "uint256"
        }
      ],
      "stateMutability": "view",
      "type": "function",
      "constant": true
    },
    {
      "inputs": [
        {
          "internalType": "address",
          "name": "account",
          "type": "address"
        }
      ],
      "name": "goldBalanceOf",
      "outputs": [
        {
          "internalType": "uint256",
          "name": "",
          "type": "uint256"
        }
      ],
      "stateMutability": "view",
      "type": "function",
      "constant": true
    },
    {
      "inputs": [
        {
          "internalType": "address",
          "name": "account",
          "type": "address"
        }
      ],
      "name": "goldCheck",
      "outputs": [
        {
          "internalType": "bool",
          "name": "",
          "type": "bool"
        }
      ],
      "stateMutability": "view",
      "type": "function",
      "constant": true
    },
    {
      "inputs": [],
      "name": "show_character_owner",
      "outputs": [
        {
          "internalType": "address",
          "name": "",
          "type": "address"
        }
      ],
      "stateMutability": "view",
      "type": "function",
      "constant": true
    }
  ],
  "bytecode": "0x608060405260006002556000600855601e600d556032600e556064600f553480156200002a57600080fd5b506040516200449938038062004499833981810160405281019062000050919062000240565b6040518060400160405280600481526020017f6974656d000000000000000000000000000000000000000000000000000000008152506040518060400160405280600381526020017f49544d00000000000000000000000000000000000000000000000000000000008152508160009080519060200190620000d492919062000179565b508060019080519060200190620000ed92919062000179565b50505033600960006101000a81548173ffffffffffffffffffffffffffffffffffffffff021916908373ffffffffffffffffffffffffffffffffffffffff16021790555080600c60006101000a81548173ffffffffffffffffffffffffffffffffffffffff021916908373ffffffffffffffffffffffffffffffffffffffff160217905550506200031f565b8280546200018790620002a0565b90600052602060002090601f016020900481019282620001ab5760008555620001f7565b82601f10620001c657805160ff1916838001178555620001f7565b82800160010185558215620001f7579182015b82811115620001f6578251825591602001919060010190620001d9565b5b5090506200020691906200020a565b5090565b5b80821115620002255760008160009055506001016200020b565b5090565b6000815190506200023a8162000305565b92915050565b6000602082840312156200025357600080fd5b6000620002638482850162000229565b91505092915050565b6000620002798262000280565b9050919050565b600073ffffffffffffffffffffffffffffffffffffffff82169050919050565b60006002820490506001821680620002b957607f821691505b60208210811415620002d057620002cf620002d6565b5b50919050565b7f4e487b7100000000000000000000000000000000000000000000000000000000600052602260045260246000fd5b62000310816200026c565b81146200031c57600080fd5b50565b61416a806200032f6000396000f3fe6080604052600436106101f95760003560e01c80636352211e1161010d578063a22cb465116100a0578063d0febe4c1161006f578063d0febe4c146107dd578063e0848a38146107e7578063e985e9c514610810578063ee4ff3601461084d578063fbec6f2114610878576101f9565b8063a22cb46514610725578063bba554a31461074e578063bbf4a66114610777578063c87b56dd146107a0576101f9565b80637f5e5dd9116100dc5780637f5e5dd914610667578063864ca300146106925780638da5cb5b146106cf57806395d89b41146106fa576101f9565b80636352211e1461057357806369b9966c146105b05780636f77926b146105ed57806370a082311461062a576101f9565b806323b872dd116101905780633b7793401161015f5780633b7793401461047a57806342616d21146104b75780634e69d560146104e2578063576f7ea71461050d578063602b6ece1461054a576101f9565b806323b872dd146103ac5780632c4e722e146103e95780632d67242e14610414578063311a7f5714610451576101f9565b80631ce28e72116101cc5780631ce28e72146102e05780631e9d48cf1461031d5780632038cd141461035a57806322a4276f14610383576101f9565b806301ffc9a7146101fe57806306fdde031461023b578063081812fc14610266578063095ea7b3146102a3575b600080fd5b34801561020a57600080fd5b506102256004803603810190610220919061306e565b6108a3565b604051610232919061392c565b60405180910390f35b34801561024757600080fd5b50610250610985565b60405161025d9190613962565b60405180910390f35b34801561027257600080fd5b5061028d60048036038101906102889190613097565b610a17565b60405161029a9190613881565b60405180910390f35b3480156102af57600080fd5b506102ca60048036038101906102c59190612fb5565b610a9c565b6040516102d7919061392c565b60405180910390f35b3480156102ec57600080fd5b5061030760048036038101906103029190612e71565b610bad565b6040516103149190613be3565b60405180910390f35b34801561032957600080fd5b50610344600480360381019061033f9190612e71565b610c6e565b604051610351919061392c565b60405180910390f35b34801561036657600080fd5b50610381600480360381019061037c9190612fb5565b610c8e565b005b34801561038f57600080fd5b506103aa60048036038101906103a59190612f61565b610db1565b005b3480156103b857600080fd5b506103d360048036038101906103ce9190612ed6565b610e50565b6040516103e0919061392c565b60405180910390f35b3480156103f557600080fd5b506103fe610eb1565b60405161040b9190613b9f565b60405180910390f35b34801561042057600080fd5b5061043b60048036038101906104369190612e71565b610eb7565b604051610448919061392c565b60405180910390f35b34801561045d57600080fd5b5061047860048036038101906104739190612ed6565b610f6b565b005b34801561048657600080fd5b506104a1600480360381019061049c9190612e71565b611022565b6040516104ae919061392c565b60405180910390f35b3480156104c357600080fd5b506104cc611278565b6040516104d99190613b9f565b60405180910390f35b3480156104ee57600080fd5b506104f761131f565b6040516105049190613b9f565b60405180910390f35b34801561051957600080fd5b50610534600480360381019061052f9190613097565b61133a565b6040516105419190613962565b60405180910390f35b34801561055657600080fd5b50610571600480360381019061056c9190612e71565b6113df565b005b34801561057f57600080fd5b5061059a60048036038101906105959190613097565b61157b565b6040516105a79190613881565b60405180910390f35b3480156105bc57600080fd5b506105d760048036038101906105d29190612e71565b61162d565b6040516105e49190613be3565b60405180910390f35b3480156105f957600080fd5b50610614600480360381019061060f9190612e71565b6116ee565b6040516106219190613b84565b60405180910390f35b34801561063657600080fd5b50610651600480360381019061064c9190612e71565b6117f2565b60405161065e9190613b9f565b60405180910390f35b34801561067357600080fd5b5061067c6118aa565b6040516106899190613881565b60405180910390f35b34801561069e57600080fd5b506106b960048036038101906106b49190612e71565b6118d4565b6040516106c69190613b9f565b60405180910390f35b3480156106db57600080fd5b506106e4611988565b6040516106f19190613881565b60405180910390f35b34801561070657600080fd5b5061070f6119ae565b60405161071c9190613962565b60405180910390f35b34801561073157600080fd5b5061074c60048036038101906107479190612f25565b611a40565b005b34801561075a57600080fd5b5061077560048036038101906107709190612fb5565b611a4f565b005b34801561078357600080fd5b5061079e60048036038101906107999190612ff1565b611bea565b005b3480156107ac57600080fd5b506107c760048036038101906107c29190613097565b611d0d565b6040516107d49190613962565b60405180910390f35b6107e5611db4565b005b3480156107f357600080fd5b5061080e60048036038101906108099190612fb5565b611f7e565b005b34801561081c57600080fd5b5061083760048036038101906108329190612e9a565b6120a1565b604051610844919061392c565b60405180910390f35b34801561085957600080fd5b50610862612135565b60405161086f9190613b9f565b60405180910390f35b34801561088457600080fd5b5061088d61213f565b60405161089a9190613947565b60405180910390f35b60007f7aa5391d000000000000000000000000000000000000000000000000000000007bffffffffffffffffffffffffffffffffffffffffffffffffffffffff1916827bffffffffffffffffffffffffffffffffffffffffffffffffffffffff1916148061096e57507f5b5e139f000000000000000000000000000000000000000000000000000000007bffffffffffffffffffffffffffffffffffffffffffffffffffffffff1916827bffffffffffffffffffffffffffffffffffffffffffffffffffffffff1916145b8061097e575061097d82612165565b5b9050919050565b60606000805461099490613f24565b80601f01602080910402602001604051908101604052809291908181526020018280546109c090613f24565b8015610a0d5780601f106109e257610100808354040283529160200191610a0d565b820191906000526020600020905b8154815290600101906020018083116109f057829003601f168201915b5050505050905090565b6000610a22826121cf565b610a61576040517f08c379a0000000000000000000000000000000000000000000000000000000008152600401610a5890613ac4565b60405180910390fd5b6005600083815260200190815260200160002060009054906101000a900473ffffffffffffffffffffffffffffffffffffffff169050919050565b600080610aa88361157b565b90508073ffffffffffffffffffffffffffffffffffffffff168473ffffffffffffffffffffffffffffffffffffffff161415610b19576040517f08c379a0000000000000000000000000000000000000000000000000000000008152600401610b1090613b04565b60405180910390fd5b8073ffffffffffffffffffffffffffffffffffffffff163373ffffffffffffffffffffffffffffffffffffffff161480610b595750610b5881336120a1565b5b610b98576040517f08c379a0000000000000000000000000000000000000000000000000000000008152600401610b8f90613a24565b60405180910390fd5b610ba2848461223b565b600191505092915050565b60008160011515600a60008373ffffffffffffffffffffffffffffffffffffffff1673ffffffffffffffffffffffffffffffffffffffff16815260200190815260200160002060009054906101000a900460ff16151514610c0d57600080fd5b6000600b60008573ffffffffffffffffffffffffffffffffffffffff1673ffffffffffffffffffffffffffffffffffffffff16815260200190815260200160002090508060000160049054906101000a900463ffffffff1692505050919050565b600a6020528060005260406000206000915054906101000a900460ff1681565b600960009054906101000a900473ffffffffffffffffffffffffffffffffffffffff1673ffffffffffffffffffffffffffffffffffffffff163373ffffffffffffffffffffffffffffffffffffffff1614610d1e576040517f08c379a0000000000000000000000000000000000000000000000000000000008152600401610d1590613b24565b60405180910390fd5b600c60009054906101000a900473ffffffffffffffffffffffffffffffffffffffff1673ffffffffffffffffffffffffffffffffffffffff16639dc29fac83836040518363ffffffff1660e01b8152600401610d7b9291906138d3565b600060405180830381600087803b158015610d9557600080fd5b505af1158015610da9573d6000803e3d6000fd5b505050505050565b600960009054906101000a900473ffffffffffffffffffffffffffffffffffffffff1673ffffffffffffffffffffffffffffffffffffffff163373ffffffffffffffffffffffffffffffffffffffff1614610e41576040517f08c379a0000000000000000000000000000000000000000000000000000000008152600401610e3890613b24565b60405180910390fd5b610e4b82826122f4565b505050565b6000610e5c848361234b565b610e9b576040517f08c379a0000000000000000000000000000000000000000000000000000000008152600401610e9290613b44565b60405180910390fd5b610ea6848484612429565b600190509392505050565b600f5481565b6000600c60009054906101000a900473ffffffffffffffffffffffffffffffffffffffff1673ffffffffffffffffffffffffffffffffffffffff1663c23697a8836040518263ffffffff1660e01b8152600401610f149190613881565b60206040518083038186803b158015610f2c57600080fd5b505afa158015610f40573d6000803e3d6000fd5b505050506040513d601f19601f82011682018060405250810190610f649190613045565b9050919050565b600c60009054906101000a900473ffffffffffffffffffffffffffffffffffffffff1673ffffffffffffffffffffffffffffffffffffffff1663beabacc88484846040518463ffffffff1660e01b8152600401610fca9392919061389c565b602060405180830381600087803b158015610fe457600080fd5b505af1158015610ff8573d6000803e3d6000fd5b505050506040513d601f19601f8201168201806040525081019061101c9190613045565b50505050565b6000600960009054906101000a900473ffffffffffffffffffffffffffffffffffffffff1673ffffffffffffffffffffffffffffffffffffffff163373ffffffffffffffffffffffffffffffffffffffff16146110b4576040517f08c379a00000000000000000000000000000000000000000000000000000000081526004016110ab90613b24565b60405180910390fd5b60001515600a60008473ffffffffffffffffffffffffffffffffffffffff1673ffffffffffffffffffffffffffffffffffffffff16815260200190815260200160002060009054906101000a900460ff1615151461111157600080fd5b6001600a60008473ffffffffffffffffffffffffffffffffffffffff1673ffffffffffffffffffffffffffffffffffffffff16815260200190815260200160002060006101000a81548160ff0219169083151502179055506000600b60008473ffffffffffffffffffffffffffffffffffffffff1673ffffffffffffffffffffffffffffffffffffffff168152602001908152602001600020905060018160000160006101000a81548163ffffffff021916908363ffffffff16021790555061012c8160000160046101000a81548163ffffffff021916908363ffffffff1602179055508060000160049054906101000a900463ffffffff1663ffffffff168160000160009054906101000a900463ffffffff1663ffffffff168473ffffffffffffffffffffffffffffffffffffffff167f35beac3098d189b6a4a53c370f630e51e7aeedceadeb14009537abfbc782e89160405160405180910390a46001915050919050565b6000600c60009054906101000a900473ffffffffffffffffffffffffffffffffffffffff1673ffffffffffffffffffffffffffffffffffffffff166318160ddd6040518163ffffffff1660e01b815260040160206040518083038186803b1580156112e257600080fd5b505afa1580156112f6573d6000803e3d6000fd5b505050506040513d601f19601f8201168201806040525081019061131a91906130c0565b905090565b6000600a61132b61267a565b6113359190613fcd565b905090565b606060076000838152602001908152602001600020805461135a90613f24565b80601f016020809104026020016040519081016040528092919081815260200182805461138690613f24565b80156113d35780601f106113a8576101008083540402835291602001916113d3565b820191906000526020600020905b8154815290600101906020018083116113b657829003601f168201915b50505050509050919050565b8060011515600a60008373ffffffffffffffffffffffffffffffffffffffff1673ffffffffffffffffffffffffffffffffffffffff16815260200190815260200160002060009054906101000a900460ff1615151461143d57600080fd5b600960009054906101000a900473ffffffffffffffffffffffffffffffffffffffff1673ffffffffffffffffffffffffffffffffffffffff163373ffffffffffffffffffffffffffffffffffffffff16146114cd576040517f08c379a00000000000000000000000000000000000000000000000000000000081526004016114c490613b24565b60405180910390fd5b600e546114d9836118d4565b10156114e457600080fd5b6114f082600e54610c8e565b6000600b60008473ffffffffffffffffffffffffffffffffffffffff1673ffffffffffffffffffffffffffffffffffffffff168152602001908152602001600020905061012c8160000160048282829054906101000a900463ffffffff166115589190613d41565b92506101000a81548163ffffffff021916908363ffffffff160217905550505050565b6000806003600084815260200190815260200160002060009054906101000a900473ffffffffffffffffffffffffffffffffffffffff169050600073ffffffffffffffffffffffffffffffffffffffff168173ffffffffffffffffffffffffffffffffffffffff161415611624576040517f08c379a000000000000000000000000000000000000000000000000000000000815260040161161b90613a64565b60405180910390fd5b80915050919050565b60008160011515600a60008373ffffffffffffffffffffffffffffffffffffffff1673ffffffffffffffffffffffffffffffffffffffff16815260200190815260200160002060009054906101000a900460ff1615151461168d57600080fd5b6000600b60008573ffffffffffffffffffffffffffffffffffffffff1673ffffffffffffffffffffffffffffffffffffffff16815260200190815260200160002090508060000160009054906101000a900463ffffffff1692505050919050565b6116f6612c2c565b8160011515600a60008373ffffffffffffffffffffffffffffffffffffffff1673ffffffffffffffffffffffffffffffffffffffff16815260200190815260200160002060009054906101000a900460ff1615151461175457600080fd5b600b60008473ffffffffffffffffffffffffffffffffffffffff1673ffffffffffffffffffffffffffffffffffffffff1681526020019081526020016000206040518060400160405290816000820160009054906101000a900463ffffffff1663ffffffff1663ffffffff1681526020016000820160049054906101000a900463ffffffff1663ffffffff1663ffffffff1681525050915050919050565b60008073ffffffffffffffffffffffffffffffffffffffff168273ffffffffffffffffffffffffffffffffffffffff161415611863576040517f08c379a000000000000000000000000000000000000000000000000000000000815260040161185a90613a44565b60405180910390fd5b600460008373ffffffffffffffffffffffffffffffffffffffff1673ffffffffffffffffffffffffffffffffffffffff168152602001908152602001600020549050919050565b6000600960009054906101000a900473ffffffffffffffffffffffffffffffffffffffff16905090565b6000600c60009054906101000a900473ffffffffffffffffffffffffffffffffffffffff1673ffffffffffffffffffffffffffffffffffffffff166370a08231836040518263ffffffff1660e01b81526004016119319190613881565b60206040518083038186803b15801561194957600080fd5b505afa15801561195d573d6000803e3d6000fd5b505050506040513d601f19601f8201168201806040525081019061198191906130c0565b9050919050565b600960009054906101000a900473ffffffffffffffffffffffffffffffffffffffff1681565b6060600180546119bd90613f24565b80601f01602080910402602001604051908101604052809291908181526020018280546119e990613f24565b8015611a365780601f10611a0b57610100808354040283529160200191611a36565b820191906000526020600020905b815481529060010190602001808311611a1957829003601f168201915b5050505050905090565b611a4b3383836126c5565b5050565b8160011515600a60008373ffffffffffffffffffffffffffffffffffffffff1673ffffffffffffffffffffffffffffffffffffffff16815260200190815260200160002060009054906101000a900460ff16151514611aad57600080fd5b600960009054906101000a900473ffffffffffffffffffffffffffffffffffffffff1673ffffffffffffffffffffffffffffffffffffffff163373ffffffffffffffffffffffffffffffffffffffff1614611b3d576040517f08c379a0000000000000000000000000000000000000000000000000000000008152600401611b3490613b24565b60405180910390fd5b600d54611b49846118d4565b1015611b5457600080fd5b611b6083600d54610c8e565b6000600b60008573ffffffffffffffffffffffffffffffffffffffff1673ffffffffffffffffffffffffffffffffffffffff1681526020019081526020016000209050828160000160008282829054906101000a900463ffffffff16611bc69190613d41565b92506101000a81548163ffffffff021916908363ffffffff16021790555050505050565b600960009054906101000a900473ffffffffffffffffffffffffffffffffffffffff1673ffffffffffffffffffffffffffffffffffffffff163373ffffffffffffffffffffffffffffffffffffffff1614611c7a576040517f08c379a0000000000000000000000000000000000000000000000000000000008152600401611c7190613b24565b60405180910390fd5b600c60009054906101000a900473ffffffffffffffffffffffffffffffffffffffff1673ffffffffffffffffffffffffffffffffffffffff16638318c12483836040518363ffffffff1660e01b8152600401611cd79291906138fc565b600060405180830381600087803b158015611cf157600080fd5b505af1158015611d05573d6000803e3d6000fd5b505050505050565b6060611d18826121cf565b611d57576040517f08c379a0000000000000000000000000000000000000000000000000000000008152600401611d4e90613ae4565b60405180910390fd5b6000611d61612832565b90506000815111611d815760405180602001604052806000815250611dac565b80611d8b84612849565b604051602001611d9c92919061385d565b6040516020818303038152906040525b915050919050565b600073ffffffffffffffffffffffffffffffffffffffff163373ffffffffffffffffffffffffffffffffffffffff161415611e24576040517f08c379a0000000000000000000000000000000000000000000000000000000008152600401611e1b90613b64565b60405180910390fd5b6000600f5434611e349190613dac565b9050600c60009054906101000a900473ffffffffffffffffffffffffffffffffffffffff1673ffffffffffffffffffffffffffffffffffffffff1663138c8e1082336040518363ffffffff1660e01b8152600401611e93929190613bba565b600060405180830381600087803b158015611ead57600080fd5b505af1158015611ec1573d6000803e3d6000fd5b505050506000600960009054906101000a900473ffffffffffffffffffffffffffffffffffffffff1690508073ffffffffffffffffffffffffffffffffffffffff166108fc349081150290604051600060405180830381858888f19350505050158015611f32573d6000803e3d6000fd5b50600f54823373ffffffffffffffffffffffffffffffffffffffff167f3ceffd410054fdaed44f598ff5c1fb450658778e2241892da4aa646979dee61760405160405180910390a45050565b600960009054906101000a900473ffffffffffffffffffffffffffffffffffffffff1673ffffffffffffffffffffffffffffffffffffffff163373ffffffffffffffffffffffffffffffffffffffff161461200e576040517f08c379a000000000000000000000000000000000000000000000000000000000815260040161200590613b24565b60405180910390fd5b600c60009054906101000a900473ffffffffffffffffffffffffffffffffffffffff1673ffffffffffffffffffffffffffffffffffffffff1663138c8e1082846040518363ffffffff1660e01b815260040161206b929190613bba565b600060405180830381600087803b15801561208557600080fd5b505af1158015612099573d6000803e3d6000fd5b505050505050565b6000600660008473ffffffffffffffffffffffffffffffffffffffff1673ffffffffffffffffffffffffffffffffffffffff16815260200190815260200160002060008373ffffffffffffffffffffffffffffffffffffffff1673ffffffffffffffffffffffffffffffffffffffff16815260200190815260200160002060009054906101000a900460ff16905092915050565b6000600854905090565b600c60009054906101000a900473ffffffffffffffffffffffffffffffffffffffff1681565b60007f01ffc9a7000000000000000000000000000000000000000000000000000000007bffffffffffffffffffffffffffffffffffffffffffffffffffffffff1916827bffffffffffffffffffffffffffffffffffffffffffffffffffffffff1916149050919050565b60008073ffffffffffffffffffffffffffffffffffffffff166003600084815260200190815260200160002060009054906101000a900473ffffffffffffffffffffffffffffffffffffffff1673ffffffffffffffffffffffffffffffffffffffff1614159050919050565b816005600083815260200190815260200160002060006101000a81548173ffffffffffffffffffffffffffffffffffffffff021916908373ffffffffffffffffffffffffffffffffffffffff160217905550808273ffffffffffffffffffffffffffffffffffffffff166122ae8361157b565b73ffffffffffffffffffffffffffffffffffffffff167f8c5be1e5ebec7d5bd14f71427d1e84f3dd0314c0f7b2291e5b200ac8c7c3b92560405160405180910390a45050565b60006002600081548092919061230990613f56565b91905055506008600081548092919061232190613f56565b91905055506000600254905061233784826129f6565b6123418184612bb8565b8091505092915050565b6000612356826121cf565b612395576040517f08c379a000000000000000000000000000000000000000000000000000000000815260040161238c90613a04565b60405180910390fd5b60006123a08361157b565b90508073ffffffffffffffffffffffffffffffffffffffff168473ffffffffffffffffffffffffffffffffffffffff16148061240f57508373ffffffffffffffffffffffffffffffffffffffff166123f784610a17565b73ffffffffffffffffffffffffffffffffffffffff16145b80612420575061241f81856120a1565b5b91505092915050565b8273ffffffffffffffffffffffffffffffffffffffff166124498261157b565b73ffffffffffffffffffffffffffffffffffffffff161461249f576040517f08c379a000000000000000000000000000000000000000000000000000000000815260040161249690613984565b60405180910390fd5b600073ffffffffffffffffffffffffffffffffffffffff168273ffffffffffffffffffffffffffffffffffffffff16141561250f576040517f08c379a0000000000000000000000000000000000000000000000000000000008152600401612506906139c4565b60405180910390fd5b61251a60008261223b565b6001600460008573ffffffffffffffffffffffffffffffffffffffff1673ffffffffffffffffffffffffffffffffffffffff168152602001908152602001600020600082825461256a9190613e06565b925050819055506001600460008473ffffffffffffffffffffffffffffffffffffffff1673ffffffffffffffffffffffffffffffffffffffff16815260200190815260200160002060008282546125c19190613ceb565b92505081905550816003600083815260200190815260200160002060006101000a81548173ffffffffffffffffffffffffffffffffffffffff021916908373ffffffffffffffffffffffffffffffffffffffff160217905550808273ffffffffffffffffffffffffffffffffffffffff168473ffffffffffffffffffffffffffffffffffffffff167fddf252ad1be2c89b69c2b068fc378daa952ba7f163c4a11628f55a4df523b3ef60405160405180910390a4505050565b600080612685611278565b90506064338260405160200161269c929190613831565b6040516020818303038152906040528051906020012060001c6126bf9190613fcd565b91505090565b8173ffffffffffffffffffffffffffffffffffffffff168373ffffffffffffffffffffffffffffffffffffffff161415612734576040517f08c379a000000000000000000000000000000000000000000000000000000000815260040161272b906139e4565b60405180910390fd5b80600660008573ffffffffffffffffffffffffffffffffffffffff1673ffffffffffffffffffffffffffffffffffffffff16815260200190815260200160002060008473ffffffffffffffffffffffffffffffffffffffff1673ffffffffffffffffffffffffffffffffffffffff16815260200190815260200160002060006101000a81548160ff0219169083151502179055508173ffffffffffffffffffffffffffffffffffffffff168373ffffffffffffffffffffffffffffffffffffffff167f17307eab39ab6107e8899845ad3d59bd9653f200f220920489ca2b5937696c3183604051612825919061392c565b60405180910390a3505050565b606060405180602001604052806000815250905090565b60606000821415612891576040518060400160405280600181526020017f300000000000000000000000000000000000000000000000000000000000000081525090506129f1565b600082905060005b600082146128c35780806128ac90613f56565b915050600a826128bc9190613d7b565b9150612899565b60008167ffffffffffffffff811115612905577f4e487b7100000000000000000000000000000000000000000000000000000000600052604160045260246000fd5b6040519080825280601f01601f1916602001820160405280156129375781602001600182028036833780820191505090505b5090505b600085146129ea576001826129509190613e06565b9150600a8561295f9190613fcd565b603061296b9190613ceb565b60f81b8183815181106129a7577f4e487b7100000000000000000000000000000000000000000000000000000000600052603260045260246000fd5b60200101907effffffffffffffffffffffffffffffffffffffffffffffffffffffffffffff1916908160001a905350600a856129e39190613d7b565b945061293b565b8093505050505b919050565b600073ffffffffffffffffffffffffffffffffffffffff168273ffffffffffffffffffffffffffffffffffffffff161415612a66576040517f08c379a0000000000000000000000000000000000000000000000000000000008152600401612a5d90613aa4565b60405180910390fd5b612a6f816121cf565b15612aaf576040517f08c379a0000000000000000000000000000000000000000000000000000000008152600401612aa6906139a4565b60405180910390fd5b6001600460008473ffffffffffffffffffffffffffffffffffffffff1673ffffffffffffffffffffffffffffffffffffffff1681526020019081526020016000206000828254612aff9190613ceb565b92505081905550816003600083815260200190815260200160002060006101000a81548173ffffffffffffffffffffffffffffffffffffffff021916908373ffffffffffffffffffffffffffffffffffffffff160217905550808273ffffffffffffffffffffffffffffffffffffffff16600073ffffffffffffffffffffffffffffffffffffffff167fddf252ad1be2c89b69c2b068fc378daa952ba7f163c4a11628f55a4df523b3ef60405160405180910390a45050565b612bc1826121cf565b612c00576040517f08c379a0000000000000000000000000000000000000000000000000000000008152600401612bf790613a84565b60405180910390fd5b80600760008481526020019081526020016000209080519060200190612c27929190612c52565b505050565b6040518060400160405280600063ffffffff168152602001600063ffffffff1681525090565b828054612c5e90613f24565b90600052602060002090601f016020900481019282612c805760008555612cc7565b82601f10612c9957805160ff1916838001178555612cc7565b82800160010185558215612cc7579182015b82811115612cc6578251825591602001919060010190612cab565b5b509050612cd49190612cd8565b5090565b5b80821115612cf1576000816000905550600101612cd9565b5090565b6000612d08612d0384613c2f565b613bfe565b90508083825260208201905082856020860282011115612d2757600080fd5b60005b85811015612d575781612d3d8882612d9f565b845260208401935060208301925050600181019050612d2a565b5050509392505050565b6000612d74612d6f84613c5b565b613bfe565b905082815260208101848484011115612d8c57600080fd5b612d97848285613ee2565b509392505050565b600081359050612dae816140d8565b92915050565b600082601f830112612dc557600080fd5b8135612dd5848260208601612cf5565b91505092915050565b600081359050612ded816140ef565b92915050565b600081519050612e02816140ef565b92915050565b600081359050612e1781614106565b92915050565b600082601f830112612e2e57600080fd5b8135612e3e848260208601612d61565b91505092915050565b600081359050612e568161411d565b92915050565b600081519050612e6b8161411d565b92915050565b600060208284031215612e8357600080fd5b6000612e9184828501612d9f565b91505092915050565b60008060408385031215612ead57600080fd5b6000612ebb85828601612d9f565b9250506020612ecc85828601612d9f565b9150509250929050565b600080600060608486031215612eeb57600080fd5b6000612ef986828701612d9f565b9350506020612f0a86828701612d9f565b9250506040612f1b86828701612e47565b9150509250925092565b60008060408385031215612f3857600080fd5b6000612f4685828601612d9f565b9250506020612f5785828601612dde565b9150509250929050565b60008060408385031215612f7457600080fd5b6000612f8285828601612d9f565b925050602083013567ffffffffffffffff811115612f9f57600080fd5b612fab85828601612e1d565b9150509250929050565b60008060408385031215612fc857600080fd5b6000612fd685828601612d9f565b9250506020612fe785828601612e47565b9150509250929050565b6000806040838503121561300457600080fd5b600083013567ffffffffffffffff81111561301e57600080fd5b61302a85828601612db4565b925050602061303b85828601612e47565b9150509250929050565b60006020828403121561305757600080fd5b600061306584828501612df3565b91505092915050565b60006020828403121561308057600080fd5b600061308e84828501612e08565b91505092915050565b6000602082840312156130a957600080fd5b60006130b784828501612e47565b91505092915050565b6000602082840312156130d257600080fd5b60006130e084828501612e5c565b91505092915050565b60006130f58383613101565b60208301905092915050565b61310a81613e3a565b82525050565b61311981613e3a565b82525050565b61313061312b82613e3a565b613f9f565b82525050565b600061314182613c9b565b61314b8185613cbe565b935061315683613c8b565b8060005b8381101561318757815161316e88826130e9565b975061317983613cb1565b92505060018101905061315a565b5085935050505092915050565b61319d81613e4c565b82525050565b6131ac81613ebe565b82525050565b60006131bd82613ca6565b6131c78185613ccf565b93506131d7818560208601613ef1565b6131e0816140ba565b840191505092915050565b60006131f682613ca6565b6132008185613ce0565b9350613210818560208601613ef1565b80840191505092915050565b6000613229602583613ccf565b91507f4552433732313a207472616e736665722066726f6d20696e636f72726563742060008301527f6f776e65720000000000000000000000000000000000000000000000000000006020830152604082019050919050565b600061328f601c83613ccf565b91507f4552433732313a20746f6b656e20616c7265616479206d696e746564000000006000830152602082019050919050565b60006132cf602483613ccf565b91507f4552433732313a207472616e7366657220746f20746865207a65726f2061646460008301527f72657373000000000000000000000000000000000000000000000000000000006020830152604082019050919050565b6000613335601983613ccf565b91507f4552433732313a20617070726f766520746f2063616c6c6572000000000000006000830152602082019050919050565b6000613375602c83613ccf565b91507f4552433732313a206f70657261746f7220717565727920666f72206e6f6e657860008301527f697374656e7420746f6b656e00000000000000000000000000000000000000006020830152604082019050919050565b60006133db603883613ccf565b91507f4552433732313a20617070726f76652063616c6c6572206973206e6f74206f7760008301527f6e6572206e6f7220617070726f76656420666f7220616c6c00000000000000006020830152604082019050919050565b6000613441602a83613ccf565b91507f4552433732313a2062616c616e636520717565727920666f7220746865207a6560008301527f726f2061646472657373000000000000000000000000000000000000000000006020830152604082019050919050565b60006134a7602983613ccf565b91507f4552433732313a206f776e657220717565727920666f72206e6f6e657869737460008301527f656e7420746f6b656e00000000000000000000000000000000000000000000006020830152604082019050919050565b600061350d602e83613ccf565b91507f45524337323155524953746f726167653a2055524920736574206f66206e6f6e60008301527f6578697374656e7420746f6b656e0000000000000000000000000000000000006020830152604082019050919050565b6000613573602083613ccf565b91507f4552433732313a206d696e7420746f20746865207a65726f20616464726573736000830152602082019050919050565b60006135b3602c83613ccf565b91507f4552433732313a20617070726f76656420717565727920666f72206e6f6e657860008301527f697374656e7420746f6b656e00000000000000000000000000000000000000006020830152604082019050919050565b6000613619602f83613ccf565b91507f4552433732314d657461646174613a2055524920717565727920666f72206e6f60008301527f6e6578697374656e7420746f6b656e00000000000000000000000000000000006020830152604082019050919050565b600061367f602183613ccf565b91507f4552433732313a20617070726f76616c20746f2063757272656e74206f776e6560008301527f72000000000000000000000000000000000000000000000000000000000000006020830152604082019050919050565b60006136e5600b83613ccf565b91507f4e6f74204f776e657221210000000000000000000000000000000000000000006000830152602082019050919050565b6000613725603183613ccf565b91507f4552433732313a207472616e736665722063616c6c6572206973206e6f74206f60008301527f776e6572206e6f7220617070726f7665640000000000000000000000000000006020830152604082019050919050565b600061378b601283613ccf565b91507f4e6f2045786973746564206164647265737300000000000000000000000000006000830152602082019050919050565b6040820160008201516137d46000850182613813565b5060208201516137e76020850182613813565b50505050565b6137f681613ea4565b82525050565b61380d61380882613ea4565b613fc3565b82525050565b61381c81613eae565b82525050565b61382b81613eae565b82525050565b600061383d828561311f565b60148201915061384d82846137fc565b6020820191508190509392505050565b600061386982856131eb565b915061387582846131eb565b91508190509392505050565b60006020820190506138966000830184613110565b92915050565b60006060820190506138b16000830186613110565b6138be6020830185613110565b6138cb60408301846137ed565b949350505050565b60006040820190506138e86000830185613110565b6138f560208301846137ed565b9392505050565b600060408201905081810360008301526139168185613136565b905061392560208301846137ed565b9392505050565b60006020820190506139416000830184613194565b92915050565b600060208201905061395c60008301846131a3565b92915050565b6000602082019050818103600083015261397c81846131b2565b905092915050565b6000602082019050818103600083015261399d8161321c565b9050919050565b600060208201905081810360008301526139bd81613282565b9050919050565b600060208201905081810360008301526139dd816132c2565b9050919050565b600060208201905081810360008301526139fd81613328565b9050919050565b60006020820190508181036000830152613a1d81613368565b9050919050565b60006020820190508181036000830152613a3d816133ce565b9050919050565b60006020820190508181036000830152613a5d81613434565b9050919050565b60006020820190508181036000830152613a7d8161349a565b9050919050565b60006020820190508181036000830152613a9d81613500565b9050919050565b60006020820190508181036000830152613abd81613566565b9050919050565b60006020820190508181036000830152613add816135a6565b9050919050565b60006020820190508181036000830152613afd8161360c565b9050919050565b60006020820190508181036000830152613b1d81613672565b9050919050565b60006020820190508181036000830152613b3d816136d8565b9050919050565b60006020820190508181036000830152613b5d81613718565b9050919050565b60006020820190508181036000830152613b7d8161377e565b9050919050565b6000604082019050613b9960008301846137be565b92915050565b6000602082019050613bb460008301846137ed565b92915050565b6000604082019050613bcf60008301856137ed565b613bdc6020830184613110565b9392505050565b6000602082019050613bf86000830184613822565b92915050565b6000604051905081810181811067ffffffffffffffff82111715613c2557613c2461408b565b5b8060405250919050565b600067ffffffffffffffff821115613c4a57613c4961408b565b5b602082029050602081019050919050565b600067ffffffffffffffff821115613c7657613c7561408b565b5b601f19601f8301169050602081019050919050565b6000819050602082019050919050565b600081519050919050565b600081519050919050565b6000602082019050919050565b600082825260208201905092915050565b600082825260208201905092915050565b600081905092915050565b6000613cf682613ea4565b9150613d0183613ea4565b9250827fffffffffffffffffffffffffffffffffffffffffffffffffffffffffffffffff03821115613d3657613d35613ffe565b5b828201905092915050565b6000613d4c82613eae565b9150613d5783613eae565b92508263ffffffff03821115613d7057613d6f613ffe565b5b828201905092915050565b6000613d8682613ea4565b9150613d9183613ea4565b925082613da157613da061402d565b5b828204905092915050565b6000613db782613ea4565b9150613dc283613ea4565b9250817fffffffffffffffffffffffffffffffffffffffffffffffffffffffffffffffff0483118215151615613dfb57613dfa613ffe565b5b828202905092915050565b6000613e1182613ea4565b9150613e1c83613ea4565b925082821015613e2f57613e2e613ffe565b5b828203905092915050565b6000613e4582613e84565b9050919050565b60008115159050919050565b60007fffffffff0000000000000000000000000000000000000000000000000000000082169050919050565b600073ffffffffffffffffffffffffffffffffffffffff82169050919050565b6000819050919050565b600063ffffffff82169050919050565b6000613ec982613ed0565b9050919050565b6000613edb82613e84565b9050919050565b82818337600083830152505050565b60005b83811015613f0f578082015181840152602081019050613ef4565b83811115613f1e576000848401525b50505050565b60006002820490506001821680613f3c57607f821691505b60208210811415613f5057613f4f61405c565b5b50919050565b6000613f6182613ea4565b91507fffffffffffffffffffffffffffffffffffffffffffffffffffffffffffffffff821415613f9457613f93613ffe565b5b600182019050919050565b6000613faa82613fb1565b9050919050565b6000613fbc826140cb565b9050919050565b6000819050919050565b6000613fd882613ea4565b9150613fe383613ea4565b925082613ff357613ff261402d565b5b828206905092915050565b7f4e487b7100000000000000000000000000000000000000000000000000000000600052601160045260246000fd5b7f4e487b7100000000000000000000000000000000000000000000000000000000600052601260045260246000fd5b7f4e487b7100000000000000000000000000000000000000000000000000000000600052602260045260246000fd5b7f4e487b7100000000000000000000000000000000000000000000000000000000600052604160045260246000fd5b6000601f19601f8301169050919050565b60008160601b9050919050565b6140e181613e3a565b81146140ec57600080fd5b50565b6140f881613e4c565b811461410357600080fd5b50565b61410f81613e58565b811461411a57600080fd5b50565b61412681613ea4565b811461413157600080fd5b5056fea2646970667358221220a2eff9e6a13d0b8ac8dcb83c3b14d22f2a6dad50190439a840e8cc85c32cf1ff64736f6c63430008000033",
  "immutableReferences": {},
  "source": "// SPDX-License-Identifier: GPL-3.0\npragma solidity 0.8.0;\nimport \"./libraries/Token.sol\";\nimport \"./libraries/NFT.sol\";\n\ninterface char {\n    event NewUser(\n        address indexed owner,\n        uint256 indexed Pow,\n        uint256 indexed limit\n    );\n    event TokenPurchased(\n        address indexed account,\n        uint256 indexed amount,\n        uint256 indexed rate\n    );\n}\n\ncontract onlyOwner {\n    address public owner;\n    mapping(address => bool) public checkUser;\n\n    constructor() {\n        owner = msg.sender;\n    }\n\n    modifier onlyowner() {\n        require(msg.sender == owner, \"Not Owner!!\");\n        _;\n    }\n    modifier isOwner(address _address) {\n        require(checkUser[_address] == true);\n        _;\n    }\n}\n\ncontract Character is NFT(\"item\", \"ITM\"), char, onlyOwner {\n    mapping(address => Characters) private _Character;\n    Token public gold;\n    uint256 PowFee = 30;\n    uint256 limitFee = 50;\n    uint256 public rate = 100;\n\n    struct Characters {\n        uint32 Pow;\n        uint32 limit;\n    }\n\n    constructor(address token) {\n        gold = Token(token);\n    }\n\n    function buyTokens() public payable {\n        require(msg.sender != address(0x0), \"No Existed address\");\n\n        uint256 tokenAmount = msg.value * rate;\n\n        gold.mintGold(tokenAmount, msg.sender);\n\n        address payable p_owner = payable(owner);\n        p_owner.transfer(msg.value);\n\n        emit TokenPurchased(msg.sender, tokenAmount, rate);\n    }\n\n    function goldMint(address to, uint256 amount) public onlyowner {\n        gold.mintGold(amount, to);\n    }\n\n    function NFTminting(address to, string memory URI) public onlyowner {\n        NFT.mintNFT(to, URI);\n    }\n\n    function goldTransfer(\n        address from,\n        address to,\n        uint256 amount\n    ) public {\n        gold.transfer(from, to, amount);\n    }\n\n    function goldBurn(address account, uint256 amount) public onlyowner {\n        gold.burn(account, amount);\n    }\n\n    function goldmintAll(address[] memory account, uint256 amount)\n        public\n        onlyowner\n    {\n        gold.mintGoldAll(account, amount);\n    }\n\n    function makeCharacter(address _address) public onlyowner returns (bool) {\n        require(checkUser[_address] == false);\n        checkUser[_address] = true;\n        Characters storage character = _Character[_address];\n        character.Pow = 1;\n        character.limit = 300;\n\n        emit NewUser(_address, character.Pow, character.limit);\n        return true;\n    }\n\n    function IncreaseLimit(address _address)\n        public\n        isOwner(_address)\n        onlyowner\n    {\n        require(goldBalanceOf(_address) >= limitFee);\n        goldBurn(_address, limitFee);\n\n        Characters storage character = _Character[_address];\n        character.limit += 300;\n    }\n\n    function IncreasePow(address _address, uint256 _value)\n        public\n        isOwner(_address)\n        onlyowner\n    {\n        require(goldBalanceOf(_address) >= PowFee);\n        goldBurn(_address, PowFee);\n\n        Characters storage character = _Character[_address];\n        character.Pow += uint32(_value);\n    }\n\n    function getPow(address _address)\n        public\n        view\n        isOwner(_address)\n        returns (uint32)\n    {\n        Characters storage character = _Character[_address];\n        return character.Pow;\n    }\n\n    function getLimit(address _address)\n        public\n        view\n        isOwner(_address)\n        returns (uint32)\n    {\n        Characters storage character = _Character[_address];\n        return character.limit;\n    }\n\n    function getUser(address _address)\n        public\n        view\n        isOwner(_address)\n        returns (Characters memory)\n    {\n        return _Character[_address];\n    }\n\n    function getRandomNumber() internal view returns (uint256) {\n        uint256 total = goldTotalSupply();\n        return uint256(keccak256(abi.encodePacked(msg.sender, total))) % 100;\n    }\n\n    function getStatus() public view returns (uint256) {\n        return getRandomNumber() % 10;\n    }\n\n    function goldTotalSupply() public view returns (uint256) {\n        return gold.totalSupply();\n    }\n\n    function goldBalanceOf(address account) public view returns (uint256) {\n        return gold.balanceOf(account);\n    }\n\n    function goldCheck(address account) public view returns (bool) {\n        return gold.check(account);\n    }\n\n    function show_character_owner() public view returns (address) {\n        return owner;\n    }\n}\n",
  "sourcePath": "/Users/yuhojin/Desktop/BEB_01_final2-contract/truffle/contracts/Characeter.sol",
  "compiler": {
    "name": "solc",
    "version": "0.8.0+commit.c7dfd78e.Emscripten.clang"
  },
  "schemaVersion": "3.4.4",
  "updatedAt": "2022-01-24T03:08:54.739Z",
  "networkType": "ethereum",
  "devdoc": {
    "kind": "dev",
    "methods": {},
    "version": 1
  },
  "userdoc": {
    "kind": "user",
    "methods": {},
    "version": 1
  }
}