{
  "contractName": "onlyOwner",
  "abi": [
    {
      "inputs": [],
      "stateMutability": "nonpayable",
      "type": "constructor"
    },
    {
      "inputs": [
        {
          "internalType": "address",
          "name": "",
          "type": "address"
        }
      ],
      "name": "checkUser",
      "outputs": [
        {
          "internalType": "bool",
          "name": "",
          "type": "bool"
        }
      ],
      "stateMutability": "view",
      "type": "function"
    },
    {
      "inputs": [],
      "name": "owner",
      "outputs": [
        {
          "internalType": "address",
          "name": "",
          "type": "address"
        }
      ],
      "stateMutability": "view",
      "type": "function"
    }
  ],
  "bytecode": "0x608060405234801561001057600080fd5b50336000806101000a81548173ffffffffffffffffffffffffffffffffffffffff021916908373ffffffffffffffffffffffffffffffffffffffff1602179055506101ea806100606000396000f3fe608060405234801561001057600080fd5b50600436106100365760003560e01c80631e9d48cf1461003b5780638da5cb5b1461006b575b600080fd5b610055600480360381019061005091906100e2565b610089565b6040516100629190610144565b60405180910390f35b6100736100a9565b6040516100809190610129565b60405180910390f35b60016020528060005260406000206000915054906101000a900460ff1681565b60008054906101000a900473ffffffffffffffffffffffffffffffffffffffff1681565b6000813590506100dc8161019d565b92915050565b6000602082840312156100f457600080fd5b6000610102848285016100cd565b91505092915050565b6101148161015f565b82525050565b61012381610171565b82525050565b600060208201905061013e600083018461010b565b92915050565b6000602082019050610159600083018461011a565b92915050565b600061016a8261017d565b9050919050565b60008115159050919050565b600073ffffffffffffffffffffffffffffffffffffffff82169050919050565b6101a68161015f565b81146101b157600080fd5b5056fea2646970667358221220d506782864ef330fee7480a274b3e8378a2445dce15e2d7f41f9f311c94b841f64736f6c63430008000033",
  "immutableReferences": {},
  "source": "// SPDX-License-Identifier: GPL-3.0\npragma solidity 0.8.0;\nimport \"./libraries/Token.sol\";\nimport \"./libraries/NFT.sol\";\n\ninterface char {\n    event NewUser(\n        address indexed owner,\n        uint256 indexed Pow,\n        uint256 indexed limit\n    );\n    event TokenPurchased(\n        address indexed account,\n        uint256 indexed amount,\n        uint256 indexed rate\n    );\n}\n\ncontract onlyOwner {\n    address public owner;\n    mapping(address => bool) public checkUser;\n\n    constructor() {\n        owner = msg.sender;\n    }\n\n    modifier onlyowner() {\n        require(msg.sender == owner, \"Not Owner!!\");\n        _;\n    }\n    modifier isOwner(address _address) {\n        require(checkUser[_address] == true);\n        _;\n    }\n}\n\ncontract Character is NFT(\"item\", \"ITM\"), char, onlyOwner {\n    mapping(address => Characters) private _Character;\n    Token public gold;\n    uint256 PowFee = 30;\n    uint256 limitFee = 50;\n    uint256 public rate = 100;\n\n    struct Characters {\n        uint32 Pow;\n        uint32 limit;\n    }\n\n    constructor(address token) {\n        gold = Token(token);\n    }\n\n    function buyTokens() public payable {\n        require(msg.sender != address(0x0), \"No Existed address\");\n\n        uint256 tokenAmount = msg.value * rate;\n\n        gold.mintGold(tokenAmount, msg.sender);\n\n        address payable p_owner = payable(owner);\n        p_owner.transfer(msg.value);\n\n        emit TokenPurchased(msg.sender, tokenAmount, rate);\n    }\n\n    function goldMint(address to, uint256 amount) public onlyowner {\n        gold.mintGold(amount, to);\n    }\n\n    function NFTminting(address to, string memory URI) public onlyowner {\n        NFT.mintNFT(to, URI);\n    }\n\n    function goldTransfer(\n        address from,\n        address to,\n        uint256 amount\n    ) public {\n        gold.transfer(from, to, amount);\n    }\n\n    function goldBurn(address account, uint256 amount) public onlyowner {\n        gold.burn(account, amount);\n    }\n\n    function goldmintAll(address[] memory account, uint256 amount)\n        public\n        onlyowner\n    {\n        gold.mintGoldAll(account, amount);\n    }\n\n    function makeCharacter(address _address) public onlyowner returns (bool) {\n        require(checkUser[_address] == false);\n        checkUser[_address] = true;\n        Characters storage character = _Character[_address];\n        character.Pow = 1;\n        character.limit = 300;\n\n        emit NewUser(_address, character.Pow, character.limit);\n        return true;\n    }\n\n    function IncreaseLimit(address _address)\n        public\n        isOwner(_address)\n        onlyowner\n    {\n        require(goldBalanceOf(_address) >= limitFee);\n        goldBurn(_address, limitFee);\n\n        Characters storage character = _Character[_address];\n        character.limit += 300;\n    }\n\n    function IncreasePow(address _address, uint256 _value)\n        public\n        isOwner(_address)\n        onlyowner\n    {\n        require(goldBalanceOf(_address) >= PowFee);\n        goldBurn(_address, PowFee);\n\n        Characters storage character = _Character[_address];\n        character.Pow += uint32(_value);\n    }\n\n    function getPow(address _address)\n        public\n        view\n        isOwner(_address)\n        returns (uint32)\n    {\n        Characters storage character = _Character[_address];\n        return character.Pow;\n    }\n\n    function getLimit(address _address)\n        public\n        view\n        isOwner(_address)\n        returns (uint32)\n    {\n        Characters storage character = _Character[_address];\n        return character.limit;\n    }\n\n    function getUser(address _address)\n        public\n        view\n        isOwner(_address)\n        returns (Characters memory)\n    {\n        return _Character[_address];\n    }\n\n    function getRandomNumber() internal view returns (uint256) {\n        uint256 total = goldTotalSupply();\n        return uint256(keccak256(abi.encodePacked(msg.sender, total))) % 100;\n    }\n\n    function getStatus() public view returns (uint256) {\n        return getRandomNumber() % 10;\n    }\n\n    function goldTotalSupply() public view returns (uint256) {\n        return gold.totalSupply();\n    }\n\n    function goldBalanceOf(address account) public view returns (uint256) {\n        return gold.balanceOf(account);\n    }\n\n    function goldCheck(address account) public view returns (bool) {\n        return gold.check(account);\n    }\n\n    function show_character_owner() public view returns (address) {\n        return owner;\n    }\n}\n",
  "sourcePath": "/Users/yuhojin/Desktop/BEB_01_final2-contract/truffle/contracts/Characeter.sol",
  "compiler": {
    "name": "solc",
    "version": "0.8.0+commit.c7dfd78e.Emscripten.clang"
  },
  "schemaVersion": "3.4.4",
  "updatedAt": "2022-01-24T03:02:17.914Z",
  "devdoc": {
    "kind": "dev",
    "methods": {},
    "version": 1
  },
  "userdoc": {
    "kind": "user",
    "methods": {},
    "version": 1
  }
}